{
  "contractName": "Erc20Custom",
  "abi": [
    {
      "inputs": [
        {
          "internalType": "uint256",
          "name": "initialSupply",
          "type": "uint256"
        },
        {
          "internalType": "string",
          "name": "name",
          "type": "string"
        },
        {
          "internalType": "string",
          "name": "symbol",
          "type": "string"
        }
      ],
      "stateMutability": "nonpayable",
      "type": "constructor"
    },
    {
      "anonymous": false,
      "inputs": [
        {
          "indexed": true,
          "internalType": "address",
          "name": "owner",
          "type": "address"
        },
        {
          "indexed": true,
          "internalType": "address",
          "name": "spender",
          "type": "address"
        },
        {
          "indexed": false,
          "internalType": "uint256",
          "name": "value",
          "type": "uint256"
        }
      ],
      "name": "Approval",
      "type": "event"
    },
    {
      "anonymous": false,
      "inputs": [
        {
          "indexed": false,
          "internalType": "address",
          "name": "to",
          "type": "address"
        },
        {
          "indexed": false,
          "internalType": "uint256",
          "name": "amount",
          "type": "uint256"
        }
      ],
      "name": "Faucet",
      "type": "event"
    },
    {
      "anonymous": false,
      "inputs": [
        {
          "indexed": true,
          "internalType": "address",
          "name": "previousOwner",
          "type": "address"
        },
        {
          "indexed": true,
          "internalType": "address",
          "name": "newOwner",
          "type": "address"
        }
      ],
      "name": "OwnershipTransferred",
      "type": "event"
    },
    {
      "anonymous": false,
      "inputs": [
        {
          "indexed": true,
          "internalType": "address",
          "name": "from",
          "type": "address"
        },
        {
          "indexed": true,
          "internalType": "address",
          "name": "to",
          "type": "address"
        },
        {
          "indexed": false,
          "internalType": "uint256",
          "name": "value",
          "type": "uint256"
        }
      ],
      "name": "Transfer",
      "type": "event"
    },
    {
      "anonymous": false,
      "inputs": [
        {
          "indexed": false,
          "internalType": "address",
          "name": "whitelistAddress",
          "type": "address"
        }
      ],
      "name": "Whitelist",
      "type": "event"
    },
    {
      "anonymous": false,
      "inputs": [
        {
          "indexed": false,
          "internalType": "address",
          "name": "whitelistAddress",
          "type": "address"
        }
      ],
      "name": "WhitelistRemovedAddress",
      "type": "event"
    },
    {
      "inputs": [
        {
          "internalType": "address",
          "name": "owner",
          "type": "address"
        },
        {
          "internalType": "address",
          "name": "spender",
          "type": "address"
        }
      ],
      "name": "allowance",
      "outputs": [
        {
          "internalType": "uint256",
          "name": "",
          "type": "uint256"
        }
      ],
      "stateMutability": "view",
      "type": "function"
    },
    {
      "inputs": [
        {
          "internalType": "address",
          "name": "spender",
          "type": "address"
        },
        {
          "internalType": "uint256",
          "name": "amount",
          "type": "uint256"
        }
      ],
      "name": "approve",
      "outputs": [
        {
          "internalType": "bool",
          "name": "",
          "type": "bool"
        }
      ],
      "stateMutability": "nonpayable",
      "type": "function"
    },
    {
      "inputs": [
        {
          "internalType": "address",
          "name": "account",
          "type": "address"
        }
      ],
      "name": "balanceOf",
      "outputs": [
        {
          "internalType": "uint256",
          "name": "",
          "type": "uint256"
        }
      ],
      "stateMutability": "view",
      "type": "function"
    },
    {
      "inputs": [],
      "name": "decimals",
      "outputs": [
        {
          "internalType": "uint8",
          "name": "",
          "type": "uint8"
        }
      ],
      "stateMutability": "view",
      "type": "function"
    },
    {
      "inputs": [
        {
          "internalType": "address",
          "name": "spender",
          "type": "address"
        },
        {
          "internalType": "uint256",
          "name": "subtractedValue",
          "type": "uint256"
        }
      ],
      "name": "decreaseAllowance",
      "outputs": [
        {
          "internalType": "bool",
          "name": "",
          "type": "bool"
        }
      ],
      "stateMutability": "nonpayable",
      "type": "function"
    },
    {
      "inputs": [
        {
          "internalType": "address",
          "name": "spender",
          "type": "address"
        },
        {
          "internalType": "uint256",
          "name": "addedValue",
          "type": "uint256"
        }
      ],
      "name": "increaseAllowance",
      "outputs": [
        {
          "internalType": "bool",
          "name": "",
          "type": "bool"
        }
      ],
      "stateMutability": "nonpayable",
      "type": "function"
    },
    {
      "inputs": [],
      "name": "name",
      "outputs": [
        {
          "internalType": "string",
          "name": "",
          "type": "string"
        }
      ],
      "stateMutability": "view",
      "type": "function"
    },
    {
      "inputs": [],
      "name": "owner",
      "outputs": [
        {
          "internalType": "address",
          "name": "",
          "type": "address"
        }
      ],
      "stateMutability": "view",
      "type": "function"
    },
    {
      "inputs": [],
      "name": "renounceOwnership",
      "outputs": [],
      "stateMutability": "nonpayable",
      "type": "function"
    },
    {
      "inputs": [],
      "name": "symbol",
      "outputs": [
        {
          "internalType": "string",
          "name": "",
          "type": "string"
        }
      ],
      "stateMutability": "view",
      "type": "function"
    },
    {
      "inputs": [],
      "name": "totalSupply",
      "outputs": [
        {
          "internalType": "uint256",
          "name": "",
          "type": "uint256"
        }
      ],
      "stateMutability": "view",
      "type": "function"
    },
    {
      "inputs": [
        {
          "internalType": "address",
          "name": "recipient",
          "type": "address"
        },
        {
          "internalType": "uint256",
          "name": "amount",
          "type": "uint256"
        }
      ],
      "name": "transfer",
      "outputs": [
        {
          "internalType": "bool",
          "name": "",
          "type": "bool"
        }
      ],
      "stateMutability": "nonpayable",
      "type": "function"
    },
    {
      "inputs": [
        {
          "internalType": "address",
          "name": "sender",
          "type": "address"
        },
        {
          "internalType": "address",
          "name": "recipient",
          "type": "address"
        },
        {
          "internalType": "uint256",
          "name": "amount",
          "type": "uint256"
        }
      ],
      "name": "transferFrom",
      "outputs": [
        {
          "internalType": "bool",
          "name": "",
          "type": "bool"
        }
      ],
      "stateMutability": "nonpayable",
      "type": "function"
    },
    {
      "inputs": [
        {
          "internalType": "address",
          "name": "newOwner",
          "type": "address"
        }
      ],
      "name": "transferOwnership",
      "outputs": [],
      "stateMutability": "nonpayable",
      "type": "function"
    },
    {
      "inputs": [],
      "name": "faucet",
      "outputs": [],
      "stateMutability": "nonpayable",
      "type": "function"
    },
    {
      "inputs": [],
      "name": "getTimeToFaucet",
      "outputs": [
        {
          "internalType": "uint256",
          "name": "",
          "type": "uint256"
        }
      ],
      "stateMutability": "view",
      "type": "function"
    },
    {
      "inputs": [
        {
          "internalType": "address",
          "name": "_whitelistAddress",
          "type": "address"
        }
      ],
      "name": "setAddrToWhitelist",
      "outputs": [],
      "stateMutability": "nonpayable",
      "type": "function"
    },
    {
      "inputs": [
        {
          "internalType": "address",
          "name": "_whitelistAddress",
          "type": "address"
        }
      ],
      "name": "deleteAddrFromWhitelist",
      "outputs": [],
      "stateMutability": "nonpayable",
      "type": "function"
    },
    {
      "inputs": [
        {
          "internalType": "address",
          "name": "_whitelistAddress",
          "type": "address"
        }
      ],
      "name": "getStatusAddrFromWhitelist",
      "outputs": [
        {
          "internalType": "bool",
          "name": "",
          "type": "bool"
        }
      ],
      "stateMutability": "view",
      "type": "function"
    }
  ],
  "bytecode": "0x608060405269021e19e0c9bab240000060085569152d02c7e14af68000006009553480156200002d57600080fd5b506040516200288138038062002881833981810160405281019062000053919062000463565b818181600390805190602001906200006d9291906200032a565b508060049080519060200190620000869291906200032a565b505050620000a96200009d620000d960201b60201c565b620000e160201b60201c565b620000d030670de0b6b3a764000085620000c491906200062f565b620001a760201b60201c565b5050506200081d565b600033905090565b6000600560009054906101000a900473ffffffffffffffffffffffffffffffffffffffff16905081600560006101000a81548173ffffffffffffffffffffffffffffffffffffffff021916908373ffffffffffffffffffffffffffffffffffffffff1602179055508173ffffffffffffffffffffffffffffffffffffffff168173ffffffffffffffffffffffffffffffffffffffff167f8be0079c531659141344cd1fd0a4f28419497f9722a3daafe3b4186f6b6457e060405160405180910390a35050565b600073ffffffffffffffffffffffffffffffffffffffff168273ffffffffffffffffffffffffffffffffffffffff1614156200021a576040517f08c379a0000000000000000000000000000000000000000000000000000000008152600401620002119062000523565b60405180910390fd5b6200022e600083836200032060201b60201c565b8060026000828254620002429190620005d2565b92505081905550806000808473ffffffffffffffffffffffffffffffffffffffff1673ffffffffffffffffffffffffffffffffffffffff1681526020019081526020016000206000828254620002999190620005d2565b925050819055508173ffffffffffffffffffffffffffffffffffffffff16600073ffffffffffffffffffffffffffffffffffffffff167fddf252ad1be2c89b69c2b068fc378daa952ba7f163c4a11628f55a4df523b3ef8360405162000300919062000545565b60405180910390a36200031c600083836200032560201b60201c565b5050565b505050565b505050565b8280546200033890620006d0565b90600052602060002090601f0160209004810192826200035c5760008555620003a8565b82601f106200037757805160ff1916838001178555620003a8565b82800160010185558215620003a8579182015b82811115620003a75782518255916020019190600101906200038a565b5b509050620003b79190620003bb565b5090565b5b80821115620003d6576000816000905550600101620003bc565b5090565b6000620003f1620003eb846200058b565b62000562565b9050828152602081018484840111156200040a57600080fd5b620004178482856200069a565b509392505050565b600082601f8301126200043157600080fd5b815162000443848260208601620003da565b91505092915050565b6000815190506200045d8162000803565b92915050565b6000806000606084860312156200047957600080fd5b600062000489868287016200044c565b935050602084015167ffffffffffffffff811115620004a757600080fd5b620004b5868287016200041f565b925050604084015167ffffffffffffffff811115620004d357600080fd5b620004e1868287016200041f565b9150509250925092565b6000620004fa601f83620005c1565b91506200050782620007da565b602082019050919050565b6200051d8162000690565b82525050565b600060208201905081810360008301526200053e81620004eb565b9050919050565b60006020820190506200055c600083018462000512565b92915050565b60006200056e62000581565b90506200057c828262000706565b919050565b6000604051905090565b600067ffffffffffffffff821115620005a957620005a86200079a565b5b620005b482620007c9565b9050602081019050919050565b600082825260208201905092915050565b6000620005df8262000690565b9150620005ec8362000690565b9250827fffffffffffffffffffffffffffffffffffffffffffffffffffffffffffffffff038211156200062457620006236200073c565b5b828201905092915050565b60006200063c8262000690565b9150620006498362000690565b9250817fffffffffffffffffffffffffffffffffffffffffffffffffffffffffffffffff04831182151516156200068557620006846200073c565b5b828202905092915050565b6000819050919050565b60005b83811015620006ba5780820151818401526020810190506200069d565b83811115620006ca576000848401525b50505050565b60006002820490506001821680620006e957607f821691505b602082108114156200070057620006ff6200076b565b5b50919050565b6200071182620007c9565b810181811067ffffffffffffffff821117156200073357620007326200079a565b5b80604052505050565b7f4e487b7100000000000000000000000000000000000000000000000000000000600052601160045260246000fd5b7f4e487b7100000000000000000000000000000000000000000000000000000000600052602260045260246000fd5b7f4e487b7100000000000000000000000000000000000000000000000000000000600052604160045260246000fd5b6000601f19601f8301169050919050565b7f45524332303a206d696e7420746f20746865207a65726f206164647265737300600082015250565b6200080e8162000690565b81146200081a57600080fd5b50565b612054806200082d6000396000f3fe608060405234801561001057600080fd5b50600436106101215760003560e01c806370a08231116100ad578063a457c2d711610071578063a457c2d71461030c578063a9059cbb1461033c578063dd62ed3e1461036c578063de5f72fd1461039c578063f2fde38b146103a657610121565b806370a0823114610278578063715018a6146102a8578063870295f1146102b25780638da5cb5b146102d057806395d89b41146102ee57610121565b806317599920116100f457806317599920146101ac57806318160ddd146101dc57806323b872dd146101fa578063313ce5671461022a578063395093511461024857610121565b806306fdde0314610126578063095ea7b3146101445780630ebb2ffb146101745780630ffc384014610190575b600080fd5b61012e6103c2565b60405161013b9190611976565b60405180910390f35b61015e600480360381019061015991906116e5565b610454565b60405161016b919061195b565b60405180910390f35b61018e60048036038101906101899190611631565b610472565b005b6101aa60048036038101906101a59190611631565b61059a565b005b6101c660048036038101906101c19190611631565b6106b8565b6040516101d3919061195b565b60405180910390f35b6101e461070e565b6040516101f19190611af8565b60405180910390f35b610214600480360381019061020f9190611696565b610718565b604051610221919061195b565b60405180910390f35b610232610810565b60405161023f9190611b13565b60405180910390f35b610262600480360381019061025d91906116e5565b610819565b60405161026f919061195b565b60405180910390f35b610292600480360381019061028d9190611631565b6108c5565b60405161029f9190611af8565b60405180910390f35b6102b061090d565b005b6102ba610995565b6040516102c79190611af8565b60405180910390f35b6102d8610a35565b6040516102e59190611917565b60405180910390f35b6102f6610a5f565b6040516103039190611976565b60405180910390f35b610326600480360381019061032191906116e5565b610af1565b604051610333919061195b565b60405180910390f35b610356600480360381019061035191906116e5565b610bdc565b604051610363919061195b565b60405180910390f35b6103866004803603810190610381919061165a565b610bfa565b6040516103939190611af8565b60405180910390f35b6103a4610c81565b005b6103c060048036038101906103bb9190611631565b610e07565b005b6060600380546103d190611c5c565b80601f01602080910402602001604051908101604052809291908181526020018280546103fd90611c5c565b801561044a5780601f1061041f5761010080835404028352916020019161044a565b820191906000526020600020905b81548152906001019060200180831161042d57829003601f168201915b5050505050905090565b6000610468610461610eff565b8484610f07565b6001905092915050565b61047a610eff565b73ffffffffffffffffffffffffffffffffffffffff16610498610a35565b73ffffffffffffffffffffffffffffffffffffffff16146104ee576040517f08c379a00000000000000000000000000000000000000000000000000000000081526004016104e590611a58565b60405180910390fd5b600115156104fb826106b8565b1515141561050857600080fd5b6001600760008373ffffffffffffffffffffffffffffffffffffffff1673ffffffffffffffffffffffffffffffffffffffff16815260200190815260200160002060006101000a81548160ff0219169083151502179055507feb73900b98b6a3e2b8b01708fe544760cf570d21e7fbe5225f24e48b5b2b432e8160405161058f9190611917565b60405180910390a150565b6105a2610eff565b73ffffffffffffffffffffffffffffffffffffffff166105c0610a35565b73ffffffffffffffffffffffffffffffffffffffff1614610616576040517f08c379a000000000000000000000000000000000000000000000000000000000815260040161060d90611a58565b60405180910390fd5b60011515610623826106b8565b15151461062f57600080fd5b600760008273ffffffffffffffffffffffffffffffffffffffff1673ffffffffffffffffffffffffffffffffffffffff16815260200190815260200160002060006101000a81549060ff02191690557f82c597bd97d06651cb1e32524bb38b97ba0d1e827b9a01291e903d5020d766aa816040516106ad9190611917565b60405180910390a150565b6000600760008373ffffffffffffffffffffffffffffffffffffffff1673ffffffffffffffffffffffffffffffffffffffff16815260200190815260200160002060009054906101000a900460ff169050919050565b6000600254905090565b60006107258484846110d2565b6000600160008673ffffffffffffffffffffffffffffffffffffffff1673ffffffffffffffffffffffffffffffffffffffff1681526020019081526020016000206000610770610eff565b73ffffffffffffffffffffffffffffffffffffffff1673ffffffffffffffffffffffffffffffffffffffff168152602001908152602001600020549050828110156107f0576040517f08c379a00000000000000000000000000000000000000000000000000000000081526004016107e790611a38565b60405180910390fd5b610804856107fc610eff565b858403610f07565b60019150509392505050565b60006012905090565b60006108bb610826610eff565b848460016000610834610eff565b73ffffffffffffffffffffffffffffffffffffffff1673ffffffffffffffffffffffffffffffffffffffff16815260200190815260200160002060008873ffffffffffffffffffffffffffffffffffffffff1673ffffffffffffffffffffffffffffffffffffffff168152602001908152602001600020546108b69190611b4a565b610f07565b6001905092915050565b60008060008373ffffffffffffffffffffffffffffffffffffffff1673ffffffffffffffffffffffffffffffffffffffff168152602001908152602001600020549050919050565b610915610eff565b73ffffffffffffffffffffffffffffffffffffffff16610933610a35565b73ffffffffffffffffffffffffffffffffffffffff1614610989576040517f08c379a000000000000000000000000000000000000000000000000000000000815260040161098090611a58565b60405180910390fd5b6109936000611353565b565b600042600660003373ffffffffffffffffffffffffffffffffffffffff1673ffffffffffffffffffffffffffffffffffffffff1681526020019081526020016000205410610a2d5742600660003373ffffffffffffffffffffffffffffffffffffffff1673ffffffffffffffffffffffffffffffffffffffff16815260200190815260200160002054610a289190611ba0565b610a30565b60005b905090565b6000600560009054906101000a900473ffffffffffffffffffffffffffffffffffffffff16905090565b606060048054610a6e90611c5c565b80601f0160208091040260200160405190810160405280929190818152602001828054610a9a90611c5c565b8015610ae75780601f10610abc57610100808354040283529160200191610ae7565b820191906000526020600020905b815481529060010190602001808311610aca57829003601f168201915b5050505050905090565b60008060016000610b00610eff565b73ffffffffffffffffffffffffffffffffffffffff1673ffffffffffffffffffffffffffffffffffffffff16815260200190815260200160002060008573ffffffffffffffffffffffffffffffffffffffff1673ffffffffffffffffffffffffffffffffffffffff16815260200190815260200160002054905082811015610bbd576040517f08c379a0000000000000000000000000000000000000000000000000000000008152600401610bb490611ab8565b60405180910390fd5b610bd1610bc8610eff565b85858403610f07565b600191505092915050565b6000610bf0610be9610eff565b84846110d2565b6001905092915050565b6000600160008473ffffffffffffffffffffffffffffffffffffffff1673ffffffffffffffffffffffffffffffffffffffff16815260200190815260200160002060008373ffffffffffffffffffffffffffffffffffffffff1673ffffffffffffffffffffffffffffffffffffffff16815260200190815260200160002054905092915050565b60011515600760003373ffffffffffffffffffffffffffffffffffffffff1673ffffffffffffffffffffffffffffffffffffffff16815260200190815260200160002060009054906101000a900460ff1615151480610d1257503373ffffffffffffffffffffffffffffffffffffffff16610cfa610a35565b73ffffffffffffffffffffffffffffffffffffffff16145b15610d6357610d2333600954611419565b7f1c5347d1e37925b93058518c26d7daabe45f0a3227e8d058aaf3682960eb2b9433600954604051610d56929190611932565b60405180910390a1610e05565b610d6c33611579565b610d7833600854611419565b610e1042610d869190611b4a565b600660003373ffffffffffffffffffffffffffffffffffffffff1673ffffffffffffffffffffffffffffffffffffffff168152602001908152602001600020819055507f1c5347d1e37925b93058518c26d7daabe45f0a3227e8d058aaf3682960eb2b9433600854604051610dfc929190611932565b60405180910390a15b565b610e0f610eff565b73ffffffffffffffffffffffffffffffffffffffff16610e2d610a35565b73ffffffffffffffffffffffffffffffffffffffff1614610e83576040517f08c379a0000000000000000000000000000000000000000000000000000000008152600401610e7a90611a58565b60405180910390fd5b600073ffffffffffffffffffffffffffffffffffffffff168173ffffffffffffffffffffffffffffffffffffffff161415610ef3576040517f08c379a0000000000000000000000000000000000000000000000000000000008152600401610eea906119d8565b60405180910390fd5b610efc81611353565b50565b600033905090565b600073ffffffffffffffffffffffffffffffffffffffff168373ffffffffffffffffffffffffffffffffffffffff161415610f77576040517f08c379a0000000000000000000000000000000000000000000000000000000008152600401610f6e90611a98565b60405180910390fd5b600073ffffffffffffffffffffffffffffffffffffffff168273ffffffffffffffffffffffffffffffffffffffff161415610fe7576040517f08c379a0000000000000000000000000000000000000000000000000000000008152600401610fde906119f8565b60405180910390fd5b80600160008573ffffffffffffffffffffffffffffffffffffffff1673ffffffffffffffffffffffffffffffffffffffff16815260200190815260200160002060008473ffffffffffffffffffffffffffffffffffffffff1673ffffffffffffffffffffffffffffffffffffffff168152602001908152602001600020819055508173ffffffffffffffffffffffffffffffffffffffff168373ffffffffffffffffffffffffffffffffffffffff167f8c5be1e5ebec7d5bd14f71427d1e84f3dd0314c0f7b2291e5b200ac8c7c3b925836040516110c59190611af8565b60405180910390a3505050565b600073ffffffffffffffffffffffffffffffffffffffff168373ffffffffffffffffffffffffffffffffffffffff161415611142576040517f08c379a000000000000000000000000000000000000000000000000000000000815260040161113990611a78565b60405180910390fd5b600073ffffffffffffffffffffffffffffffffffffffff168273ffffffffffffffffffffffffffffffffffffffff1614156111b2576040517f08c379a00000000000000000000000000000000000000000000000000000000081526004016111a990611998565b60405180910390fd5b6111bd8383836115fd565b60008060008573ffffffffffffffffffffffffffffffffffffffff1673ffffffffffffffffffffffffffffffffffffffff16815260200190815260200160002054905081811015611243576040517f08c379a000000000000000000000000000000000000000000000000000000000815260040161123a90611a18565b60405180910390fd5b8181036000808673ffffffffffffffffffffffffffffffffffffffff1673ffffffffffffffffffffffffffffffffffffffff16815260200190815260200160002081905550816000808573ffffffffffffffffffffffffffffffffffffffff1673ffffffffffffffffffffffffffffffffffffffff16815260200190815260200160002060008282546112d69190611b4a565b925050819055508273ffffffffffffffffffffffffffffffffffffffff168473ffffffffffffffffffffffffffffffffffffffff167fddf252ad1be2c89b69c2b068fc378daa952ba7f163c4a11628f55a4df523b3ef8460405161133a9190611af8565b60405180910390a361134d848484611602565b50505050565b6000600560009054906101000a900473ffffffffffffffffffffffffffffffffffffffff16905081600560006101000a81548173ffffffffffffffffffffffffffffffffffffffff021916908373ffffffffffffffffffffffffffffffffffffffff1602179055508173ffffffffffffffffffffffffffffffffffffffff168173ffffffffffffffffffffffffffffffffffffffff167f8be0079c531659141344cd1fd0a4f28419497f9722a3daafe3b4186f6b6457e060405160405180910390a35050565b600073ffffffffffffffffffffffffffffffffffffffff168273ffffffffffffffffffffffffffffffffffffffff161415611489576040517f08c379a000000000000000000000000000000000000000000000000000000000815260040161148090611ad8565b60405180910390fd5b611495600083836115fd565b80600260008282546114a79190611b4a565b92505081905550806000808473ffffffffffffffffffffffffffffffffffffffff1673ffffffffffffffffffffffffffffffffffffffff16815260200190815260200160002060008282546114fc9190611b4a565b925050819055508173ffffffffffffffffffffffffffffffffffffffff16600073ffffffffffffffffffffffffffffffffffffffff167fddf252ad1be2c89b69c2b068fc378daa952ba7f163c4a11628f55a4df523b3ef836040516115619190611af8565b60405180910390a361157560008383611602565b5050565b600660008273ffffffffffffffffffffffffffffffffffffffff1673ffffffffffffffffffffffffffffffffffffffff1681526020019081526020016000205442116115fa576040517f08c379a00000000000000000000000000000000000000000000000000000000081526004016115f1906119b8565b60405180910390fd5b50565b505050565b505050565b60008135905061161681611ff0565b92915050565b60008135905061162b81612007565b92915050565b60006020828403121561164357600080fd5b600061165184828501611607565b91505092915050565b6000806040838503121561166d57600080fd5b600061167b85828601611607565b925050602061168c85828601611607565b9150509250929050565b6000806000606084860312156116ab57600080fd5b60006116b986828701611607565b93505060206116ca86828701611607565b92505060406116db8682870161161c565b9150509250925092565b600080604083850312156116f857600080fd5b600061170685828601611607565b92505060206117178582860161161c565b9150509250929050565b61172a81611bd4565b82525050565b61173981611be6565b82525050565b600061174a82611b2e565b6117548185611b39565b9350611764818560208601611c29565b61176d81611cec565b840191505092915050565b6000611785602383611b39565b915061179082611cfd565b604082019050919050565b60006117a8601b83611b39565b91506117b382611d4c565b602082019050919050565b60006117cb602683611b39565b91506117d682611d75565b604082019050919050565b60006117ee602283611b39565b91506117f982611dc4565b604082019050919050565b6000611811602683611b39565b915061181c82611e13565b604082019050919050565b6000611834602883611b39565b915061183f82611e62565b604082019050919050565b6000611857602083611b39565b915061186282611eb1565b602082019050919050565b600061187a602583611b39565b915061188582611eda565b604082019050919050565b600061189d602483611b39565b91506118a882611f29565b604082019050919050565b60006118c0602583611b39565b91506118cb82611f78565b604082019050919050565b60006118e3601f83611b39565b91506118ee82611fc7565b602082019050919050565b61190281611c12565b82525050565b61191181611c1c565b82525050565b600060208201905061192c6000830184611721565b92915050565b60006040820190506119476000830185611721565b61195460208301846118f9565b9392505050565b60006020820190506119706000830184611730565b92915050565b60006020820190508181036000830152611990818461173f565b905092915050565b600060208201905081810360008301526119b181611778565b9050919050565b600060208201905081810360008301526119d18161179b565b9050919050565b600060208201905081810360008301526119f1816117be565b9050919050565b60006020820190508181036000830152611a11816117e1565b9050919050565b60006020820190508181036000830152611a3181611804565b9050919050565b60006020820190508181036000830152611a5181611827565b9050919050565b60006020820190508181036000830152611a718161184a565b9050919050565b60006020820190508181036000830152611a918161186d565b9050919050565b60006020820190508181036000830152611ab181611890565b9050919050565b60006020820190508181036000830152611ad1816118b3565b9050919050565b60006020820190508181036000830152611af1816118d6565b9050919050565b6000602082019050611b0d60008301846118f9565b92915050565b6000602082019050611b286000830184611908565b92915050565b600081519050919050565b600082825260208201905092915050565b6000611b5582611c12565b9150611b6083611c12565b9250827fffffffffffffffffffffffffffffffffffffffffffffffffffffffffffffffff03821115611b9557611b94611c8e565b5b828201905092915050565b6000611bab82611c12565b9150611bb683611c12565b925082821015611bc957611bc8611c8e565b5b828203905092915050565b6000611bdf82611bf2565b9050919050565b60008115159050919050565b600073ffffffffffffffffffffffffffffffffffffffff82169050919050565b6000819050919050565b600060ff82169050919050565b60005b83811015611c47578082015181840152602081019050611c2c565b83811115611c56576000848401525b50505050565b60006002820490506001821680611c7457607f821691505b60208210811415611c8857611c87611cbd565b5b50919050565b7f4e487b7100000000000000000000000000000000000000000000000000000000600052601160045260246000fd5b7f4e487b7100000000000000000000000000000000000000000000000000000000600052602260045260246000fd5b6000601f19601f8301169050919050565b7f45524332303a207472616e7366657220746f20746865207a65726f206164647260008201527f6573730000000000000000000000000000000000000000000000000000000000602082015250565b7f4641554345545f4552524f523a4d5553545f474f5f315f484f55520000000000600082015250565b7f4f776e61626c653a206e6577206f776e657220697320746865207a65726f206160008201527f6464726573730000000000000000000000000000000000000000000000000000602082015250565b7f45524332303a20617070726f766520746f20746865207a65726f20616464726560008201527f7373000000000000000000000000000000000000000000000000000000000000602082015250565b7f45524332303a207472616e7366657220616d6f756e742065786365656473206260008201527f616c616e63650000000000000000000000000000000000000000000000000000602082015250565b7f45524332303a207472616e7366657220616d6f756e742065786365656473206160008201527f6c6c6f77616e6365000000000000000000000000000000000000000000000000602082015250565b7f4f776e61626c653a2063616c6c6572206973206e6f7420746865206f776e6572600082015250565b7f45524332303a207472616e736665722066726f6d20746865207a65726f20616460008201527f6472657373000000000000000000000000000000000000000000000000000000602082015250565b7f45524332303a20617070726f76652066726f6d20746865207a65726f2061646460008201527f7265737300000000000000000000000000000000000000000000000000000000602082015250565b7f45524332303a2064656372656173656420616c6c6f77616e63652062656c6f7760008201527f207a65726f000000000000000000000000000000000000000000000000000000602082015250565b7f45524332303a206d696e7420746f20746865207a65726f206164647265737300600082015250565b611ff981611bd4565b811461200457600080fd5b50565b61201081611c12565b811461201b57600080fd5b5056fea2646970667358221220b68d20f3e43d27770481502bf018162b75e170ec3998f49af5929f17cd16ef4764736f6c63430008040033",
  "immutableReferences": {},
  "source": "pragma solidity ^0.8.4;\n\nimport \"@openzeppelin/contracts/token/ERC20/ERC20.sol\";\nimport \"@openzeppelin/contracts/access/Ownable.sol\";\n\ncontract Erc20Custom is ERC20, Ownable{\n    constructor(uint256 initialSupply, \n                string memory name,\n                string memory symbol\n                ) ERC20(name, symbol)\n    {\n         _mint(address(this), initialSupply * 10**18);\n    }\n\n    event Faucet(address to, uint256 amount);\n    event Whitelist(address whitelistAddress);\n    event WhitelistRemovedAddress(address whitelistAddress);\n    mapping(address=>uint256) private faucetAddress;\n    mapping(address=>bool) private whitelistAddress;\n    uint256 private amountFaucet = 1000*10e18;\n    uint256 private amountFaucetForWhitelistAddress = 10000*10e18;\n\n    function _faucet(address _to) private{\n        require(block.timestamp > faucetAddress[_to], \"FAUCET_ERROR:MUST_GO_1_HOUR\");\n    }\n\n    function faucet() external{\n        if(whitelistAddress[msg.sender] == true || owner() == msg.sender){\n            _mint(msg.sender, amountFaucetForWhitelistAddress);\n            emit Faucet(msg.sender, amountFaucetForWhitelistAddress);\n            return;\n        }\n        _faucet(msg.sender);\n        _mint(msg.sender, amountFaucet);\n        faucetAddress[msg.sender] = block.timestamp + 1 hours;\n        emit Faucet(msg.sender, amountFaucet);\n    }\n\n    function getTimeToFaucet() view external returns(uint256){\n        return faucetAddress[msg.sender] < block.timestamp ? 0 : faucetAddress[msg.sender] - block.timestamp;\n    }\n\n    function setAddrToWhitelist(address _whitelistAddress) onlyOwner() external {\n        require(getStatusAddrFromWhitelist(_whitelistAddress) != true);\n        whitelistAddress[_whitelistAddress] = true;\n        emit Whitelist(_whitelistAddress);\n    }\n\n    function deleteAddrFromWhitelist(address _whitelistAddress) onlyOwner() external {\n        require(getStatusAddrFromWhitelist(_whitelistAddress) == true);\n        delete whitelistAddress[_whitelistAddress];\n        emit WhitelistRemovedAddress(_whitelistAddress);\n    }\n\n    function getStatusAddrFromWhitelist(address _whitelistAddress) view public returns(bool){\n        return whitelistAddress[_whitelistAddress];\n    }\n    \n}",
  "sourcePath": "/home/apm1001/Solidity/work/web3/contracts/erc20-custom-faucet.sol",
  "compiler": {
    "name": "solc",
    "version": "0.8.4+commit.c7e474f2.Emscripten.clang"
  },
  "schemaVersion": "3.4.3",
  "updatedAt": "2021-12-10T14:31:22.896Z",
  "devdoc": {
    "kind": "dev",
    "methods": {
      "allowance(address,address)": {
        "details": "See {IERC20-allowance}."
      },
      "approve(address,uint256)": {
        "details": "See {IERC20-approve}. Requirements: - `spender` cannot be the zero address."
      },
      "balanceOf(address)": {
        "details": "See {IERC20-balanceOf}."
      },
      "decimals()": {
        "details": "Returns the number of decimals used to get its user representation. For example, if `decimals` equals `2`, a balance of `505` tokens should be displayed to a user as `5.05` (`505 / 10 ** 2`). Tokens usually opt for a value of 18, imitating the relationship between Ether and Wei. This is the value {ERC20} uses, unless this function is overridden; NOTE: This information is only used for _display_ purposes: it in no way affects any of the arithmetic of the contract, including {IERC20-balanceOf} and {IERC20-transfer}."
      },
      "decreaseAllowance(address,uint256)": {
        "details": "Atomically decreases the allowance granted to `spender` by the caller. This is an alternative to {approve} that can be used as a mitigation for problems described in {IERC20-approve}. Emits an {Approval} event indicating the updated allowance. Requirements: - `spender` cannot be the zero address. - `spender` must have allowance for the caller of at least `subtractedValue`."
      },
      "increaseAllowance(address,uint256)": {
        "details": "Atomically increases the allowance granted to `spender` by the caller. This is an alternative to {approve} that can be used as a mitigation for problems described in {IERC20-approve}. Emits an {Approval} event indicating the updated allowance. Requirements: - `spender` cannot be the zero address."
      },
      "name()": {
        "details": "Returns the name of the token."
      },
      "owner()": {
        "details": "Returns the address of the current owner."
      },
      "renounceOwnership()": {
        "details": "Leaves the contract without owner. It will not be possible to call `onlyOwner` functions anymore. Can only be called by the current owner. NOTE: Renouncing ownership will leave the contract without an owner, thereby removing any functionality that is only available to the owner."
      },
      "symbol()": {
        "details": "Returns the symbol of the token, usually a shorter version of the name."
      },
      "totalSupply()": {
        "details": "See {IERC20-totalSupply}."
      },
      "transfer(address,uint256)": {
        "details": "See {IERC20-transfer}. Requirements: - `recipient` cannot be the zero address. - the caller must have a balance of at least `amount`."
      },
      "transferFrom(address,address,uint256)": {
        "details": "See {IERC20-transferFrom}. Emits an {Approval} event indicating the updated allowance. This is not required by the EIP. See the note at the beginning of {ERC20}. Requirements: - `sender` and `recipient` cannot be the zero address. - `sender` must have a balance of at least `amount`. - the caller must have allowance for ``sender``'s tokens of at least `amount`."
      },
      "transferOwnership(address)": {
        "details": "Transfers ownership of the contract to a new account (`newOwner`). Can only be called by the current owner."
      }
    },
    "version": 1
  },
  "userdoc": {
    "kind": "user",
    "methods": {},
    "version": 1
  }
}