{
  "abi": [
    {
      "inputs": [],
      "payable": false,
      "stateMutability": "nonpayable",
      "type": "constructor"
    },
    {
      "anonymous": false,
      "inputs": [
        {
          "indexed": true,
          "internalType": "address",
          "name": "owner",
          "type": "address"
        },
        {
          "indexed": true,
          "internalType": "address",
          "name": "spender",
          "type": "address"
        },
        {
          "indexed": false,
          "internalType": "uint256",
          "name": "value",
          "type": "uint256"
        }
      ],
      "name": "Approval",
      "type": "event"
    },
    {
      "anonymous": false,
      "inputs": [
        {
          "indexed": true,
          "internalType": "address",
          "name": "sender",
          "type": "address"
        },
        {
          "indexed": false,
          "internalType": "uint256",
          "name": "amount0",
          "type": "uint256"
        },
        {
          "indexed": false,
          "internalType": "uint256",
          "name": "amount1",
          "type": "uint256"
        },
        {
          "indexed": true,
          "internalType": "address",
          "name": "to",
          "type": "address"
        }
      ],
      "name": "Burn",
      "type": "event"
    },
    {
      "anonymous": false,
      "inputs": [
        {
          "indexed": true,
          "internalType": "address",
          "name": "sender",
          "type": "address"
        },
        {
          "indexed": false,
          "internalType": "uint256",
          "name": "amount0",
          "type": "uint256"
        },
        {
          "indexed": false,
          "internalType": "uint256",
          "name": "amount1",
          "type": "uint256"
        }
      ],
      "name": "Mint",
      "type": "event"
    },
    {
      "anonymous": false,
      "inputs": [
        {
          "indexed": true,
          "internalType": "address",
          "name": "sender",
          "type": "address"
        },
        {
          "indexed": false,
          "internalType": "uint256",
          "name": "amount0In",
          "type": "uint256"
        },
        {
          "indexed": false,
          "internalType": "uint256",
          "name": "amount1In",
          "type": "uint256"
        },
        {
          "indexed": false,
          "internalType": "uint256",
          "name": "amount0Out",
          "type": "uint256"
        },
        {
          "indexed": false,
          "internalType": "uint256",
          "name": "amount1Out",
          "type": "uint256"
        },
        {
          "indexed": true,
          "internalType": "address",
          "name": "to",
          "type": "address"
        }
      ],
      "name": "Swap",
      "type": "event"
    },
    {
      "anonymous": false,
      "inputs": [
        {
          "indexed": false,
          "internalType": "uint112",
          "name": "reserve0",
          "type": "uint112"
        },
        {
          "indexed": false,
          "internalType": "uint112",
          "name": "reserve1",
          "type": "uint112"
        }
      ],
      "name": "Sync",
      "type": "event"
    },
    {
      "anonymous": false,
      "inputs": [
        {
          "indexed": true,
          "internalType": "address",
          "name": "from",
          "type": "address"
        },
        {
          "indexed": true,
          "internalType": "address",
          "name": "to",
          "type": "address"
        },
        {
          "indexed": false,
          "internalType": "uint256",
          "name": "value",
          "type": "uint256"
        }
      ],
      "name": "Transfer",
      "type": "event"
    },
    {
      "constant": true,
      "inputs": [],
      "name": "DOMAIN_SEPARATOR",
      "outputs": [
        {
          "internalType": "bytes32",
          "name": "",
          "type": "bytes32"
        }
      ],
      "payable": false,
      "stateMutability": "view",
      "type": "function"
    },
    {
      "constant": true,
      "inputs": [],
      "name": "MINIMUM_LIQUIDITY",
      "outputs": [
        {
          "internalType": "uint256",
          "name": "",
          "type": "uint256"
        }
      ],
      "payable": false,
      "stateMutability": "view",
      "type": "function"
    },
    {
      "constant": true,
      "inputs": [],
      "name": "PERMIT_TYPEHASH",
      "outputs": [
        {
          "internalType": "bytes32",
          "name": "",
          "type": "bytes32"
        }
      ],
      "payable": false,
      "stateMutability": "view",
      "type": "function"
    },
    {
      "constant": true,
      "inputs": [
        {
          "internalType": "address",
          "name": "",
          "type": "address"
        },
        {
          "internalType": "address",
          "name": "",
          "type": "address"
        }
      ],
      "name": "allowance",
      "outputs": [
        {
          "internalType": "uint256",
          "name": "",
          "type": "uint256"
        }
      ],
      "payable": false,
      "stateMutability": "view",
      "type": "function"
    },
    {
      "constant": false,
      "inputs": [
        {
          "internalType": "address",
          "name": "spender",
          "type": "address"
        },
        {
          "internalType": "uint256",
          "name": "value",
          "type": "uint256"
        }
      ],
      "name": "approve",
      "outputs": [
        {
          "internalType": "bool",
          "name": "",
          "type": "bool"
        }
      ],
      "payable": false,
      "stateMutability": "nonpayable",
      "type": "function"
    },
    {
      "constant": true,
      "inputs": [
        {
          "internalType": "address",
          "name": "",
          "type": "address"
        }
      ],
      "name": "balanceOf",
      "outputs": [
        {
          "internalType": "uint256",
          "name": "",
          "type": "uint256"
        }
      ],
      "payable": false,
      "stateMutability": "view",
      "type": "function"
    },
    {
      "constant": false,
      "inputs": [
        {
          "internalType": "address",
          "name": "to",
          "type": "address"
        }
      ],
      "name": "burn",
      "outputs": [
        {
          "internalType": "uint256",
          "name": "amount0",
          "type": "uint256"
        },
        {
          "internalType": "uint256",
          "name": "amount1",
          "type": "uint256"
        }
      ],
      "payable": false,
      "stateMutability": "nonpayable",
      "type": "function"
    },
    {
      "constant": true,
      "inputs": [],
      "name": "decimals",
      "outputs": [
        {
          "internalType": "uint8",
          "name": "",
          "type": "uint8"
        }
      ],
      "payable": false,
      "stateMutability": "view",
      "type": "function"
    },
    {
      "constant": true,
      "inputs": [],
      "name": "factory",
      "outputs": [
        {
          "internalType": "address",
          "name": "",
          "type": "address"
        }
      ],
      "payable": false,
      "stateMutability": "view",
      "type": "function"
    },
    {
      "constant": true,
      "inputs": [],
      "name": "forceDisableMitigation",
      "outputs": [
        {
          "internalType": "bool",
          "name": "",
          "type": "bool"
        }
      ],
      "payable": false,
      "stateMutability": "view",
      "type": "function"
    },
    {
      "constant": true,
      "inputs": [],
      "name": "forceEnableMitigation",
      "outputs": [
        {
          "internalType": "bool",
          "name": "",
          "type": "bool"
        }
      ],
      "payable": false,
      "stateMutability": "view",
      "type": "function"
    },
    {
      "constant": true,
      "inputs": [],
      "name": "getReserves",
      "outputs": [
        {
          "internalType": "uint112",
          "name": "_reserve0",
          "type": "uint112"
        },
        {
          "internalType": "uint112",
          "name": "_reserve1",
          "type": "uint112"
        },
        {
          "internalType": "uint32",
          "name": "_blockTimestampLast",
          "type": "uint32"
        }
      ],
      "payable": false,
      "stateMutability": "view",
      "type": "function"
    },
    {
      "constant": false,
      "inputs": [
        {
          "internalType": "address",
          "name": "_token0",
          "type": "address"
        },
        {
          "internalType": "address",
          "name": "_token1",
          "type": "address"
        },
        {
          "internalType": "bool",
          "name": "_forceEnableMitigation",
          "type": "bool"
        }
      ],
      "name": "initialize",
      "outputs": [],
      "payable": false,
      "stateMutability": "nonpayable",
      "type": "function"
    },
    {
      "constant": true,
      "inputs": [],
      "name": "isSecurityPool",
      "outputs": [
        {
          "internalType": "bool",
          "name": "",
          "type": "bool"
        }
      ],
      "payable": false,
      "stateMutability": "view",
      "type": "function"
    },
    {
      "constant": true,
      "inputs": [],
      "name": "isToken0Sec",
      "outputs": [
        {
          "internalType": "bool",
          "name": "",
          "type": "bool"
        }
      ],
      "payable": false,
      "stateMutability": "view",
      "type": "function"
    },
    {
      "constant": true,
      "inputs": [],
      "name": "isToken1Sec",
      "outputs": [
        {
          "internalType": "bool",
          "name": "",
          "type": "bool"
        }
      ],
      "payable": false,
      "stateMutability": "view",
      "type": "function"
    },
    {
      "constant": true,
      "inputs": [],
      "name": "kLast",
      "outputs": [
        {
          "internalType": "uint256",
          "name": "",
          "type": "uint256"
        }
      ],
      "payable": false,
      "stateMutability": "view",
      "type": "function"
    },
    {
      "constant": false,
      "inputs": [
        {
          "internalType": "address",
          "name": "to",
          "type": "address"
        }
      ],
      "name": "mint",
      "outputs": [
        {
          "internalType": "uint256",
          "name": "liquidity",
          "type": "uint256"
        }
      ],
      "payable": false,
      "stateMutability": "nonpayable",
      "type": "function"
    },
    {
      "constant": true,
      "inputs": [],
      "name": "mitigationEnabled",
      "outputs": [
        {
          "internalType": "bool",
          "name": "",
          "type": "bool"
        }
      ],
      "payable": false,
      "stateMutability": "view",
      "type": "function"
    },
    {
      "constant": true,
      "inputs": [],
      "name": "name",
      "outputs": [
        {
          "internalType": "string",
          "name": "",
          "type": "string"
        }
      ],
      "payable": false,
      "stateMutability": "view",
      "type": "function"
    },
    {
      "constant": true,
      "inputs": [
        {
          "internalType": "address",
          "name": "",
          "type": "address"
        }
      ],
      "name": "nonces",
      "outputs": [
        {
          "internalType": "uint256",
          "name": "",
          "type": "uint256"
        }
      ],
      "payable": false,
      "stateMutability": "view",
      "type": "function"
    },
    {
      "constant": false,
      "inputs": [
        {
          "internalType": "address",
          "name": "owner",
          "type": "address"
        },
        {
          "internalType": "address",
          "name": "spender",
          "type": "address"
        },
        {
          "internalType": "uint256",
          "name": "value",
          "type": "uint256"
        },
        {
          "internalType": "uint256",
          "name": "deadline",
          "type": "uint256"
        },
        {
          "internalType": "uint8",
          "name": "v",
          "type": "uint8"
        },
        {
          "internalType": "bytes32",
          "name": "r",
          "type": "bytes32"
        },
        {
          "internalType": "bytes32",
          "name": "s",
          "type": "bytes32"
        }
      ],
      "name": "permit",
      "outputs": [],
      "payable": false,
      "stateMutability": "nonpayable",
      "type": "function"
    },
    {
      "constant": true,
      "inputs": [],
      "name": "price0CumulativeLast",
      "outputs": [
        {
          "internalType": "uint256",
          "name": "",
          "type": "uint256"
        }
      ],
      "payable": false,
      "stateMutability": "view",
      "type": "function"
    },
    {
      "constant": true,
      "inputs": [],
      "name": "price1CumulativeLast",
      "outputs": [
        {
          "internalType": "uint256",
          "name": "",
          "type": "uint256"
        }
      ],
      "payable": false,
      "stateMutability": "view",
      "type": "function"
    },
    {
      "constant": false,
      "inputs": [
        {
          "internalType": "bool",
          "name": "forceEnable",
          "type": "bool"
        },
        {
          "internalType": "bool",
          "name": "forceDisable",
          "type": "bool"
        }
      ],
      "name": "setForceMitigation",
      "outputs": [],
      "payable": false,
      "stateMutability": "nonpayable",
      "type": "function"
    },
    {
      "constant": false,
      "inputs": [
        {
          "internalType": "address",
          "name": "to",
          "type": "address"
        }
      ],
      "name": "skim",
      "outputs": [],
      "payable": false,
      "stateMutability": "nonpayable",
      "type": "function"
    },
    {
      "constant": false,
      "inputs": [
        {
          "internalType": "uint256",
          "name": "amount0Out",
          "type": "uint256"
        },
        {
          "internalType": "uint256",
          "name": "amount1Out",
          "type": "uint256"
        },
        {
          "internalType": "address",
          "name": "to",
          "type": "address"
        },
        {
          "internalType": "bytes",
          "name": "data",
          "type": "bytes"
        },
        {
          "components": [
            {
              "internalType": "address",
              "name": "operator",
              "type": "address"
            },
            {
              "internalType": "uint256",
              "name": "deadline",
              "type": "uint256"
            },
            {
              "internalType": "uint8",
              "name": "v",
              "type": "uint8"
            },
            {
              "internalType": "bytes32",
              "name": "r",
              "type": "bytes32"
            },
            {
              "internalType": "bytes32",
              "name": "s",
              "type": "bytes32"
            }
          ],
          "internalType": "struct IIxsV2Pair.SecAuthorization[]",
          "name": "authorizations",
          "type": "tuple[]"
        }
      ],
      "name": "swap",
      "outputs": [],
      "payable": false,
      "stateMutability": "nonpayable",
      "type": "function"
    },
    {
      "constant": true,
      "inputs": [],
      "name": "symbol",
      "outputs": [
        {
          "internalType": "string",
          "name": "",
          "type": "string"
        }
      ],
      "payable": false,
      "stateMutability": "view",
      "type": "function"
    },
    {
      "constant": false,
      "inputs": [],
      "name": "sync",
      "outputs": [],
      "payable": false,
      "stateMutability": "nonpayable",
      "type": "function"
    },
    {
      "constant": true,
      "inputs": [],
      "name": "token0",
      "outputs": [
        {
          "internalType": "address",
          "name": "",
          "type": "address"
        }
      ],
      "payable": false,
      "stateMutability": "view",
      "type": "function"
    },
    {
      "constant": true,
      "inputs": [],
      "name": "token1",
      "outputs": [
        {
          "internalType": "address",
          "name": "",
          "type": "address"
        }
      ],
      "payable": false,
      "stateMutability": "view",
      "type": "function"
    },
    {
      "constant": true,
      "inputs": [],
      "name": "totalSupply",
      "outputs": [
        {
          "internalType": "uint256",
          "name": "",
          "type": "uint256"
        }
      ],
      "payable": false,
      "stateMutability": "view",
      "type": "function"
    },
    {
      "constant": false,
      "inputs": [
        {
          "internalType": "address",
          "name": "to",
          "type": "address"
        },
        {
          "internalType": "uint256",
          "name": "value",
          "type": "uint256"
        }
      ],
      "name": "transfer",
      "outputs": [
        {
          "internalType": "bool",
          "name": "",
          "type": "bool"
        }
      ],
      "payable": false,
      "stateMutability": "nonpayable",
      "type": "function"
    },
    {
      "constant": false,
      "inputs": [
        {
          "internalType": "address",
          "name": "from",
          "type": "address"
        },
        {
          "internalType": "address",
          "name": "to",
          "type": "address"
        },
        {
          "internalType": "uint256",
          "name": "value",
          "type": "uint256"
        }
      ],
      "name": "transferFrom",
      "outputs": [
        {
          "internalType": "bool",
          "name": "",
          "type": "bool"
        }
      ],
      "payable": false,
      "stateMutability": "nonpayable",
      "type": "function"
    }
  ],
  "evm": {
    "bytecode": {
      "linkReferences": {},
      "object": "60806040526001600c553480156200001657600080fd5b506040514690620000279062000197565b604080519182900382208282018252601383527f497873204c697175696469747920546f6b656e000000000000000000000000006020938401528151808301835260018152603160f81b908401529051620000cb927ffd6c368aaab1cbf2adcf1ae0f1b7ac0e40b8737b2fba2119f49fa1e43b48c755917fc89efdaa54c0f20c7adf612882df0950f5a951637e0307cdcb4c672f298b8bc6918691309101620001aa565b60408051601f19818403018152919052805160209091012060035550600580546001600160a01b0319163317905562000221565b6200010a8162000205565b82525050565b6200010a8162000212565b60006200012a60528362000200565b7f454950373132446f6d61696e28737472696e67206e616d652c737472696e672081527f76657273696f6e2c75696e7432353620636861696e49642c6164647265737320602082015271766572696679696e67436f6e74726163742960701b604082015260520192915050565b6000620001a4826200011b565b92915050565b60a08101620001ba828862000110565b620001c9602083018762000110565b620001d8604083018662000110565b620001e7606083018562000110565b620001f66080830184620000ff565b9695505050505050565b919050565b6000620001a48262000215565b90565b6001600160a01b031690565b614b0780620002316000396000f3fe608060405234801561001057600080fd5b50600436106102265760003560e01c80637464fc3d1161012a578063c8b7eb8b116100bd578063e06a041f1161008c578063eb4be14f11610071578063eb4be14f1461041b578063ffd71b7714610423578063fff6cae91461042b57610226565b8063e06a041f146103f5578063e4bbb5a81461040857610226565b8063c8b7eb8b146103bf578063d21220a7146103c7578063d505accf146103cf578063dd62ed3e146103e257610226565b8063a9059cbb116100f9578063a9059cbb14610389578063ba9a7a561461039c578063bc25cf77146103a4578063c45a0155146103b757610226565b80637464fc3d146103455780637ecebe001461034d57806389afcb441461036057806395d89b411461038157610226565b806330adf81f116101bd5780635909c0d51161018c5780635a3d5493116101715780635a3d5493146103175780636a6278421461031f57806370a082311461033257610226565b80635909c0d5146103075780635a1058381461030f57610226565b806330adf81f146102da578063313ce567146102e25780633644e515146102f75780635125c951146102ff57610226565b806318160ddd116101f957806318160ddd14610295578063185fe19d146102aa57806323b872dd146102bf5780632f3e6657146102d257610226565b806306fdde031461022b5780630902f1ac14610249578063095ea7b3146102605780630dfe168114610280575b600080fd5b610233610433565b60405161024091906147a8565b60405180910390f35b61025161046c565b604051610240939291906148f4565b61027361026e366004613e4f565b6104c1565b6040516102409190614719565b6102886104d8565b604051610240919061460f565b61029d6104f4565b6040516102409190614727565b6102bd6102b8366004613e9d565b6104fa565b005b6102736102cd366004613d70565b610698565b610273610778565b61029d61079b565b6102ea6107bf565b6040516102409190614945565b61029d6107c4565b6102736107ca565b61029d6107eb565b6102736107f1565b61029d610816565b61029d61032d366004613ca5565b61081c565b61029d610340366004613ca5565b610bb7565b61029d610bc9565b61029d61035b366004613ca5565b610bcf565b61037361036e366004613ca5565b610be1565b60405161024092919061491c565b610233611048565b610273610397366004613e4f565b611081565b61029d61108e565b6102bd6103b2366004613ca5565b611094565b610288611223565b61027361123f565b610288611263565b6102bd6103dd366004613db3565b61127f565b61029d6103f0366004613ce9565b611474565b6102bd610403366004613f94565b611491565b6102bd610416366004613d23565b61198b565b610273611e2b565b610273611e4d565b6102bd611f8b565b6040518060400160405280601381526020017f497873204c697175696469747920546f6b656e0000000000000000000000000081525081565b6008546dffffffffffffffffffffffffffff808216926e0100000000000000000000000000008304909116917c0100000000000000000000000000000000000000000000000000000000900463ffffffff1690565b60006104ce33848461214f565b5060015b92915050565b60065473ffffffffffffffffffffffffffffffffffffffff1681565b60005481565b600560009054906101000a900473ffffffffffffffffffffffffffffffffffffffff1673ffffffffffffffffffffffffffffffffffffffff1663094b74156040518163ffffffff1660e01b815260040160206040518083038186803b15801561056257600080fd5b505afa158015610576573d6000803e3d6000fd5b505050506040513d601f19601f8201168201806040525061059a9190810190613ccb565b73ffffffffffffffffffffffffffffffffffffffff163373ffffffffffffffffffffffffffffffffffffffff1614610607576040517f08c379a00000000000000000000000000000000000000000000000000000000081526004016105fe906148a9565b60405180910390fd5b600780549115157801000000000000000000000000000000000000000000000000027fffffffffffffff00ffffffffffffffffffffffffffffffffffffffffffffffff93151577010000000000000000000000000000000000000000000000027fffffffffffffffff00ffffffffffffffffffffffffffffffffffffffffffffff9093169290921792909216179055565b73ffffffffffffffffffffffffffffffffffffffff831660009081526002602090815260408083203384529091528120547fffffffffffffffffffffffffffffffffffffffffffffffffffffffffffffffff146107625773ffffffffffffffffffffffffffffffffffffffff84166000908152600260209081526040808320338452909152902054610730908363ffffffff6121c416565b73ffffffffffffffffffffffffffffffffffffffff851660009081526002602090815260408083203384529091529020555b61076d848484612201565b5060015b9392505050565b600754760100000000000000000000000000000000000000000000900460ff1681565b7f6e71edae12b1b97f4d1f60370fef10105fa2faae0126114a169c64845d6126c981565b601281565b60035481565b60075474010000000000000000000000000000000000000000900460ff1681565b60095481565b6007547801000000000000000000000000000000000000000000000000900460ff1681565b600a5481565b6000600c5460011461085a576040517f08c379a00000000000000000000000000000000000000000000000000000000081526004016105fe90614899565b6000600c8190558061086a61046c565b506006546040517f70a0823100000000000000000000000000000000000000000000000000000000815292945090925060009173ffffffffffffffffffffffffffffffffffffffff909116906370a08231906108ca90309060040161460f565b60206040518083038186803b1580156108e257600080fd5b505afa1580156108f6573d6000803e3d6000fd5b505050506040513d601f19601f8201168201806040525061091a9190810190613f76565b6007546040517f70a0823100000000000000000000000000000000000000000000000000000000815291925060009173ffffffffffffffffffffffffffffffffffffffff909116906370a082319061097690309060040161460f565b60206040518083038186803b15801561098e57600080fd5b505afa1580156109a2573d6000803e3d6000fd5b505050506040513d601f19601f820116820180604052506109c69190810190613f76565b905060006109ea836dffffffffffffffffffffffffffff871663ffffffff6121c416565b90506000610a0e836dffffffffffffffffffffffffffff871663ffffffff6121c416565b90506000610a1c87876122d8565b60005490915080610a6557610a516103e8610a45610a40878763ffffffff61249e16565b6124ef565b9063ffffffff6121c416565b9850610a6060006103e8612541565b610ac2565b610abf6dffffffffffffffffffffffffffff8916610a89868463ffffffff61249e16565b81610a9057fe5b046dffffffffffffffffffffffffffff8916610ab2868563ffffffff61249e16565b81610ab957fe5b046125f4565b98505b60008911610afc576040517f08c379a00000000000000000000000000000000000000000000000000000000081526004016105fe90614889565b610b068a8a612541565b610b1286868a8a61260a565b8115610b5457600854610b50906dffffffffffffffffffffffffffff808216916e01000000000000000000000000000090041663ffffffff61249e16565b600b555b3373ffffffffffffffffffffffffffffffffffffffff167f4c209b5fc8ad50758f13e2e1088ba56a560dff690a1c6fef26394f4c03821c4f8585604051610b9c92919061491c565b60405180910390a250506001600c5550949695505050505050565b60016020526000908152604090205481565b600b5481565b60046020526000908152604090205481565b600080600c54600114610c20576040517f08c379a00000000000000000000000000000000000000000000000000000000081526004016105fe90614899565b6000600c81905580610c3061046c565b506006546007546040517f70a0823100000000000000000000000000000000000000000000000000000000815293955091935073ffffffffffffffffffffffffffffffffffffffff9081169291169060009083906370a0823190610c9890309060040161460f565b60206040518083038186803b158015610cb057600080fd5b505afa158015610cc4573d6000803e3d6000fd5b505050506040513d601f19601f82011682018060405250610ce89190810190613f76565b905060008273ffffffffffffffffffffffffffffffffffffffff166370a08231306040518263ffffffff1660e01b8152600401610d25919061460f565b60206040518083038186803b158015610d3d57600080fd5b505afa158015610d51573d6000803e3d6000fd5b505050506040513d601f19601f82011682018060405250610d759190810190613f76565b30600090815260016020526040812054919250610d9288886122d8565b60005490915080610da9848763ffffffff61249e16565b81610db057fe5b049a5080610dc4848663ffffffff61249e16565b81610dcb57fe5b04995060008b118015610dde575060008a115b610e14576040517f08c379a00000000000000000000000000000000000000000000000000000000081526004016105fe90614849565b610e1e308461288e565b610e29878d8d61294b565b610e34868d8c61294b565b6040517f70a0823100000000000000000000000000000000000000000000000000000000815273ffffffffffffffffffffffffffffffffffffffff8816906370a0823190610e8690309060040161460f565b60206040518083038186803b158015610e9e57600080fd5b505afa158015610eb2573d6000803e3d6000fd5b505050506040513d601f19601f82011682018060405250610ed69190810190613f76565b6040517f70a0823100000000000000000000000000000000000000000000000000000000815290955073ffffffffffffffffffffffffffffffffffffffff8716906370a0823190610f2b90309060040161460f565b60206040518083038186803b158015610f4357600080fd5b505afa158015610f57573d6000803e3d6000fd5b505050506040513d601f19601f82011682018060405250610f7b9190810190613f76565b9350610f8985858b8b61260a565b8115610fcb57600854610fc7906dffffffffffffffffffffffffffff808216916e01000000000000000000000000000090041663ffffffff61249e16565b600b555b8b73ffffffffffffffffffffffffffffffffffffffff163373ffffffffffffffffffffffffffffffffffffffff167fdccd412f0b1252819cb1fd330b93224ca42612892bb3f4f789976e6d819364968d8d60405161102a92919061491c565b60405180910390a35050505050505050506001600c81905550915091565b6040518060400160405280600681526020017f4958532d4c54000000000000000000000000000000000000000000000000000081525081565b60006104ce338484612201565b6103e881565b600c546001146110d0576040517f08c379a00000000000000000000000000000000000000000000000000000000081526004016105fe90614899565b6000600c556006546007546008546040517f70a0823100000000000000000000000000000000000000000000000000000000815273ffffffffffffffffffffffffffffffffffffffff93841693909216916111ab91849186916111a6916dffffffffffffffffffffffffffff9091169084906370a082319061115690309060040161460f565b60206040518083038186803b15801561116e57600080fd5b505afa158015611182573d6000803e3d6000fd5b505050506040513d601f19601f82011682018060405250610a459190810190613f76565b61294b565b61121981846111a66008600e9054906101000a90046dffffffffffffffffffffffffffff166dffffffffffffffffffffffffffff168573ffffffffffffffffffffffffffffffffffffffff166370a08231306040518263ffffffff1660e01b8152600401611156919061460f565b50506001600c5550565b60055473ffffffffffffffffffffffffffffffffffffffff1681565b60075477010000000000000000000000000000000000000000000000900460ff1681565b60075473ffffffffffffffffffffffffffffffffffffffff1681565b428410156112b9576040517f08c379a00000000000000000000000000000000000000000000000000000000081526004016105fe90614859565b60035473ffffffffffffffffffffffffffffffffffffffff881660009081526004602090815260408083208054600181019091559051929392611327927f6e71edae12b1b97f4d1f60370fef10105fa2faae0126114a169c64845d6126c9928d928d928d92918d9101614735565b6040516020818303038152906040528051906020012060405160200161134e9291906145de565b60405160208183030381529060405280519060200120905060006001828686866040516000815260200160405260405161138b949392919061476a565b6020604051602081039080840390855afa1580156113ad573d6000803e3d6000fd5b50506040517fffffffffffffffffffffffffffffffffffffffffffffffffffffffffffffffe0015191505073ffffffffffffffffffffffffffffffffffffffff81161580159061142857508873ffffffffffffffffffffffffffffffffffffffff168173ffffffffffffffffffffffffffffffffffffffff16145b61145e576040517f08c379a00000000000000000000000000000000000000000000000000000000081526004016105fe90614839565b61146989898961214f565b505050505050505050565b600260209081526000928352604080842090915290825290205481565b848282808060200260200160405190810160405280939291908181526020016000905b828210156114e0576114d160a08302860136819003810190613f15565b815260200190600101906114b4565b50506005546040517fe5e31b1300000000000000000000000000000000000000000000000000000000815273ffffffffffffffffffffffffffffffffffffffff909116935063e5e31b13925061153b9150859060040161460f565b60206040518083038186803b15801561155357600080fd5b505afa158015611567573d6000803e3d6000fd5b505050506040513d601f19601f8201168201806040525061158b9190810190613e7f565b1561162057600c546001146115cc576040517f08c379a00000000000000000000000000000000000000000000000000000000081526004016105fe90614899565b6000600c8190555061161689898989898080601f016020809104026020016040519081016040528093929190818152602001838380828437600092019190915250612b0292505050565b6001600c55611469565b611628613ab2565b8160008151811061163557fe5b60200260200101519050611647613ab2565b8260018151811061165457fe5b60200260200101519050600760149054906101000a900460ff16156117a15760065482516020840151604080860151606087810151608089015193517f11985411000000000000000000000000000000000000000000000000000000008152600097929673ffffffffffffffffffffffffffffffffffffffff909316956311985411956116eb958e9492939092919060040161467c565b600060405180830381600087803b15801561170557600080fd5b505af1158015611719573d6000803e3d6000fd5b505050506040513d6000823e601f3d9081017fffffffffffffffffffffffffffffffffffffffffffffffffffffffffffffffe016820160405261175f9190810190613ecd565b9150915081819061179d576040517f08c379a00000000000000000000000000000000000000000000000000000000081526004016105fe91906147a8565b5050505b6007547501000000000000000000000000000000000000000000900460ff16156118f35760075481516020830151604080850151606086810151608088015193517f11985411000000000000000000000000000000000000000000000000000000008152600097929673ffffffffffffffffffffffffffffffffffffffff9093169563119854119561183d958e9492939092919060040161467c565b600060405180830381600087803b15801561185757600080fd5b505af115801561186b573d6000803e3d6000fd5b505050506040513d6000823e601f3d9081017fffffffffffffffffffffffffffffffffffffffffffffffffffffffffffffffe01682016040526118b19190810190613ecd565b915091508181906118ef576040517f08c379a00000000000000000000000000000000000000000000000000000000081526004016105fe91906147a8565b5050505b600c5460011461192f576040517f08c379a00000000000000000000000000000000000000000000000000000000081526004016105fe90614899565b6000600c819055506119798b8b8b8b8b8080601f016020809104026020016040519081016040528093929190818152602001838380828437600092019190915250612b0292505050565b50506001600c55505050505050505050565b60055473ffffffffffffffffffffffffffffffffffffffff1633146119dc576040517f08c379a00000000000000000000000000000000000000000000000000000000081526004016105fe906148a9565b600554604080517f2584bc4f000000000000000000000000000000000000000000000000000000008152905160009273ffffffffffffffffffffffffffffffffffffffff1691632584bc4f916004808301926020929190829003018186803b158015611a4757600080fd5b505afa158015611a5b573d6000803e3d6000fd5b505050506040513d601f19601f82011682018060405250611a7f9190810190613ccb565b6006805473ffffffffffffffffffffffffffffffffffffffff8088167fffffffffffffffffffffffff000000000000000000000000000000000000000092831617909255600780548784169216919091179055909150811615801590611b8257506040517fda7536db00000000000000000000000000000000000000000000000000000000815273ffffffffffffffffffffffffffffffffffffffff82169063da7536db90611b3290879060040161460f565b60206040518083038186803b158015611b4a57600080fd5b505afa158015611b5e573d6000803e3d6000fd5b505050506040513d601f19601f82011682018060405250611b829190810190613e7f565b6007805491151574010000000000000000000000000000000000000000027fffffffffffffffffffffff00ffffffffffffffffffffffffffffffffffffffff90921691909117905573ffffffffffffffffffffffffffffffffffffffff811615801590611c8c57506040517fda7536db00000000000000000000000000000000000000000000000000000000815273ffffffffffffffffffffffffffffffffffffffff82169063da7536db90611c3c90869060040161460f565b60206040518083038186803b158015611c5457600080fd5b505afa158015611c68573d6000803e3d6000fd5b505050506040513d601f19601f82011682018060405250611c8c9190810190613e7f565b600780549115157501000000000000000000000000000000000000000000027fffffffffffffffffffff00ffffffffffffffffffffffffffffffffffffffffff909216919091179081905574010000000000000000000000000000000000000000900460ff1680611d1857506007547501000000000000000000000000000000000000000000900460ff165b600780547fffffffffffffffffff00ffffffffffffffffffffffffffffffffffffffffffff167601000000000000000000000000000000000000000000009215158302177fffffffffffffffff00ffffffffffffffffffffffffffffffffffffffffffffff167701000000000000000000000000000000000000000000000085151502179081905560ff919004161580611def575060075474010000000000000000000000000000000000000000810460ff9081161515750100000000000000000000000000000000000000000090920416151514155b611e25576040517f08c379a00000000000000000000000000000000000000000000000000000000081526004016105fe90614879565b50505050565b6007547501000000000000000000000000000000000000000000900460ff1681565b600754600090760100000000000000000000000000000000000000000000900460ff1680611e98575060075477010000000000000000000000000000000000000000000000900460ff165b8015611ec357506007547801000000000000000000000000000000000000000000000000900460ff16155b8015611f865750600554604080517f7dc0d1d0000000000000000000000000000000000000000000000000000000008152905160009273ffffffffffffffffffffffffffffffffffffffff1691637dc0d1d0916004808301926020929190829003018186803b158015611f3557600080fd5b505afa158015611f49573d6000803e3d6000fd5b505050506040513d601f19601f82011682018060405250611f6d9190810190613ccb565b73ffffffffffffffffffffffffffffffffffffffff1614155b905090565b600c54600114611fc7576040517f08c379a00000000000000000000000000000000000000000000000000000000081526004016105fe90614899565b6000600c556006546040517f70a082310000000000000000000000000000000000000000000000000000000081526121489173ffffffffffffffffffffffffffffffffffffffff16906370a082319061202490309060040161460f565b60206040518083038186803b15801561203c57600080fd5b505afa158015612050573d6000803e3d6000fd5b505050506040513d601f19601f820116820180604052506120749190810190613f76565b6007546040517f70a0823100000000000000000000000000000000000000000000000000000000815273ffffffffffffffffffffffffffffffffffffffff909116906370a08231906120ca90309060040161460f565b60206040518083038186803b1580156120e257600080fd5b505afa1580156120f6573d6000803e3d6000fd5b505050506040513d601f19601f8201168201806040525061211a9190810190613f76565b6008546dffffffffffffffffffffffffffff808216916e01000000000000000000000000000090041661260a565b6001600c55565b73ffffffffffffffffffffffffffffffffffffffff80841660008181526002602090815260408083209487168084529490915290819020849055517f8c5be1e5ebec7d5bd14f71427d1e84f3dd0314c0f7b2291e5b200ac8c7c3b925906121b7908590614727565b60405180910390a3505050565b808203828111156104d2576040517f08c379a00000000000000000000000000000000000000000000000000000000081526004016105fe906147b9565b73ffffffffffffffffffffffffffffffffffffffff8316600090815260016020526040902054612237908263ffffffff6121c416565b73ffffffffffffffffffffffffffffffffffffffff8085166000908152600160205260408082209390935590841681522054612279908263ffffffff61352d16565b73ffffffffffffffffffffffffffffffffffffffff80841660008181526001602052604090819020939093559151908516907fddf252ad1be2c89b69c2b068fc378daa952ba7f163c4a11628f55a4df523b3ef906121b7908590614727565b6007546000908190760100000000000000000000000000000000000000000000900460ff166123a657600560009054906101000a900473ffffffffffffffffffffffffffffffffffffffff1673ffffffffffffffffffffffffffffffffffffffff1663017e7e586040518163ffffffff1660e01b815260040160206040518083038186803b15801561236957600080fd5b505afa15801561237d573d6000803e3d6000fd5b505050506040513d601f19601f820116820180604052506123a19190810190613ccb565b6123a9565b60005b600b5473ffffffffffffffffffffffffffffffffffffffff821615801594509192509061248a5780156124855760006123fe610a406dffffffffffffffffffffffffffff88811690881663ffffffff61249e16565b9050600061240b836124ef565b90508082111561248257600061243961242a848463ffffffff6121c416565b6000549063ffffffff61249e16565b9050600061245e8361245286600563ffffffff61249e16565b9063ffffffff61352d16565b9050600081838161246b57fe5b049050801561247e5761247e8782612541565b5050505b50505b612496565b8015612496576000600b555b505092915050565b60008115806124b9575050808202828282816124b657fe5b04145b6104d2576040517f08c379a00000000000000000000000000000000000000000000000000000000081526004016105fe906147e9565b60006003821115612532575080600160028204015b8181101561252c5780915060028182858161251b57fe5b04018161252457fe5b049050612504565b5061253c565b811561253c575060015b919050565b600054612554908263ffffffff61352d16565b600090815573ffffffffffffffffffffffffffffffffffffffff831681526001602052604090205461258c908263ffffffff61352d16565b73ffffffffffffffffffffffffffffffffffffffff83166000818152600160205260408082209390935591519091907fddf252ad1be2c89b69c2b068fc378daa952ba7f163c4a11628f55a4df523b3ef906125e8908590614727565b60405180910390a35050565b60008183106126035781610771565b5090919050565b6dffffffffffffffffffffffffffff841180159061263657506dffffffffffffffffffffffffffff8311155b61266c576040517f08c379a00000000000000000000000000000000000000000000000000000000081526004016105fe90614869565b60085463ffffffff428116917c0100000000000000000000000000000000000000000000000000000000900481168203908116158015906126bc57506dffffffffffffffffffffffffffff841615155b80156126d757506dffffffffffffffffffffffffffff831615155b15612787578063ffffffff1661271a856126f08661356a565b7bffffffffffffffffffffffffffffffffffffffffffffffffffffffff169063ffffffff61358e16565b600980547bffffffffffffffffffffffffffffffffffffffffffffffffffffffff929092169290920201905563ffffffff811661275a846126f08761356a565b600a80547bffffffffffffffffffffffffffffffffffffffffffffffffffffffff92909216929092020190555b600880547fffffffffffffffffffffffffffffffffffff0000000000000000000000000000166dffffffffffffffffffffffffffff888116919091177fffffffff0000000000000000000000000000ffffffffffffffffffffffffffff166e0100000000000000000000000000008883168102919091177bffffffffffffffffffffffffffffffffffffffffffffffffffffffff167c010000000000000000000000000000000000000000000000000000000063ffffffff87160217928390556040517f1c411e9a96e071241c2f21f7726b17ae89e3cab4c78be50e062b03a9fffbbad19361287e938181169390910416906148d9565b60405180910390a1505050505050565b73ffffffffffffffffffffffffffffffffffffffff82166000908152600160205260409020546128c4908263ffffffff6121c416565b73ffffffffffffffffffffffffffffffffffffffff8316600090815260016020526040812091909155546128fe908263ffffffff6121c416565b600090815560405173ffffffffffffffffffffffffffffffffffffffff8416907fddf252ad1be2c89b69c2b068fc378daa952ba7f163c4a11628f55a4df523b3ef906125e8908590614727565b604080518082018252601981527f7472616e7366657228616464726573732c75696e7432353629000000000000006020909101525160009060609073ffffffffffffffffffffffffffffffffffffffff8616907fa9059cbb2ab09eb219583f4a59a5d0623ade346d962bcd4e46b11da047c9049b906129d090879087906024016146d6565b604080517fffffffffffffffffffffffffffffffffffffffffffffffffffffffffffffffe08184030181529181526020820180517bffffffffffffffffffffffffffffffffffffffffffffffffffffffff167fffffffff00000000000000000000000000000000000000000000000000000000909416939093179092529051612a5991906145d2565b6000604051808303816000865af19150503d8060008114612a96576040519150601f19603f3d011682016040523d82523d6000602084013e612a9b565b606091505b5091509150818015612ac5575080511580612ac5575080806020019051612ac59190810190613e7f565b612afb576040517f08c379a00000000000000000000000000000000000000000000000000000000081526004016105fe906148c9565b5050505050565b6000841180612b115750600083115b612b47576040517f08c379a00000000000000000000000000000000000000000000000000000000081526004016105fe90614809565b600080612b5261046c565b5091509150816dffffffffffffffffffffffffffff1686108015612b855750806dffffffffffffffffffffffffffff1685105b612bbb576040517f08c379a00000000000000000000000000000000000000000000000000000000081526004016105fe906148b9565b600654600754600091829173ffffffffffffffffffffffffffffffffffffffff918216919081169088168214801590612c2057508073ffffffffffffffffffffffffffffffffffffffff168873ffffffffffffffffffffffffffffffffffffffff1614155b612c56576040517f08c379a00000000000000000000000000000000000000000000000000000000081526004016105fe90614819565b8915612c6757612c6782898c61294b565b8815612c7857612c7881898b61294b565b865115612d0a576040517fa9901e6700000000000000000000000000000000000000000000000000000000815273ffffffffffffffffffffffffffffffffffffffff89169063a9901e6790612cd79033908e908e908d9060040161461d565b600060405180830381600087803b158015612cf157600080fd5b505af1158015612d05573d6000803e3d6000fd5b505050505b6040517f70a0823100000000000000000000000000000000000000000000000000000000815273ffffffffffffffffffffffffffffffffffffffff8316906370a0823190612d5c90309060040161460f565b60206040518083038186803b158015612d7457600080fd5b505afa158015612d88573d6000803e3d6000fd5b505050506040513d601f19601f82011682018060405250612dac9190810190613f76565b6040517f70a0823100000000000000000000000000000000000000000000000000000000815290945073ffffffffffffffffffffffffffffffffffffffff8216906370a0823190612e0190309060040161460f565b60206040518083038186803b158015612e1957600080fd5b505afa158015612e2d573d6000803e3d6000fd5b505050506040513d601f19601f82011682018060405250612e519190810190613f76565b92505050600088856dffffffffffffffffffffffffffff16038311612e77576000612e8d565b88856dffffffffffffffffffffffffffff160383035b9050600088856dffffffffffffffffffffffffffff16038311612eb1576000612ec7565b88856dffffffffffffffffffffffffffff160383035b90506000821180612ed85750600081115b612f0e576040517f08c379a00000000000000000000000000000000000000000000000000000000081526004016105fe90614829565b6000612f56612f44600760169054906101000a900460ff16612f31576003612f34565b600a5b859060ff1663ffffffff61249e16565b610a45876103e863ffffffff61249e16565b90506000612f7b612f44600760169054906101000a900460ff16612f31576003612f34565b9050612fb3620f4240612fa76dffffffffffffffffffffffffffff8b8116908b1663ffffffff61249e16565b9063ffffffff61249e16565b612fc3838363ffffffff61249e16565b1015612ffb576040517f08c379a00000000000000000000000000000000000000000000000000000000081526004016105fe906147c9565b5050600554604080517fcd6c7305000000000000000000000000000000000000000000000000000000008152905160009273ffffffffffffffffffffffffffffffffffffffff169163cd6c7305916004808301926020929190829003018186803b15801561306857600080fd5b505afa15801561307c573d6000803e3d6000fd5b505050506040513d601f19601f820116820180604052506130a09190810190613ccb565b600754909150760100000000000000000000000000000000000000000000900460ff1680156130e4575073ffffffffffffffffffffffffffffffffffffffff811615155b156133fb5782156131d25760065460075473ffffffffffffffffffffffffffffffffffffffff918216918116908c90869074010000000000000000000000000000000000000000900460ff16156131a357600061271061314b84602863ffffffff61249e16565b8161315257fe5b0490506103e881018911613192576040517f08c379a00000000000000000000000000000000000000000000000000000000081526004016105fe906148b9565b61319d84878361294b565b506131c9565b6131c984866127106131bc85602863ffffffff61249e16565b816131c357fe5b0461294b565b505050506132ab565b81156132ab5760065460075473ffffffffffffffffffffffffffffffffffffffff918216918116908d9085907501000000000000000000000000000000000000000000900460ff161561328d57600061271061323584602863ffffffff61249e16565b8161323c57fe5b0490506103e881018a1161327c576040517f08c379a00000000000000000000000000000000000000000000000000000000081526004016105fe906148b9565b61328785878361294b565b506132a6565b6132a683866127106131bc85602863ffffffff61249e16565b505050505b6006546040517f70a0823100000000000000000000000000000000000000000000000000000000815273ffffffffffffffffffffffffffffffffffffffff909116906370a082319061330190309060040161460f565b60206040518083038186803b15801561331957600080fd5b505afa15801561332d573d6000803e3d6000fd5b505050506040513d601f19601f820116820180604052506133519190810190613f76565b6007546040517f70a0823100000000000000000000000000000000000000000000000000000000815291965073ffffffffffffffffffffffffffffffffffffffff16906370a08231906133a890309060040161460f565b60206040518083038186803b1580156133c057600080fd5b505afa1580156133d4573d6000803e3d6000fd5b505050506040513d601f19601f820116820180604052506133f89190810190613f76565b93505b506134088484888861260a565b613410611e4d565b156134b6576134223083838d8d6135cf565b6005546006546007546040517f59df970600000000000000000000000000000000000000000000000000000000815273ffffffffffffffffffffffffffffffffffffffff938416936359df9706936134839390821692911690600401614661565b600060405180830381600087803b15801561349d57600080fd5b505af11580156134b1573d6000803e3d6000fd5b505050505b8773ffffffffffffffffffffffffffffffffffffffff163373ffffffffffffffffffffffffffffffffffffffff167fd78ad95fa46c994b6551d0da85fc275fe613ce37657fb8d5e3d130840159d82284848e8e604051613519949392919061492a565b60405180910390a350505050505050505050565b808201828110156104d2576040517f08c379a00000000000000000000000000000000000000000000000000000000081526004016105fe906147f9565b6dffffffffffffffffffffffffffff166e0100000000000000000000000000000290565b60006dffffffffffffffffffffffffffff82167bffffffffffffffffffffffffffffffffffffffffffffffffffffffff8416816135c757fe5b049392505050565b60008573ffffffffffffffffffffffffffffffffffffffff1663c45a01556040518163ffffffff1660e01b815260040160206040518083038186803b15801561361757600080fd5b505afa15801561362b573d6000803e3d6000fd5b505050506040513d601f19601f8201168201806040525061364f9190810190613ccb565b905060008673ffffffffffffffffffffffffffffffffffffffff16630dfe16816040518163ffffffff1660e01b815260040160206040518083038186803b15801561369957600080fd5b505afa1580156136ad573d6000803e3d6000fd5b505050506040513d601f19601f820116820180604052506136d19190810190613ccb565b905060008773ffffffffffffffffffffffffffffffffffffffff1663d21220a76040518163ffffffff1660e01b815260040160206040518083038186803b15801561371b57600080fd5b505afa15801561372f573d6000803e3d6000fd5b505050506040513d601f19601f820116820180604052506137539190810190613ccb565b6040517fac033bd900000000000000000000000000000000000000000000000000000000815290915073ffffffffffffffffffffffffffffffffffffffff84169063ac033bd9906137aa9085908590600401614661565b60206040518083038186803b1580156137c257600080fd5b505afa1580156137d6573d6000803e3d6000fd5b505050506040513d601f19601f820116820180604052506137fa9190810190613e7f565b156138c4576000808973ffffffffffffffffffffffffffffffffffffffff16630902f1ac6040518163ffffffff1660e01b815260040160606040518083038186803b15801561384857600080fd5b505afa15801561385c573d6000803e3d6000fd5b505050506040513d601f19601f820116820180604052506138809190810190613f33565b506dffffffffffffffffffffffffffff1691506dffffffffffffffffffffffffffff1691506138b3848a8589858a6138ce565b6138c18389868a868a6138ce565b50505b5050505050505050565b600085116138db57613a9a565b60008383116138eb576064613919565b61391960648404613902858763ffffffff6121c416565b8161390957fe5b606491900463ffffffff6121c416565b90506000808373ffffffffffffffffffffffffffffffffffffffff1663f5c4e1e78a8a8a6040518463ffffffff1660e01b815260040161395b939291906146f1565b60206040518083038186803b15801561397357600080fd5b505afa158015613987573d6000803e3d6000fd5b505050506040513d601f19601f820116820180604052506139ab9190810190613f76565b9050858114156139be5760009150613a16565b60006139ca8288613aa2565b905060006139d883896125f4565b905060026139ec838363ffffffff61352d16565b816139f357fe5b04613a096064612fa7858563ffffffff6121c416565b81613a1057fe5b04935050505b5060008111613a26575050613a9a565b6000613a41613a34846124ef565b849063ffffffff61249e16565b90506062811115613a50575060625b613a6160648263ffffffff6121c416565b821115611469576040517f08c379a00000000000000000000000000000000000000000000000000000000081526004016105fe906147d9565b505050505050565b6000818310156126035781610771565b6040805160a08101825260008082526020820181905291810182905260608101829052608081019190915290565b80356104d281614a80565b80516104d281614a80565b60008083601f840112613b0857600080fd5b50813567ffffffffffffffff811115613b2057600080fd5b6020830191508360a0820283011115613b3857600080fd5b9250929050565b80356104d281614a97565b80516104d281614a97565b80356104d281614aa0565b60008083601f840112613b7257600080fd5b50813567ffffffffffffffff811115613b8a57600080fd5b602083019150836001820283011115613b3857600080fd5b600082601f830112613bb357600080fd5b8151613bc6613bc18261497a565b614953565b91508082526020830160208301858383011115613be257600080fd5b613bed838284614a2c565b50505092915050565b600060a08284031215613c0857600080fd5b613c1260a0614953565b90506000613c208484613ae0565b8252506020613c3184848301613b55565b6020830152506040613c4584828501613c9a565b6040830152506060613c5984828501613b55565b6060830152506080613c6d84828501613b55565b60808301525092915050565b80516104d281614aa9565b80516104d281614aa0565b80516104d281614ab2565b80356104d281614abb565b600060208284031215613cb757600080fd5b6000613cc38484613ae0565b949350505050565b600060208284031215613cdd57600080fd5b6000613cc38484613aeb565b60008060408385031215613cfc57600080fd5b6000613d088585613ae0565b9250506020613d1985828601613ae0565b9150509250929050565b600080600060608486031215613d3857600080fd5b6000613d448686613ae0565b9350506020613d5586828701613ae0565b9250506040613d6686828701613b3f565b9150509250925092565b600080600060608486031215613d8557600080fd5b6000613d918686613ae0565b9350506020613da286828701613ae0565b9250506040613d6686828701613b55565b600080600080600080600060e0888a031215613dce57600080fd5b6000613dda8a8a613ae0565b9750506020613deb8a828b01613ae0565b9650506040613dfc8a828b01613b55565b9550506060613e0d8a828b01613b55565b9450506080613e1e8a828b01613c9a565b93505060a0613e2f8a828b01613b55565b92505060c0613e408a828b01613b55565b91505092959891949750929550565b60008060408385031215613e6257600080fd5b6000613e6e8585613ae0565b9250506020613d1985828601613b55565b600060208284031215613e9157600080fd5b6000613cc38484613b4a565b60008060408385031215613eb057600080fd5b6000613ebc8585613b3f565b9250506020613d1985828601613b3f565b60008060408385031215613ee057600080fd5b6000613eec8585613b4a565b925050602083015167ffffffffffffffff811115613f0957600080fd5b613d1985828601613ba2565b600060a08284031215613f2757600080fd5b6000613cc38484613bf6565b600080600060608486031215613f4857600080fd5b6000613f548686613c79565b9350506020613f6586828701613c79565b9250506040613d6686828701613c8f565b600060208284031215613f8857600080fd5b6000613cc38484613c84565b600080600080600080600060a0888a031215613faf57600080fd5b6000613fbb8a8a613b55565b9750506020613fcc8a828b01613b55565b9650506040613fdd8a828b01613ae0565b955050606088013567ffffffffffffffff811115613ffa57600080fd5b6140068a828b01613b60565b9450945050608088013567ffffffffffffffff81111561402557600080fd5b6140318a828b01613af6565b925092505092959891949750929550565b61404b81614a1b565b82525050565b61404b816149cd565b61404b816149d8565b61404b816149dd565b61404b614078826149dd565b6149dd565b6000614088826149c0565b61409281856149c4565b93506140a2818560208601614a2c565b6140ab81614a58565b9093019392505050565b60006140c0826149c0565b6140ca818561253c565b93506140da818560208601614a2c565b9290920192915050565b60006140f16015836149c4565b7f64732d6d6174682d7375622d756e646572666c6f770000000000000000000000815260200192915050565b600061412a6008836149c4565b7f49787356323a204b000000000000000000000000000000000000000000000000815260200192915050565b60006141636026836149c4565b7f54574150426173656456494d56313a20484947485f564f4c4154494c4954595f81527f494d504143540000000000000000000000000000000000000000000000000000602082015260400192915050565b60006141c26014836149c4565b7f64732d6d6174682d6d756c2d6f766572666c6f77000000000000000000000000815260200192915050565b60006141fb60028361253c565b7f1901000000000000000000000000000000000000000000000000000000000000815260020192915050565b60006142346014836149c4565b7f64732d6d6174682d6164642d6f766572666c6f77000000000000000000000000815260200192915050565b600061426d6021836149c4565b7f49787356323a20494e53554646494349454e545f4f55545055545f414d4f554e81527f5400000000000000000000000000000000000000000000000000000000000000602082015260400192915050565b60006142cc6011836149c4565b7f49787356323a20494e56414c49445f544f000000000000000000000000000000815260200192915050565b60006143056020836149c4565b7f49787356323a20494e53554646494349454e545f494e5055545f414d4f554e54815260200192915050565b600061433e6018836149c4565b7f49787356323a20494e56414c49445f5349474e41545552450000000000000000815260200192915050565b60006143776024836149c4565b7f49787356323a20494e53554646494349454e545f4c49515549444954595f425581527f524e454400000000000000000000000000000000000000000000000000000000602082015260400192915050565b60006143d6600e836149c4565b7f49787356323a2045585049524544000000000000000000000000000000000000815260200192915050565b600061440f600f836149c4565b7f49787356323a204f564552464c4f570000000000000000000000000000000000815260200192915050565b60006144486011836149c4565b7f49787356323a205345435f544f5f534543000000000000000000000000000000815260200192915050565b60006144816024836149c4565b7f49787356323a20494e53554646494349454e545f4c49515549444954595f4d4981527f4e54454400000000000000000000000000000000000000000000000000000000602082015260400192915050565b60006144e0600d836149c4565b7f49787356323a204c4f434b454400000000000000000000000000000000000000815260200192915050565b60006145196010836149c4565b7f49787356323a20464f5242494444454e00000000000000000000000000000000815260200192915050565b6000614552601d836149c4565b7f49787356323a20494e53554646494349454e545f4c4951554944495459000000815260200192915050565b600061458b6016836149c4565b7f49787356323a205452414e534645525f4641494c454400000000000000000000815260200192915050565b61404b816149e0565b61404b81614a0c565b61404b81614a15565b600061077182846140b5565b60006145e9826141ee565b91506145f5828561406c565b602082019150614605828461406c565b5060200192915050565b602081016104d28284614051565b6080810161462b8287614042565b6146386020830186614063565b6146456040830185614063565b8181036060830152614657818461407d565b9695505050505050565b6040810161466f8285614051565b6107716020830184614051565b60c0810161468a8289614051565b6146976020830188614051565b6146a46040830187614063565b6146b160608301866145c9565b6146be6080830185614063565b6146cb60a0830184614063565b979650505050505050565b604081016146e48285614051565b6107716020830184614063565b606081016146ff8286614051565b61470c6020830185614063565b613cc36040830184614051565b602081016104d2828461405a565b602081016104d28284614063565b60c081016147438289614063565b6147506020830188614051565b61475d6040830187614051565b6146b16060830186614063565b608081016147788287614063565b61478560208301866145c9565b6147926040830185614063565b61479f6060830184614063565b95945050505050565b60208082528101610771818461407d565b602080825281016104d2816140e4565b602080825281016104d28161411d565b602080825281016104d281614156565b602080825281016104d2816141b5565b602080825281016104d281614227565b602080825281016104d281614260565b602080825281016104d2816142bf565b602080825281016104d2816142f8565b602080825281016104d281614331565b602080825281016104d28161436a565b602080825281016104d2816143c9565b602080825281016104d281614402565b602080825281016104d28161443b565b602080825281016104d281614474565b602080825281016104d2816144d3565b602080825281016104d28161450c565b602080825281016104d281614545565b602080825281016104d28161457e565b604081016148e782856145b7565b61077160208301846145b7565b6060810161490282866145b7565b61490f60208301856145b7565b613cc360408301846145c0565b604081016146e48285614063565b608081016149388287614063565b6147856020830186614063565b602081016104d282846145c9565b60405181810167ffffffffffffffff8111828210171561497257600080fd5b604052919050565b600067ffffffffffffffff82111561499157600080fd5b506020601f919091017fffffffffffffffffffffffffffffffffffffffffffffffffffffffffffffffe0160190565b5190565b90815260200190565b60006104d2826149f3565b151590565b90565b6dffffffffffffffffffffffffffff1690565b73ffffffffffffffffffffffffffffffffffffffff1690565b63ffffffff1690565b60ff1690565b60006104d28260006104d2826149cd565b60005b83811015614a47578181015183820152602001614a2f565b83811115611e255750506000910152565b601f017fffffffffffffffffffffffffffffffffffffffffffffffffffffffffffffffe01690565b614a89816149cd565b8114614a9457600080fd5b50565b614a89816149d8565b614a89816149dd565b614a89816149e0565b614a8981614a0c565b614a8981614a1556fea365627a7a72315820efa1615a8c940df42bad346131c9534b593ee5a335ee35e6414cfd82660e636f6c6578706572696d656e74616cf564736f6c63430005100040",
      "opcodes": "PUSH1 0x80 PUSH1 0x40 MSTORE PUSH1 0x1 PUSH1 0xC SSTORE CALLVALUE DUP1 ISZERO PUSH3 0x16 JUMPI PUSH1 0x0 DUP1 REVERT JUMPDEST POP PUSH1 0x40 MLOAD CHAINID SWAP1 PUSH3 0x27 SWAP1 PUSH3 0x197 JUMP JUMPDEST PUSH1 0x40 DUP1 MLOAD SWAP2 DUP3 SWAP1 SUB DUP3 KECCAK256 DUP3 DUP3 ADD DUP3 MSTORE PUSH1 0x13 DUP4 MSTORE PUSH32 0x497873204C697175696469747920546F6B656E00000000000000000000000000 PUSH1 0x20 SWAP4 DUP5 ADD MSTORE DUP2 MLOAD DUP1 DUP4 ADD DUP4 MSTORE PUSH1 0x1 DUP2 MSTORE PUSH1 0x31 PUSH1 0xF8 SHL SWAP1 DUP5 ADD MSTORE SWAP1 MLOAD PUSH3 0xCB SWAP3 PUSH32 0xFD6C368AAAB1CBF2ADCF1AE0F1B7AC0E40B8737B2FBA2119F49FA1E43B48C755 SWAP2 PUSH32 0xC89EFDAA54C0F20C7ADF612882DF0950F5A951637E0307CDCB4C672F298B8BC6 SWAP2 DUP7 SWAP2 ADDRESS SWAP2 ADD PUSH3 0x1AA JUMP JUMPDEST PUSH1 0x40 DUP1 MLOAD PUSH1 0x1F NOT DUP2 DUP5 SUB ADD DUP2 MSTORE SWAP2 SWAP1 MSTORE DUP1 MLOAD PUSH1 0x20 SWAP1 SWAP2 ADD KECCAK256 PUSH1 0x3 SSTORE POP PUSH1 0x5 DUP1 SLOAD PUSH1 0x1 PUSH1 0x1 PUSH1 0xA0 SHL SUB NOT AND CALLER OR SWAP1 SSTORE PUSH3 0x221 JUMP JUMPDEST PUSH3 0x10A DUP2 PUSH3 0x205 JUMP JUMPDEST DUP3 MSTORE POP POP JUMP JUMPDEST PUSH3 0x10A DUP2 PUSH3 0x212 JUMP JUMPDEST PUSH1 0x0 PUSH3 0x12A PUSH1 0x52 DUP4 PUSH3 0x200 JUMP JUMPDEST PUSH32 0x454950373132446F6D61696E28737472696E67206E616D652C737472696E6720 DUP2 MSTORE PUSH32 0x76657273696F6E2C75696E7432353620636861696E49642C6164647265737320 PUSH1 0x20 DUP3 ADD MSTORE PUSH18 0x766572696679696E67436F6E747261637429 PUSH1 0x70 SHL PUSH1 0x40 DUP3 ADD MSTORE PUSH1 0x52 ADD SWAP3 SWAP2 POP POP JUMP JUMPDEST PUSH1 0x0 PUSH3 0x1A4 DUP3 PUSH3 0x11B JUMP JUMPDEST SWAP3 SWAP2 POP POP JUMP JUMPDEST PUSH1 0xA0 DUP2 ADD PUSH3 0x1BA DUP3 DUP9 PUSH3 0x110 JUMP JUMPDEST PUSH3 0x1C9 PUSH1 0x20 DUP4 ADD DUP8 PUSH3 0x110 JUMP JUMPDEST PUSH3 0x1D8 PUSH1 0x40 DUP4 ADD DUP7 PUSH3 0x110 JUMP JUMPDEST PUSH3 0x1E7 PUSH1 0x60 DUP4 ADD DUP6 PUSH3 0x110 JUMP JUMPDEST PUSH3 0x1F6 PUSH1 0x80 DUP4 ADD DUP5 PUSH3 0xFF JUMP JUMPDEST SWAP7 SWAP6 POP POP POP POP POP POP JUMP JUMPDEST SWAP2 SWAP1 POP JUMP JUMPDEST PUSH1 0x0 PUSH3 0x1A4 DUP3 PUSH3 0x215 JUMP JUMPDEST SWAP1 JUMP JUMPDEST PUSH1 0x1 PUSH1 0x1 PUSH1 0xA0 SHL SUB AND SWAP1 JUMP JUMPDEST PUSH2 0x4B07 DUP1 PUSH3 0x231 PUSH1 0x0 CODECOPY PUSH1 0x0 RETURN INVALID PUSH1 0x80 PUSH1 0x40 MSTORE CALLVALUE DUP1 ISZERO PUSH2 0x10 JUMPI PUSH1 0x0 DUP1 REVERT JUMPDEST POP PUSH1 0x4 CALLDATASIZE LT PUSH2 0x226 JUMPI PUSH1 0x0 CALLDATALOAD PUSH1 0xE0 SHR DUP1 PUSH4 0x7464FC3D GT PUSH2 0x12A JUMPI DUP1 PUSH4 0xC8B7EB8B GT PUSH2 0xBD JUMPI DUP1 PUSH4 0xE06A041F GT PUSH2 0x8C JUMPI DUP1 PUSH4 0xEB4BE14F GT PUSH2 0x71 JUMPI DUP1 PUSH4 0xEB4BE14F EQ PUSH2 0x41B JUMPI DUP1 PUSH4 0xFFD71B77 EQ PUSH2 0x423 JUMPI DUP1 PUSH4 0xFFF6CAE9 EQ PUSH2 0x42B JUMPI PUSH2 0x226 JUMP JUMPDEST DUP1 PUSH4 0xE06A041F EQ PUSH2 0x3F5 JUMPI DUP1 PUSH4 0xE4BBB5A8 EQ PUSH2 0x408 JUMPI PUSH2 0x226 JUMP JUMPDEST DUP1 PUSH4 0xC8B7EB8B EQ PUSH2 0x3BF JUMPI DUP1 PUSH4 0xD21220A7 EQ PUSH2 0x3C7 JUMPI DUP1 PUSH4 0xD505ACCF EQ PUSH2 0x3CF JUMPI DUP1 PUSH4 0xDD62ED3E EQ PUSH2 0x3E2 JUMPI PUSH2 0x226 JUMP JUMPDEST DUP1 PUSH4 0xA9059CBB GT PUSH2 0xF9 JUMPI DUP1 PUSH4 0xA9059CBB EQ PUSH2 0x389 JUMPI DUP1 PUSH4 0xBA9A7A56 EQ PUSH2 0x39C JUMPI DUP1 PUSH4 0xBC25CF77 EQ PUSH2 0x3A4 JUMPI DUP1 PUSH4 0xC45A0155 EQ PUSH2 0x3B7 JUMPI PUSH2 0x226 JUMP JUMPDEST DUP1 PUSH4 0x7464FC3D EQ PUSH2 0x345 JUMPI DUP1 PUSH4 0x7ECEBE00 EQ PUSH2 0x34D JUMPI DUP1 PUSH4 0x89AFCB44 EQ PUSH2 0x360 JUMPI DUP1 PUSH4 0x95D89B41 EQ PUSH2 0x381 JUMPI PUSH2 0x226 JUMP JUMPDEST DUP1 PUSH4 0x30ADF81F GT PUSH2 0x1BD JUMPI DUP1 PUSH4 0x5909C0D5 GT PUSH2 0x18C JUMPI DUP1 PUSH4 0x5A3D5493 GT PUSH2 0x171 JUMPI DUP1 PUSH4 0x5A3D5493 EQ PUSH2 0x317 JUMPI DUP1 PUSH4 0x6A627842 EQ PUSH2 0x31F JUMPI DUP1 PUSH4 0x70A08231 EQ PUSH2 0x332 JUMPI PUSH2 0x226 JUMP JUMPDEST DUP1 PUSH4 0x5909C0D5 EQ PUSH2 0x307 JUMPI DUP1 PUSH4 0x5A105838 EQ PUSH2 0x30F JUMPI PUSH2 0x226 JUMP JUMPDEST DUP1 PUSH4 0x30ADF81F EQ PUSH2 0x2DA JUMPI DUP1 PUSH4 0x313CE567 EQ PUSH2 0x2E2 JUMPI DUP1 PUSH4 0x3644E515 EQ PUSH2 0x2F7 JUMPI DUP1 PUSH4 0x5125C951 EQ PUSH2 0x2FF JUMPI PUSH2 0x226 JUMP JUMPDEST DUP1 PUSH4 0x18160DDD GT PUSH2 0x1F9 JUMPI DUP1 PUSH4 0x18160DDD EQ PUSH2 0x295 JUMPI DUP1 PUSH4 0x185FE19D EQ PUSH2 0x2AA JUMPI DUP1 PUSH4 0x23B872DD EQ PUSH2 0x2BF JUMPI DUP1 PUSH4 0x2F3E6657 EQ PUSH2 0x2D2 JUMPI PUSH2 0x226 JUMP JUMPDEST DUP1 PUSH4 0x6FDDE03 EQ PUSH2 0x22B JUMPI DUP1 PUSH4 0x902F1AC EQ PUSH2 0x249 JUMPI DUP1 PUSH4 0x95EA7B3 EQ PUSH2 0x260 JUMPI DUP1 PUSH4 0xDFE1681 EQ PUSH2 0x280 JUMPI JUMPDEST PUSH1 0x0 DUP1 REVERT JUMPDEST PUSH2 0x233 PUSH2 0x433 JUMP JUMPDEST PUSH1 0x40 MLOAD PUSH2 0x240 SWAP2 SWAP1 PUSH2 0x47A8 JUMP JUMPDEST PUSH1 0x40 MLOAD DUP1 SWAP2 SUB SWAP1 RETURN JUMPDEST PUSH2 0x251 PUSH2 0x46C JUMP JUMPDEST PUSH1 0x40 MLOAD PUSH2 0x240 SWAP4 SWAP3 SWAP2 SWAP1 PUSH2 0x48F4 JUMP JUMPDEST PUSH2 0x273 PUSH2 0x26E CALLDATASIZE PUSH1 0x4 PUSH2 0x3E4F JUMP JUMPDEST PUSH2 0x4C1 JUMP JUMPDEST PUSH1 0x40 MLOAD PUSH2 0x240 SWAP2 SWAP1 PUSH2 0x4719 JUMP JUMPDEST PUSH2 0x288 PUSH2 0x4D8 JUMP JUMPDEST PUSH1 0x40 MLOAD PUSH2 0x240 SWAP2 SWAP1 PUSH2 0x460F JUMP JUMPDEST PUSH2 0x29D PUSH2 0x4F4 JUMP JUMPDEST PUSH1 0x40 MLOAD PUSH2 0x240 SWAP2 SWAP1 PUSH2 0x4727 JUMP JUMPDEST PUSH2 0x2BD PUSH2 0x2B8 CALLDATASIZE PUSH1 0x4 PUSH2 0x3E9D JUMP JUMPDEST PUSH2 0x4FA JUMP JUMPDEST STOP JUMPDEST PUSH2 0x273 PUSH2 0x2CD CALLDATASIZE PUSH1 0x4 PUSH2 0x3D70 JUMP JUMPDEST PUSH2 0x698 JUMP JUMPDEST PUSH2 0x273 PUSH2 0x778 JUMP JUMPDEST PUSH2 0x29D PUSH2 0x79B JUMP JUMPDEST PUSH2 0x2EA PUSH2 0x7BF JUMP JUMPDEST PUSH1 0x40 MLOAD PUSH2 0x240 SWAP2 SWAP1 PUSH2 0x4945 JUMP JUMPDEST PUSH2 0x29D PUSH2 0x7C4 JUMP JUMPDEST PUSH2 0x273 PUSH2 0x7CA JUMP JUMPDEST PUSH2 0x29D PUSH2 0x7EB JUMP JUMPDEST PUSH2 0x273 PUSH2 0x7F1 JUMP JUMPDEST PUSH2 0x29D PUSH2 0x816 JUMP JUMPDEST PUSH2 0x29D PUSH2 0x32D CALLDATASIZE PUSH1 0x4 PUSH2 0x3CA5 JUMP JUMPDEST PUSH2 0x81C JUMP JUMPDEST PUSH2 0x29D PUSH2 0x340 CALLDATASIZE PUSH1 0x4 PUSH2 0x3CA5 JUMP JUMPDEST PUSH2 0xBB7 JUMP JUMPDEST PUSH2 0x29D PUSH2 0xBC9 JUMP JUMPDEST PUSH2 0x29D PUSH2 0x35B CALLDATASIZE PUSH1 0x4 PUSH2 0x3CA5 JUMP JUMPDEST PUSH2 0xBCF JUMP JUMPDEST PUSH2 0x373 PUSH2 0x36E CALLDATASIZE PUSH1 0x4 PUSH2 0x3CA5 JUMP JUMPDEST PUSH2 0xBE1 JUMP JUMPDEST PUSH1 0x40 MLOAD PUSH2 0x240 SWAP3 SWAP2 SWAP1 PUSH2 0x491C JUMP JUMPDEST PUSH2 0x233 PUSH2 0x1048 JUMP JUMPDEST PUSH2 0x273 PUSH2 0x397 CALLDATASIZE PUSH1 0x4 PUSH2 0x3E4F JUMP JUMPDEST PUSH2 0x1081 JUMP JUMPDEST PUSH2 0x29D PUSH2 0x108E JUMP JUMPDEST PUSH2 0x2BD PUSH2 0x3B2 CALLDATASIZE PUSH1 0x4 PUSH2 0x3CA5 JUMP JUMPDEST PUSH2 0x1094 JUMP JUMPDEST PUSH2 0x288 PUSH2 0x1223 JUMP JUMPDEST PUSH2 0x273 PUSH2 0x123F JUMP JUMPDEST PUSH2 0x288 PUSH2 0x1263 JUMP JUMPDEST PUSH2 0x2BD PUSH2 0x3DD CALLDATASIZE PUSH1 0x4 PUSH2 0x3DB3 JUMP JUMPDEST PUSH2 0x127F JUMP JUMPDEST PUSH2 0x29D PUSH2 0x3F0 CALLDATASIZE PUSH1 0x4 PUSH2 0x3CE9 JUMP JUMPDEST PUSH2 0x1474 JUMP JUMPDEST PUSH2 0x2BD PUSH2 0x403 CALLDATASIZE PUSH1 0x4 PUSH2 0x3F94 JUMP JUMPDEST PUSH2 0x1491 JUMP JUMPDEST PUSH2 0x2BD PUSH2 0x416 CALLDATASIZE PUSH1 0x4 PUSH2 0x3D23 JUMP JUMPDEST PUSH2 0x198B JUMP JUMPDEST PUSH2 0x273 PUSH2 0x1E2B JUMP JUMPDEST PUSH2 0x273 PUSH2 0x1E4D JUMP JUMPDEST PUSH2 0x2BD PUSH2 0x1F8B JUMP JUMPDEST PUSH1 0x40 MLOAD DUP1 PUSH1 0x40 ADD PUSH1 0x40 MSTORE DUP1 PUSH1 0x13 DUP2 MSTORE PUSH1 0x20 ADD PUSH32 0x497873204C697175696469747920546F6B656E00000000000000000000000000 DUP2 MSTORE POP DUP2 JUMP JUMPDEST PUSH1 0x8 SLOAD PUSH14 0xFFFFFFFFFFFFFFFFFFFFFFFFFFFF DUP1 DUP3 AND SWAP3 PUSH15 0x10000000000000000000000000000 DUP4 DIV SWAP1 SWAP2 AND SWAP2 PUSH29 0x100000000000000000000000000000000000000000000000000000000 SWAP1 DIV PUSH4 0xFFFFFFFF AND SWAP1 JUMP JUMPDEST PUSH1 0x0 PUSH2 0x4CE CALLER DUP5 DUP5 PUSH2 0x214F JUMP JUMPDEST POP PUSH1 0x1 JUMPDEST SWAP3 SWAP2 POP POP JUMP JUMPDEST PUSH1 0x6 SLOAD PUSH20 0xFFFFFFFFFFFFFFFFFFFFFFFFFFFFFFFFFFFFFFFF AND DUP2 JUMP JUMPDEST PUSH1 0x0 SLOAD DUP2 JUMP JUMPDEST PUSH1 0x5 PUSH1 0x0 SWAP1 SLOAD SWAP1 PUSH2 0x100 EXP SWAP1 DIV PUSH20 0xFFFFFFFFFFFFFFFFFFFFFFFFFFFFFFFFFFFFFFFF AND PUSH20 0xFFFFFFFFFFFFFFFFFFFFFFFFFFFFFFFFFFFFFFFF AND PUSH4 0x94B7415 PUSH1 0x40 MLOAD DUP2 PUSH4 0xFFFFFFFF AND PUSH1 0xE0 SHL DUP2 MSTORE PUSH1 0x4 ADD PUSH1 0x20 PUSH1 0x40 MLOAD DUP1 DUP4 SUB DUP2 DUP7 DUP1 EXTCODESIZE ISZERO DUP1 ISZERO PUSH2 0x562 JUMPI PUSH1 0x0 DUP1 REVERT JUMPDEST POP GAS STATICCALL ISZERO DUP1 ISZERO PUSH2 0x576 JUMPI RETURNDATASIZE PUSH1 0x0 DUP1 RETURNDATACOPY RETURNDATASIZE PUSH1 0x0 REVERT JUMPDEST POP POP POP POP PUSH1 0x40 MLOAD RETURNDATASIZE PUSH1 0x1F NOT PUSH1 0x1F DUP3 ADD AND DUP3 ADD DUP1 PUSH1 0x40 MSTORE POP PUSH2 0x59A SWAP2 SWAP1 DUP2 ADD SWAP1 PUSH2 0x3CCB JUMP JUMPDEST PUSH20 0xFFFFFFFFFFFFFFFFFFFFFFFFFFFFFFFFFFFFFFFF AND CALLER PUSH20 0xFFFFFFFFFFFFFFFFFFFFFFFFFFFFFFFFFFFFFFFF AND EQ PUSH2 0x607 JUMPI PUSH1 0x40 MLOAD PUSH32 0x8C379A000000000000000000000000000000000000000000000000000000000 DUP2 MSTORE PUSH1 0x4 ADD PUSH2 0x5FE SWAP1 PUSH2 0x48A9 JUMP JUMPDEST PUSH1 0x40 MLOAD DUP1 SWAP2 SUB SWAP1 REVERT JUMPDEST PUSH1 0x7 DUP1 SLOAD SWAP2 ISZERO ISZERO PUSH25 0x1000000000000000000000000000000000000000000000000 MUL PUSH32 0xFFFFFFFFFFFFFF00FFFFFFFFFFFFFFFFFFFFFFFFFFFFFFFFFFFFFFFFFFFFFFFF SWAP4 ISZERO ISZERO PUSH24 0x10000000000000000000000000000000000000000000000 MUL PUSH32 0xFFFFFFFFFFFFFFFF00FFFFFFFFFFFFFFFFFFFFFFFFFFFFFFFFFFFFFFFFFFFFFF SWAP1 SWAP4 AND SWAP3 SWAP1 SWAP3 OR SWAP3 SWAP1 SWAP3 AND OR SWAP1 SSTORE JUMP JUMPDEST PUSH20 0xFFFFFFFFFFFFFFFFFFFFFFFFFFFFFFFFFFFFFFFF DUP4 AND PUSH1 0x0 SWAP1 DUP2 MSTORE PUSH1 0x2 PUSH1 0x20 SWAP1 DUP2 MSTORE PUSH1 0x40 DUP1 DUP4 KECCAK256 CALLER DUP5 MSTORE SWAP1 SWAP2 MSTORE DUP2 KECCAK256 SLOAD PUSH32 0xFFFFFFFFFFFFFFFFFFFFFFFFFFFFFFFFFFFFFFFFFFFFFFFFFFFFFFFFFFFFFFFF EQ PUSH2 0x762 JUMPI PUSH20 0xFFFFFFFFFFFFFFFFFFFFFFFFFFFFFFFFFFFFFFFF DUP5 AND PUSH1 0x0 SWAP1 DUP2 MSTORE PUSH1 0x2 PUSH1 0x20 SWAP1 DUP2 MSTORE PUSH1 0x40 DUP1 DUP4 KECCAK256 CALLER DUP5 MSTORE SWAP1 SWAP2 MSTORE SWAP1 KECCAK256 SLOAD PUSH2 0x730 SWAP1 DUP4 PUSH4 0xFFFFFFFF PUSH2 0x21C4 AND JUMP JUMPDEST PUSH20 0xFFFFFFFFFFFFFFFFFFFFFFFFFFFFFFFFFFFFFFFF DUP6 AND PUSH1 0x0 SWAP1 DUP2 MSTORE PUSH1 0x2 PUSH1 0x20 SWAP1 DUP2 MSTORE PUSH1 0x40 DUP1 DUP4 KECCAK256 CALLER DUP5 MSTORE SWAP1 SWAP2 MSTORE SWAP1 KECCAK256 SSTORE JUMPDEST PUSH2 0x76D DUP5 DUP5 DUP5 PUSH2 0x2201 JUMP JUMPDEST POP PUSH1 0x1 JUMPDEST SWAP4 SWAP3 POP POP POP JUMP JUMPDEST PUSH1 0x7 SLOAD PUSH23 0x100000000000000000000000000000000000000000000 SWAP1 DIV PUSH1 0xFF AND DUP2 JUMP JUMPDEST PUSH32 0x6E71EDAE12B1B97F4D1F60370FEF10105FA2FAAE0126114A169C64845D6126C9 DUP2 JUMP JUMPDEST PUSH1 0x12 DUP2 JUMP JUMPDEST PUSH1 0x3 SLOAD DUP2 JUMP JUMPDEST PUSH1 0x7 SLOAD PUSH21 0x10000000000000000000000000000000000000000 SWAP1 DIV PUSH1 0xFF AND DUP2 JUMP JUMPDEST PUSH1 0x9 SLOAD DUP2 JUMP JUMPDEST PUSH1 0x7 SLOAD PUSH25 0x1000000000000000000000000000000000000000000000000 SWAP1 DIV PUSH1 0xFF AND DUP2 JUMP JUMPDEST PUSH1 0xA SLOAD DUP2 JUMP JUMPDEST PUSH1 0x0 PUSH1 0xC SLOAD PUSH1 0x1 EQ PUSH2 0x85A JUMPI PUSH1 0x40 MLOAD PUSH32 0x8C379A000000000000000000000000000000000000000000000000000000000 DUP2 MSTORE PUSH1 0x4 ADD PUSH2 0x5FE SWAP1 PUSH2 0x4899 JUMP JUMPDEST PUSH1 0x0 PUSH1 0xC DUP2 SWAP1 SSTORE DUP1 PUSH2 0x86A PUSH2 0x46C JUMP JUMPDEST POP PUSH1 0x6 SLOAD PUSH1 0x40 MLOAD PUSH32 0x70A0823100000000000000000000000000000000000000000000000000000000 DUP2 MSTORE SWAP3 SWAP5 POP SWAP1 SWAP3 POP PUSH1 0x0 SWAP2 PUSH20 0xFFFFFFFFFFFFFFFFFFFFFFFFFFFFFFFFFFFFFFFF SWAP1 SWAP2 AND SWAP1 PUSH4 0x70A08231 SWAP1 PUSH2 0x8CA SWAP1 ADDRESS SWAP1 PUSH1 0x4 ADD PUSH2 0x460F JUMP JUMPDEST PUSH1 0x20 PUSH1 0x40 MLOAD DUP1 DUP4 SUB DUP2 DUP7 DUP1 EXTCODESIZE ISZERO DUP1 ISZERO PUSH2 0x8E2 JUMPI PUSH1 0x0 DUP1 REVERT JUMPDEST POP GAS STATICCALL ISZERO DUP1 ISZERO PUSH2 0x8F6 JUMPI RETURNDATASIZE PUSH1 0x0 DUP1 RETURNDATACOPY RETURNDATASIZE PUSH1 0x0 REVERT JUMPDEST POP POP POP POP PUSH1 0x40 MLOAD RETURNDATASIZE PUSH1 0x1F NOT PUSH1 0x1F DUP3 ADD AND DUP3 ADD DUP1 PUSH1 0x40 MSTORE POP PUSH2 0x91A SWAP2 SWAP1 DUP2 ADD SWAP1 PUSH2 0x3F76 JUMP JUMPDEST PUSH1 0x7 SLOAD PUSH1 0x40 MLOAD PUSH32 0x70A0823100000000000000000000000000000000000000000000000000000000 DUP2 MSTORE SWAP2 SWAP3 POP PUSH1 0x0 SWAP2 PUSH20 0xFFFFFFFFFFFFFFFFFFFFFFFFFFFFFFFFFFFFFFFF SWAP1 SWAP2 AND SWAP1 PUSH4 0x70A08231 SWAP1 PUSH2 0x976 SWAP1 ADDRESS SWAP1 PUSH1 0x4 ADD PUSH2 0x460F JUMP JUMPDEST PUSH1 0x20 PUSH1 0x40 MLOAD DUP1 DUP4 SUB DUP2 DUP7 DUP1 EXTCODESIZE ISZERO DUP1 ISZERO PUSH2 0x98E JUMPI PUSH1 0x0 DUP1 REVERT JUMPDEST POP GAS STATICCALL ISZERO DUP1 ISZERO PUSH2 0x9A2 JUMPI RETURNDATASIZE PUSH1 0x0 DUP1 RETURNDATACOPY RETURNDATASIZE PUSH1 0x0 REVERT JUMPDEST POP POP POP POP PUSH1 0x40 MLOAD RETURNDATASIZE PUSH1 0x1F NOT PUSH1 0x1F DUP3 ADD AND DUP3 ADD DUP1 PUSH1 0x40 MSTORE POP PUSH2 0x9C6 SWAP2 SWAP1 DUP2 ADD SWAP1 PUSH2 0x3F76 JUMP JUMPDEST SWAP1 POP PUSH1 0x0 PUSH2 0x9EA DUP4 PUSH14 0xFFFFFFFFFFFFFFFFFFFFFFFFFFFF DUP8 AND PUSH4 0xFFFFFFFF PUSH2 0x21C4 AND JUMP JUMPDEST SWAP1 POP PUSH1 0x0 PUSH2 0xA0E DUP4 PUSH14 0xFFFFFFFFFFFFFFFFFFFFFFFFFFFF DUP8 AND PUSH4 0xFFFFFFFF PUSH2 0x21C4 AND JUMP JUMPDEST SWAP1 POP PUSH1 0x0 PUSH2 0xA1C DUP8 DUP8 PUSH2 0x22D8 JUMP JUMPDEST PUSH1 0x0 SLOAD SWAP1 SWAP2 POP DUP1 PUSH2 0xA65 JUMPI PUSH2 0xA51 PUSH2 0x3E8 PUSH2 0xA45 PUSH2 0xA40 DUP8 DUP8 PUSH4 0xFFFFFFFF PUSH2 0x249E AND JUMP JUMPDEST PUSH2 0x24EF JUMP JUMPDEST SWAP1 PUSH4 0xFFFFFFFF PUSH2 0x21C4 AND JUMP JUMPDEST SWAP9 POP PUSH2 0xA60 PUSH1 0x0 PUSH2 0x3E8 PUSH2 0x2541 JUMP JUMPDEST PUSH2 0xAC2 JUMP JUMPDEST PUSH2 0xABF PUSH14 0xFFFFFFFFFFFFFFFFFFFFFFFFFFFF DUP10 AND PUSH2 0xA89 DUP7 DUP5 PUSH4 0xFFFFFFFF PUSH2 0x249E AND JUMP JUMPDEST DUP2 PUSH2 0xA90 JUMPI INVALID JUMPDEST DIV PUSH14 0xFFFFFFFFFFFFFFFFFFFFFFFFFFFF DUP10 AND PUSH2 0xAB2 DUP7 DUP6 PUSH4 0xFFFFFFFF PUSH2 0x249E AND JUMP JUMPDEST DUP2 PUSH2 0xAB9 JUMPI INVALID JUMPDEST DIV PUSH2 0x25F4 JUMP JUMPDEST SWAP9 POP JUMPDEST PUSH1 0x0 DUP10 GT PUSH2 0xAFC JUMPI PUSH1 0x40 MLOAD PUSH32 0x8C379A000000000000000000000000000000000000000000000000000000000 DUP2 MSTORE PUSH1 0x4 ADD PUSH2 0x5FE SWAP1 PUSH2 0x4889 JUMP JUMPDEST PUSH2 0xB06 DUP11 DUP11 PUSH2 0x2541 JUMP JUMPDEST PUSH2 0xB12 DUP7 DUP7 DUP11 DUP11 PUSH2 0x260A JUMP JUMPDEST DUP2 ISZERO PUSH2 0xB54 JUMPI PUSH1 0x8 SLOAD PUSH2 0xB50 SWAP1 PUSH14 0xFFFFFFFFFFFFFFFFFFFFFFFFFFFF DUP1 DUP3 AND SWAP2 PUSH15 0x10000000000000000000000000000 SWAP1 DIV AND PUSH4 0xFFFFFFFF PUSH2 0x249E AND JUMP JUMPDEST PUSH1 0xB SSTORE JUMPDEST CALLER PUSH20 0xFFFFFFFFFFFFFFFFFFFFFFFFFFFFFFFFFFFFFFFF AND PUSH32 0x4C209B5FC8AD50758F13E2E1088BA56A560DFF690A1C6FEF26394F4C03821C4F DUP6 DUP6 PUSH1 0x40 MLOAD PUSH2 0xB9C SWAP3 SWAP2 SWAP1 PUSH2 0x491C JUMP JUMPDEST PUSH1 0x40 MLOAD DUP1 SWAP2 SUB SWAP1 LOG2 POP POP PUSH1 0x1 PUSH1 0xC SSTORE POP SWAP5 SWAP7 SWAP6 POP POP POP POP POP POP JUMP JUMPDEST PUSH1 0x1 PUSH1 0x20 MSTORE PUSH1 0x0 SWAP1 DUP2 MSTORE PUSH1 0x40 SWAP1 KECCAK256 SLOAD DUP2 JUMP JUMPDEST PUSH1 0xB SLOAD DUP2 JUMP JUMPDEST PUSH1 0x4 PUSH1 0x20 MSTORE PUSH1 0x0 SWAP1 DUP2 MSTORE PUSH1 0x40 SWAP1 KECCAK256 SLOAD DUP2 JUMP JUMPDEST PUSH1 0x0 DUP1 PUSH1 0xC SLOAD PUSH1 0x1 EQ PUSH2 0xC20 JUMPI PUSH1 0x40 MLOAD PUSH32 0x8C379A000000000000000000000000000000000000000000000000000000000 DUP2 MSTORE PUSH1 0x4 ADD PUSH2 0x5FE SWAP1 PUSH2 0x4899 JUMP JUMPDEST PUSH1 0x0 PUSH1 0xC DUP2 SWAP1 SSTORE DUP1 PUSH2 0xC30 PUSH2 0x46C JUMP JUMPDEST POP PUSH1 0x6 SLOAD PUSH1 0x7 SLOAD PUSH1 0x40 MLOAD PUSH32 0x70A0823100000000000000000000000000000000000000000000000000000000 DUP2 MSTORE SWAP4 SWAP6 POP SWAP2 SWAP4 POP PUSH20 0xFFFFFFFFFFFFFFFFFFFFFFFFFFFFFFFFFFFFFFFF SWAP1 DUP2 AND SWAP3 SWAP2 AND SWAP1 PUSH1 0x0 SWAP1 DUP4 SWAP1 PUSH4 0x70A08231 SWAP1 PUSH2 0xC98 SWAP1 ADDRESS SWAP1 PUSH1 0x4 ADD PUSH2 0x460F JUMP JUMPDEST PUSH1 0x20 PUSH1 0x40 MLOAD DUP1 DUP4 SUB DUP2 DUP7 DUP1 EXTCODESIZE ISZERO DUP1 ISZERO PUSH2 0xCB0 JUMPI PUSH1 0x0 DUP1 REVERT JUMPDEST POP GAS STATICCALL ISZERO DUP1 ISZERO PUSH2 0xCC4 JUMPI RETURNDATASIZE PUSH1 0x0 DUP1 RETURNDATACOPY RETURNDATASIZE PUSH1 0x0 REVERT JUMPDEST POP POP POP POP PUSH1 0x40 MLOAD RETURNDATASIZE PUSH1 0x1F NOT PUSH1 0x1F DUP3 ADD AND DUP3 ADD DUP1 PUSH1 0x40 MSTORE POP PUSH2 0xCE8 SWAP2 SWAP1 DUP2 ADD SWAP1 PUSH2 0x3F76 JUMP JUMPDEST SWAP1 POP PUSH1 0x0 DUP3 PUSH20 0xFFFFFFFFFFFFFFFFFFFFFFFFFFFFFFFFFFFFFFFF AND PUSH4 0x70A08231 ADDRESS PUSH1 0x40 MLOAD DUP3 PUSH4 0xFFFFFFFF AND PUSH1 0xE0 SHL DUP2 MSTORE PUSH1 0x4 ADD PUSH2 0xD25 SWAP2 SWAP1 PUSH2 0x460F JUMP JUMPDEST PUSH1 0x20 PUSH1 0x40 MLOAD DUP1 DUP4 SUB DUP2 DUP7 DUP1 EXTCODESIZE ISZERO DUP1 ISZERO PUSH2 0xD3D JUMPI PUSH1 0x0 DUP1 REVERT JUMPDEST POP GAS STATICCALL ISZERO DUP1 ISZERO PUSH2 0xD51 JUMPI RETURNDATASIZE PUSH1 0x0 DUP1 RETURNDATACOPY RETURNDATASIZE PUSH1 0x0 REVERT JUMPDEST POP POP POP POP PUSH1 0x40 MLOAD RETURNDATASIZE PUSH1 0x1F NOT PUSH1 0x1F DUP3 ADD AND DUP3 ADD DUP1 PUSH1 0x40 MSTORE POP PUSH2 0xD75 SWAP2 SWAP1 DUP2 ADD SWAP1 PUSH2 0x3F76 JUMP JUMPDEST ADDRESS PUSH1 0x0 SWAP1 DUP2 MSTORE PUSH1 0x1 PUSH1 0x20 MSTORE PUSH1 0x40 DUP2 KECCAK256 SLOAD SWAP2 SWAP3 POP PUSH2 0xD92 DUP9 DUP9 PUSH2 0x22D8 JUMP JUMPDEST PUSH1 0x0 SLOAD SWAP1 SWAP2 POP DUP1 PUSH2 0xDA9 DUP5 DUP8 PUSH4 0xFFFFFFFF PUSH2 0x249E AND JUMP JUMPDEST DUP2 PUSH2 0xDB0 JUMPI INVALID JUMPDEST DIV SWAP11 POP DUP1 PUSH2 0xDC4 DUP5 DUP7 PUSH4 0xFFFFFFFF PUSH2 0x249E AND JUMP JUMPDEST DUP2 PUSH2 0xDCB JUMPI INVALID JUMPDEST DIV SWAP10 POP PUSH1 0x0 DUP12 GT DUP1 ISZERO PUSH2 0xDDE JUMPI POP PUSH1 0x0 DUP11 GT JUMPDEST PUSH2 0xE14 JUMPI PUSH1 0x40 MLOAD PUSH32 0x8C379A000000000000000000000000000000000000000000000000000000000 DUP2 MSTORE PUSH1 0x4 ADD PUSH2 0x5FE SWAP1 PUSH2 0x4849 JUMP JUMPDEST PUSH2 0xE1E ADDRESS DUP5 PUSH2 0x288E JUMP JUMPDEST PUSH2 0xE29 DUP8 DUP14 DUP14 PUSH2 0x294B JUMP JUMPDEST PUSH2 0xE34 DUP7 DUP14 DUP13 PUSH2 0x294B JUMP JUMPDEST PUSH1 0x40 MLOAD PUSH32 0x70A0823100000000000000000000000000000000000000000000000000000000 DUP2 MSTORE PUSH20 0xFFFFFFFFFFFFFFFFFFFFFFFFFFFFFFFFFFFFFFFF DUP9 AND SWAP1 PUSH4 0x70A08231 SWAP1 PUSH2 0xE86 SWAP1 ADDRESS SWAP1 PUSH1 0x4 ADD PUSH2 0x460F JUMP JUMPDEST PUSH1 0x20 PUSH1 0x40 MLOAD DUP1 DUP4 SUB DUP2 DUP7 DUP1 EXTCODESIZE ISZERO DUP1 ISZERO PUSH2 0xE9E JUMPI PUSH1 0x0 DUP1 REVERT JUMPDEST POP GAS STATICCALL ISZERO DUP1 ISZERO PUSH2 0xEB2 JUMPI RETURNDATASIZE PUSH1 0x0 DUP1 RETURNDATACOPY RETURNDATASIZE PUSH1 0x0 REVERT JUMPDEST POP POP POP POP PUSH1 0x40 MLOAD RETURNDATASIZE PUSH1 0x1F NOT PUSH1 0x1F DUP3 ADD AND DUP3 ADD DUP1 PUSH1 0x40 MSTORE POP PUSH2 0xED6 SWAP2 SWAP1 DUP2 ADD SWAP1 PUSH2 0x3F76 JUMP JUMPDEST PUSH1 0x40 MLOAD PUSH32 0x70A0823100000000000000000000000000000000000000000000000000000000 DUP2 MSTORE SWAP1 SWAP6 POP PUSH20 0xFFFFFFFFFFFFFFFFFFFFFFFFFFFFFFFFFFFFFFFF DUP8 AND SWAP1 PUSH4 0x70A08231 SWAP1 PUSH2 0xF2B SWAP1 ADDRESS SWAP1 PUSH1 0x4 ADD PUSH2 0x460F JUMP JUMPDEST PUSH1 0x20 PUSH1 0x40 MLOAD DUP1 DUP4 SUB DUP2 DUP7 DUP1 EXTCODESIZE ISZERO DUP1 ISZERO PUSH2 0xF43 JUMPI PUSH1 0x0 DUP1 REVERT JUMPDEST POP GAS STATICCALL ISZERO DUP1 ISZERO PUSH2 0xF57 JUMPI RETURNDATASIZE PUSH1 0x0 DUP1 RETURNDATACOPY RETURNDATASIZE PUSH1 0x0 REVERT JUMPDEST POP POP POP POP PUSH1 0x40 MLOAD RETURNDATASIZE PUSH1 0x1F NOT PUSH1 0x1F DUP3 ADD AND DUP3 ADD DUP1 PUSH1 0x40 MSTORE POP PUSH2 0xF7B SWAP2 SWAP1 DUP2 ADD SWAP1 PUSH2 0x3F76 JUMP JUMPDEST SWAP4 POP PUSH2 0xF89 DUP6 DUP6 DUP12 DUP12 PUSH2 0x260A JUMP JUMPDEST DUP2 ISZERO PUSH2 0xFCB JUMPI PUSH1 0x8 SLOAD PUSH2 0xFC7 SWAP1 PUSH14 0xFFFFFFFFFFFFFFFFFFFFFFFFFFFF DUP1 DUP3 AND SWAP2 PUSH15 0x10000000000000000000000000000 SWAP1 DIV AND PUSH4 0xFFFFFFFF PUSH2 0x249E AND JUMP JUMPDEST PUSH1 0xB SSTORE JUMPDEST DUP12 PUSH20 0xFFFFFFFFFFFFFFFFFFFFFFFFFFFFFFFFFFFFFFFF AND CALLER PUSH20 0xFFFFFFFFFFFFFFFFFFFFFFFFFFFFFFFFFFFFFFFF AND PUSH32 0xDCCD412F0B1252819CB1FD330B93224CA42612892BB3F4F789976E6D81936496 DUP14 DUP14 PUSH1 0x40 MLOAD PUSH2 0x102A SWAP3 SWAP2 SWAP1 PUSH2 0x491C JUMP JUMPDEST PUSH1 0x40 MLOAD DUP1 SWAP2 SUB SWAP1 LOG3 POP POP POP POP POP POP POP POP POP PUSH1 0x1 PUSH1 0xC DUP2 SWAP1 SSTORE POP SWAP2 POP SWAP2 JUMP JUMPDEST PUSH1 0x40 MLOAD DUP1 PUSH1 0x40 ADD PUSH1 0x40 MSTORE DUP1 PUSH1 0x6 DUP2 MSTORE PUSH1 0x20 ADD PUSH32 0x4958532D4C540000000000000000000000000000000000000000000000000000 DUP2 MSTORE POP DUP2 JUMP JUMPDEST PUSH1 0x0 PUSH2 0x4CE CALLER DUP5 DUP5 PUSH2 0x2201 JUMP JUMPDEST PUSH2 0x3E8 DUP2 JUMP JUMPDEST PUSH1 0xC SLOAD PUSH1 0x1 EQ PUSH2 0x10D0 JUMPI PUSH1 0x40 MLOAD PUSH32 0x8C379A000000000000000000000000000000000000000000000000000000000 DUP2 MSTORE PUSH1 0x4 ADD PUSH2 0x5FE SWAP1 PUSH2 0x4899 JUMP JUMPDEST PUSH1 0x0 PUSH1 0xC SSTORE PUSH1 0x6 SLOAD PUSH1 0x7 SLOAD PUSH1 0x8 SLOAD PUSH1 0x40 MLOAD PUSH32 0x70A0823100000000000000000000000000000000000000000000000000000000 DUP2 MSTORE PUSH20 0xFFFFFFFFFFFFFFFFFFFFFFFFFFFFFFFFFFFFFFFF SWAP4 DUP5 AND SWAP4 SWAP1 SWAP3 AND SWAP2 PUSH2 0x11AB SWAP2 DUP5 SWAP2 DUP7 SWAP2 PUSH2 0x11A6 SWAP2 PUSH14 0xFFFFFFFFFFFFFFFFFFFFFFFFFFFF SWAP1 SWAP2 AND SWAP1 DUP5 SWAP1 PUSH4 0x70A08231 SWAP1 PUSH2 0x1156 SWAP1 ADDRESS SWAP1 PUSH1 0x4 ADD PUSH2 0x460F JUMP JUMPDEST PUSH1 0x20 PUSH1 0x40 MLOAD DUP1 DUP4 SUB DUP2 DUP7 DUP1 EXTCODESIZE ISZERO DUP1 ISZERO PUSH2 0x116E JUMPI PUSH1 0x0 DUP1 REVERT JUMPDEST POP GAS STATICCALL ISZERO DUP1 ISZERO PUSH2 0x1182 JUMPI RETURNDATASIZE PUSH1 0x0 DUP1 RETURNDATACOPY RETURNDATASIZE PUSH1 0x0 REVERT JUMPDEST POP POP POP POP PUSH1 0x40 MLOAD RETURNDATASIZE PUSH1 0x1F NOT PUSH1 0x1F DUP3 ADD AND DUP3 ADD DUP1 PUSH1 0x40 MSTORE POP PUSH2 0xA45 SWAP2 SWAP1 DUP2 ADD SWAP1 PUSH2 0x3F76 JUMP JUMPDEST PUSH2 0x294B JUMP JUMPDEST PUSH2 0x1219 DUP2 DUP5 PUSH2 0x11A6 PUSH1 0x8 PUSH1 0xE SWAP1 SLOAD SWAP1 PUSH2 0x100 EXP SWAP1 DIV PUSH14 0xFFFFFFFFFFFFFFFFFFFFFFFFFFFF AND PUSH14 0xFFFFFFFFFFFFFFFFFFFFFFFFFFFF AND DUP6 PUSH20 0xFFFFFFFFFFFFFFFFFFFFFFFFFFFFFFFFFFFFFFFF AND PUSH4 0x70A08231 ADDRESS PUSH1 0x40 MLOAD DUP3 PUSH4 0xFFFFFFFF AND PUSH1 0xE0 SHL DUP2 MSTORE PUSH1 0x4 ADD PUSH2 0x1156 SWAP2 SWAP1 PUSH2 0x460F JUMP JUMPDEST POP POP PUSH1 0x1 PUSH1 0xC SSTORE POP JUMP JUMPDEST PUSH1 0x5 SLOAD PUSH20 0xFFFFFFFFFFFFFFFFFFFFFFFFFFFFFFFFFFFFFFFF AND DUP2 JUMP JUMPDEST PUSH1 0x7 SLOAD PUSH24 0x10000000000000000000000000000000000000000000000 SWAP1 DIV PUSH1 0xFF AND DUP2 JUMP JUMPDEST PUSH1 0x7 SLOAD PUSH20 0xFFFFFFFFFFFFFFFFFFFFFFFFFFFFFFFFFFFFFFFF AND DUP2 JUMP JUMPDEST TIMESTAMP DUP5 LT ISZERO PUSH2 0x12B9 JUMPI PUSH1 0x40 MLOAD PUSH32 0x8C379A000000000000000000000000000000000000000000000000000000000 DUP2 MSTORE PUSH1 0x4 ADD PUSH2 0x5FE SWAP1 PUSH2 0x4859 JUMP JUMPDEST PUSH1 0x3 SLOAD PUSH20 0xFFFFFFFFFFFFFFFFFFFFFFFFFFFFFFFFFFFFFFFF DUP9 AND PUSH1 0x0 SWAP1 DUP2 MSTORE PUSH1 0x4 PUSH1 0x20 SWAP1 DUP2 MSTORE PUSH1 0x40 DUP1 DUP4 KECCAK256 DUP1 SLOAD PUSH1 0x1 DUP2 ADD SWAP1 SWAP2 SSTORE SWAP1 MLOAD SWAP3 SWAP4 SWAP3 PUSH2 0x1327 SWAP3 PUSH32 0x6E71EDAE12B1B97F4D1F60370FEF10105FA2FAAE0126114A169C64845D6126C9 SWAP3 DUP14 SWAP3 DUP14 SWAP3 DUP14 SWAP3 SWAP2 DUP14 SWAP2 ADD PUSH2 0x4735 JUMP JUMPDEST PUSH1 0x40 MLOAD PUSH1 0x20 DUP2 DUP4 SUB SUB DUP2 MSTORE SWAP1 PUSH1 0x40 MSTORE DUP1 MLOAD SWAP1 PUSH1 0x20 ADD KECCAK256 PUSH1 0x40 MLOAD PUSH1 0x20 ADD PUSH2 0x134E SWAP3 SWAP2 SWAP1 PUSH2 0x45DE JUMP JUMPDEST PUSH1 0x40 MLOAD PUSH1 0x20 DUP2 DUP4 SUB SUB DUP2 MSTORE SWAP1 PUSH1 0x40 MSTORE DUP1 MLOAD SWAP1 PUSH1 0x20 ADD KECCAK256 SWAP1 POP PUSH1 0x0 PUSH1 0x1 DUP3 DUP7 DUP7 DUP7 PUSH1 0x40 MLOAD PUSH1 0x0 DUP2 MSTORE PUSH1 0x20 ADD PUSH1 0x40 MSTORE PUSH1 0x40 MLOAD PUSH2 0x138B SWAP5 SWAP4 SWAP3 SWAP2 SWAP1 PUSH2 0x476A JUMP JUMPDEST PUSH1 0x20 PUSH1 0x40 MLOAD PUSH1 0x20 DUP2 SUB SWAP1 DUP1 DUP5 SUB SWAP1 DUP6 GAS STATICCALL ISZERO DUP1 ISZERO PUSH2 0x13AD JUMPI RETURNDATASIZE PUSH1 0x0 DUP1 RETURNDATACOPY RETURNDATASIZE PUSH1 0x0 REVERT JUMPDEST POP POP PUSH1 0x40 MLOAD PUSH32 0xFFFFFFFFFFFFFFFFFFFFFFFFFFFFFFFFFFFFFFFFFFFFFFFFFFFFFFFFFFFFFFE0 ADD MLOAD SWAP2 POP POP PUSH20 0xFFFFFFFFFFFFFFFFFFFFFFFFFFFFFFFFFFFFFFFF DUP2 AND ISZERO DUP1 ISZERO SWAP1 PUSH2 0x1428 JUMPI POP DUP9 PUSH20 0xFFFFFFFFFFFFFFFFFFFFFFFFFFFFFFFFFFFFFFFF AND DUP2 PUSH20 0xFFFFFFFFFFFFFFFFFFFFFFFFFFFFFFFFFFFFFFFF AND EQ JUMPDEST PUSH2 0x145E JUMPI PUSH1 0x40 MLOAD PUSH32 0x8C379A000000000000000000000000000000000000000000000000000000000 DUP2 MSTORE PUSH1 0x4 ADD PUSH2 0x5FE SWAP1 PUSH2 0x4839 JUMP JUMPDEST PUSH2 0x1469 DUP10 DUP10 DUP10 PUSH2 0x214F JUMP JUMPDEST POP POP POP POP POP POP POP POP POP JUMP JUMPDEST PUSH1 0x2 PUSH1 0x20 SWAP1 DUP2 MSTORE PUSH1 0x0 SWAP3 DUP4 MSTORE PUSH1 0x40 DUP1 DUP5 KECCAK256 SWAP1 SWAP2 MSTORE SWAP1 DUP3 MSTORE SWAP1 KECCAK256 SLOAD DUP2 JUMP JUMPDEST DUP5 DUP3 DUP3 DUP1 DUP1 PUSH1 0x20 MUL PUSH1 0x20 ADD PUSH1 0x40 MLOAD SWAP1 DUP2 ADD PUSH1 0x40 MSTORE DUP1 SWAP4 SWAP3 SWAP2 SWAP1 DUP2 DUP2 MSTORE PUSH1 0x20 ADD PUSH1 0x0 SWAP1 JUMPDEST DUP3 DUP3 LT ISZERO PUSH2 0x14E0 JUMPI PUSH2 0x14D1 PUSH1 0xA0 DUP4 MUL DUP7 ADD CALLDATASIZE DUP2 SWAP1 SUB DUP2 ADD SWAP1 PUSH2 0x3F15 JUMP JUMPDEST DUP2 MSTORE PUSH1 0x20 ADD SWAP1 PUSH1 0x1 ADD SWAP1 PUSH2 0x14B4 JUMP JUMPDEST POP POP PUSH1 0x5 SLOAD PUSH1 0x40 MLOAD PUSH32 0xE5E31B1300000000000000000000000000000000000000000000000000000000 DUP2 MSTORE PUSH20 0xFFFFFFFFFFFFFFFFFFFFFFFFFFFFFFFFFFFFFFFF SWAP1 SWAP2 AND SWAP4 POP PUSH4 0xE5E31B13 SWAP3 POP PUSH2 0x153B SWAP2 POP DUP6 SWAP1 PUSH1 0x4 ADD PUSH2 0x460F JUMP JUMPDEST PUSH1 0x20 PUSH1 0x40 MLOAD DUP1 DUP4 SUB DUP2 DUP7 DUP1 EXTCODESIZE ISZERO DUP1 ISZERO PUSH2 0x1553 JUMPI PUSH1 0x0 DUP1 REVERT JUMPDEST POP GAS STATICCALL ISZERO DUP1 ISZERO PUSH2 0x1567 JUMPI RETURNDATASIZE PUSH1 0x0 DUP1 RETURNDATACOPY RETURNDATASIZE PUSH1 0x0 REVERT JUMPDEST POP POP POP POP PUSH1 0x40 MLOAD RETURNDATASIZE PUSH1 0x1F NOT PUSH1 0x1F DUP3 ADD AND DUP3 ADD DUP1 PUSH1 0x40 MSTORE POP PUSH2 0x158B SWAP2 SWAP1 DUP2 ADD SWAP1 PUSH2 0x3E7F JUMP JUMPDEST ISZERO PUSH2 0x1620 JUMPI PUSH1 0xC SLOAD PUSH1 0x1 EQ PUSH2 0x15CC JUMPI PUSH1 0x40 MLOAD PUSH32 0x8C379A000000000000000000000000000000000000000000000000000000000 DUP2 MSTORE PUSH1 0x4 ADD PUSH2 0x5FE SWAP1 PUSH2 0x4899 JUMP JUMPDEST PUSH1 0x0 PUSH1 0xC DUP2 SWAP1 SSTORE POP PUSH2 0x1616 DUP10 DUP10 DUP10 DUP10 DUP10 DUP1 DUP1 PUSH1 0x1F ADD PUSH1 0x20 DUP1 SWAP2 DIV MUL PUSH1 0x20 ADD PUSH1 0x40 MLOAD SWAP1 DUP2 ADD PUSH1 0x40 MSTORE DUP1 SWAP4 SWAP3 SWAP2 SWAP1 DUP2 DUP2 MSTORE PUSH1 0x20 ADD DUP4 DUP4 DUP1 DUP3 DUP5 CALLDATACOPY PUSH1 0x0 SWAP3 ADD SWAP2 SWAP1 SWAP2 MSTORE POP PUSH2 0x2B02 SWAP3 POP POP POP JUMP JUMPDEST PUSH1 0x1 PUSH1 0xC SSTORE PUSH2 0x1469 JUMP JUMPDEST PUSH2 0x1628 PUSH2 0x3AB2 JUMP JUMPDEST DUP2 PUSH1 0x0 DUP2 MLOAD DUP2 LT PUSH2 0x1635 JUMPI INVALID JUMPDEST PUSH1 0x20 MUL PUSH1 0x20 ADD ADD MLOAD SWAP1 POP PUSH2 0x1647 PUSH2 0x3AB2 JUMP JUMPDEST DUP3 PUSH1 0x1 DUP2 MLOAD DUP2 LT PUSH2 0x1654 JUMPI INVALID JUMPDEST PUSH1 0x20 MUL PUSH1 0x20 ADD ADD MLOAD SWAP1 POP PUSH1 0x7 PUSH1 0x14 SWAP1 SLOAD SWAP1 PUSH2 0x100 EXP SWAP1 DIV PUSH1 0xFF AND ISZERO PUSH2 0x17A1 JUMPI PUSH1 0x6 SLOAD DUP3 MLOAD PUSH1 0x20 DUP5 ADD MLOAD PUSH1 0x40 DUP1 DUP7 ADD MLOAD PUSH1 0x60 DUP8 DUP2 ADD MLOAD PUSH1 0x80 DUP10 ADD MLOAD SWAP4 MLOAD PUSH32 0x1198541100000000000000000000000000000000000000000000000000000000 DUP2 MSTORE PUSH1 0x0 SWAP8 SWAP3 SWAP7 PUSH20 0xFFFFFFFFFFFFFFFFFFFFFFFFFFFFFFFFFFFFFFFF SWAP1 SWAP4 AND SWAP6 PUSH4 0x11985411 SWAP6 PUSH2 0x16EB SWAP6 DUP15 SWAP5 SWAP3 SWAP4 SWAP1 SWAP3 SWAP2 SWAP1 PUSH1 0x4 ADD PUSH2 0x467C JUMP JUMPDEST PUSH1 0x0 PUSH1 0x40 MLOAD DUP1 DUP4 SUB DUP2 PUSH1 0x0 DUP8 DUP1 EXTCODESIZE ISZERO DUP1 ISZERO PUSH2 0x1705 JUMPI PUSH1 0x0 DUP1 REVERT JUMPDEST POP GAS CALL ISZERO DUP1 ISZERO PUSH2 0x1719 JUMPI RETURNDATASIZE PUSH1 0x0 DUP1 RETURNDATACOPY RETURNDATASIZE PUSH1 0x0 REVERT JUMPDEST POP POP POP POP PUSH1 0x40 MLOAD RETURNDATASIZE PUSH1 0x0 DUP3 RETURNDATACOPY PUSH1 0x1F RETURNDATASIZE SWAP1 DUP2 ADD PUSH32 0xFFFFFFFFFFFFFFFFFFFFFFFFFFFFFFFFFFFFFFFFFFFFFFFFFFFFFFFFFFFFFFE0 AND DUP3 ADD PUSH1 0x40 MSTORE PUSH2 0x175F SWAP2 SWAP1 DUP2 ADD SWAP1 PUSH2 0x3ECD JUMP JUMPDEST SWAP2 POP SWAP2 POP DUP2 DUP2 SWAP1 PUSH2 0x179D JUMPI PUSH1 0x40 MLOAD PUSH32 0x8C379A000000000000000000000000000000000000000000000000000000000 DUP2 MSTORE PUSH1 0x4 ADD PUSH2 0x5FE SWAP2 SWAP1 PUSH2 0x47A8 JUMP JUMPDEST POP POP POP JUMPDEST PUSH1 0x7 SLOAD PUSH22 0x1000000000000000000000000000000000000000000 SWAP1 DIV PUSH1 0xFF AND ISZERO PUSH2 0x18F3 JUMPI PUSH1 0x7 SLOAD DUP2 MLOAD PUSH1 0x20 DUP4 ADD MLOAD PUSH1 0x40 DUP1 DUP6 ADD MLOAD PUSH1 0x60 DUP7 DUP2 ADD MLOAD PUSH1 0x80 DUP9 ADD MLOAD SWAP4 MLOAD PUSH32 0x1198541100000000000000000000000000000000000000000000000000000000 DUP2 MSTORE PUSH1 0x0 SWAP8 SWAP3 SWAP7 PUSH20 0xFFFFFFFFFFFFFFFFFFFFFFFFFFFFFFFFFFFFFFFF SWAP1 SWAP4 AND SWAP6 PUSH4 0x11985411 SWAP6 PUSH2 0x183D SWAP6 DUP15 SWAP5 SWAP3 SWAP4 SWAP1 SWAP3 SWAP2 SWAP1 PUSH1 0x4 ADD PUSH2 0x467C JUMP JUMPDEST PUSH1 0x0 PUSH1 0x40 MLOAD DUP1 DUP4 SUB DUP2 PUSH1 0x0 DUP8 DUP1 EXTCODESIZE ISZERO DUP1 ISZERO PUSH2 0x1857 JUMPI PUSH1 0x0 DUP1 REVERT JUMPDEST POP GAS CALL ISZERO DUP1 ISZERO PUSH2 0x186B JUMPI RETURNDATASIZE PUSH1 0x0 DUP1 RETURNDATACOPY RETURNDATASIZE PUSH1 0x0 REVERT JUMPDEST POP POP POP POP PUSH1 0x40 MLOAD RETURNDATASIZE PUSH1 0x0 DUP3 RETURNDATACOPY PUSH1 0x1F RETURNDATASIZE SWAP1 DUP2 ADD PUSH32 0xFFFFFFFFFFFFFFFFFFFFFFFFFFFFFFFFFFFFFFFFFFFFFFFFFFFFFFFFFFFFFFE0 AND DUP3 ADD PUSH1 0x40 MSTORE PUSH2 0x18B1 SWAP2 SWAP1 DUP2 ADD SWAP1 PUSH2 0x3ECD JUMP JUMPDEST SWAP2 POP SWAP2 POP DUP2 DUP2 SWAP1 PUSH2 0x18EF JUMPI PUSH1 0x40 MLOAD PUSH32 0x8C379A000000000000000000000000000000000000000000000000000000000 DUP2 MSTORE PUSH1 0x4 ADD PUSH2 0x5FE SWAP2 SWAP1 PUSH2 0x47A8 JUMP JUMPDEST POP POP POP JUMPDEST PUSH1 0xC SLOAD PUSH1 0x1 EQ PUSH2 0x192F JUMPI PUSH1 0x40 MLOAD PUSH32 0x8C379A000000000000000000000000000000000000000000000000000000000 DUP2 MSTORE PUSH1 0x4 ADD PUSH2 0x5FE SWAP1 PUSH2 0x4899 JUMP JUMPDEST PUSH1 0x0 PUSH1 0xC DUP2 SWAP1 SSTORE POP PUSH2 0x1979 DUP12 DUP12 DUP12 DUP12 DUP12 DUP1 DUP1 PUSH1 0x1F ADD PUSH1 0x20 DUP1 SWAP2 DIV MUL PUSH1 0x20 ADD PUSH1 0x40 MLOAD SWAP1 DUP2 ADD PUSH1 0x40 MSTORE DUP1 SWAP4 SWAP3 SWAP2 SWAP1 DUP2 DUP2 MSTORE PUSH1 0x20 ADD DUP4 DUP4 DUP1 DUP3 DUP5 CALLDATACOPY PUSH1 0x0 SWAP3 ADD SWAP2 SWAP1 SWAP2 MSTORE POP PUSH2 0x2B02 SWAP3 POP POP POP JUMP JUMPDEST POP POP PUSH1 0x1 PUSH1 0xC SSTORE POP POP POP POP POP POP POP POP POP JUMP JUMPDEST PUSH1 0x5 SLOAD PUSH20 0xFFFFFFFFFFFFFFFFFFFFFFFFFFFFFFFFFFFFFFFF AND CALLER EQ PUSH2 0x19DC JUMPI PUSH1 0x40 MLOAD PUSH32 0x8C379A000000000000000000000000000000000000000000000000000000000 DUP2 MSTORE PUSH1 0x4 ADD PUSH2 0x5FE SWAP1 PUSH2 0x48A9 JUMP JUMPDEST PUSH1 0x5 SLOAD PUSH1 0x40 DUP1 MLOAD PUSH32 0x2584BC4F00000000000000000000000000000000000000000000000000000000 DUP2 MSTORE SWAP1 MLOAD PUSH1 0x0 SWAP3 PUSH20 0xFFFFFFFFFFFFFFFFFFFFFFFFFFFFFFFFFFFFFFFF AND SWAP2 PUSH4 0x2584BC4F SWAP2 PUSH1 0x4 DUP1 DUP4 ADD SWAP3 PUSH1 0x20 SWAP3 SWAP2 SWAP1 DUP3 SWAP1 SUB ADD DUP2 DUP7 DUP1 EXTCODESIZE ISZERO DUP1 ISZERO PUSH2 0x1A47 JUMPI PUSH1 0x0 DUP1 REVERT JUMPDEST POP GAS STATICCALL ISZERO DUP1 ISZERO PUSH2 0x1A5B JUMPI RETURNDATASIZE PUSH1 0x0 DUP1 RETURNDATACOPY RETURNDATASIZE PUSH1 0x0 REVERT JUMPDEST POP POP POP POP PUSH1 0x40 MLOAD RETURNDATASIZE PUSH1 0x1F NOT PUSH1 0x1F DUP3 ADD AND DUP3 ADD DUP1 PUSH1 0x40 MSTORE POP PUSH2 0x1A7F SWAP2 SWAP1 DUP2 ADD SWAP1 PUSH2 0x3CCB JUMP JUMPDEST PUSH1 0x6 DUP1 SLOAD PUSH20 0xFFFFFFFFFFFFFFFFFFFFFFFFFFFFFFFFFFFFFFFF DUP1 DUP9 AND PUSH32 0xFFFFFFFFFFFFFFFFFFFFFFFF0000000000000000000000000000000000000000 SWAP3 DUP4 AND OR SWAP1 SWAP3 SSTORE PUSH1 0x7 DUP1 SLOAD DUP8 DUP5 AND SWAP3 AND SWAP2 SWAP1 SWAP2 OR SWAP1 SSTORE SWAP1 SWAP2 POP DUP2 AND ISZERO DUP1 ISZERO SWAP1 PUSH2 0x1B82 JUMPI POP PUSH1 0x40 MLOAD PUSH32 0xDA7536DB00000000000000000000000000000000000000000000000000000000 DUP2 MSTORE PUSH20 0xFFFFFFFFFFFFFFFFFFFFFFFFFFFFFFFFFFFFFFFF DUP3 AND SWAP1 PUSH4 0xDA7536DB SWAP1 PUSH2 0x1B32 SWAP1 DUP8 SWAP1 PUSH1 0x4 ADD PUSH2 0x460F JUMP JUMPDEST PUSH1 0x20 PUSH1 0x40 MLOAD DUP1 DUP4 SUB DUP2 DUP7 DUP1 EXTCODESIZE ISZERO DUP1 ISZERO PUSH2 0x1B4A JUMPI PUSH1 0x0 DUP1 REVERT JUMPDEST POP GAS STATICCALL ISZERO DUP1 ISZERO PUSH2 0x1B5E JUMPI RETURNDATASIZE PUSH1 0x0 DUP1 RETURNDATACOPY RETURNDATASIZE PUSH1 0x0 REVERT JUMPDEST POP POP POP POP PUSH1 0x40 MLOAD RETURNDATASIZE PUSH1 0x1F NOT PUSH1 0x1F DUP3 ADD AND DUP3 ADD DUP1 PUSH1 0x40 MSTORE POP PUSH2 0x1B82 SWAP2 SWAP1 DUP2 ADD SWAP1 PUSH2 0x3E7F JUMP JUMPDEST PUSH1 0x7 DUP1 SLOAD SWAP2 ISZERO ISZERO PUSH21 0x10000000000000000000000000000000000000000 MUL PUSH32 0xFFFFFFFFFFFFFFFFFFFFFF00FFFFFFFFFFFFFFFFFFFFFFFFFFFFFFFFFFFFFFFF SWAP1 SWAP3 AND SWAP2 SWAP1 SWAP2 OR SWAP1 SSTORE PUSH20 0xFFFFFFFFFFFFFFFFFFFFFFFFFFFFFFFFFFFFFFFF DUP2 AND ISZERO DUP1 ISZERO SWAP1 PUSH2 0x1C8C JUMPI POP PUSH1 0x40 MLOAD PUSH32 0xDA7536DB00000000000000000000000000000000000000000000000000000000 DUP2 MSTORE PUSH20 0xFFFFFFFFFFFFFFFFFFFFFFFFFFFFFFFFFFFFFFFF DUP3 AND SWAP1 PUSH4 0xDA7536DB SWAP1 PUSH2 0x1C3C SWAP1 DUP7 SWAP1 PUSH1 0x4 ADD PUSH2 0x460F JUMP JUMPDEST PUSH1 0x20 PUSH1 0x40 MLOAD DUP1 DUP4 SUB DUP2 DUP7 DUP1 EXTCODESIZE ISZERO DUP1 ISZERO PUSH2 0x1C54 JUMPI PUSH1 0x0 DUP1 REVERT JUMPDEST POP GAS STATICCALL ISZERO DUP1 ISZERO PUSH2 0x1C68 JUMPI RETURNDATASIZE PUSH1 0x0 DUP1 RETURNDATACOPY RETURNDATASIZE PUSH1 0x0 REVERT JUMPDEST POP POP POP POP PUSH1 0x40 MLOAD RETURNDATASIZE PUSH1 0x1F NOT PUSH1 0x1F DUP3 ADD AND DUP3 ADD DUP1 PUSH1 0x40 MSTORE POP PUSH2 0x1C8C SWAP2 SWAP1 DUP2 ADD SWAP1 PUSH2 0x3E7F JUMP JUMPDEST PUSH1 0x7 DUP1 SLOAD SWAP2 ISZERO ISZERO PUSH22 0x1000000000000000000000000000000000000000000 MUL PUSH32 0xFFFFFFFFFFFFFFFFFFFF00FFFFFFFFFFFFFFFFFFFFFFFFFFFFFFFFFFFFFFFFFF SWAP1 SWAP3 AND SWAP2 SWAP1 SWAP2 OR SWAP1 DUP2 SWAP1 SSTORE PUSH21 0x10000000000000000000000000000000000000000 SWAP1 DIV PUSH1 0xFF AND DUP1 PUSH2 0x1D18 JUMPI POP PUSH1 0x7 SLOAD PUSH22 0x1000000000000000000000000000000000000000000 SWAP1 DIV PUSH1 0xFF AND JUMPDEST PUSH1 0x7 DUP1 SLOAD PUSH32 0xFFFFFFFFFFFFFFFFFF00FFFFFFFFFFFFFFFFFFFFFFFFFFFFFFFFFFFFFFFFFFFF AND PUSH23 0x100000000000000000000000000000000000000000000 SWAP3 ISZERO ISZERO DUP4 MUL OR PUSH32 0xFFFFFFFFFFFFFFFF00FFFFFFFFFFFFFFFFFFFFFFFFFFFFFFFFFFFFFFFFFFFFFF AND PUSH24 0x10000000000000000000000000000000000000000000000 DUP6 ISZERO ISZERO MUL OR SWAP1 DUP2 SWAP1 SSTORE PUSH1 0xFF SWAP2 SWAP1 DIV AND ISZERO DUP1 PUSH2 0x1DEF JUMPI POP PUSH1 0x7 SLOAD PUSH21 0x10000000000000000000000000000000000000000 DUP2 DIV PUSH1 0xFF SWAP1 DUP2 AND ISZERO ISZERO PUSH22 0x1000000000000000000000000000000000000000000 SWAP1 SWAP3 DIV AND ISZERO ISZERO EQ ISZERO JUMPDEST PUSH2 0x1E25 JUMPI PUSH1 0x40 MLOAD PUSH32 0x8C379A000000000000000000000000000000000000000000000000000000000 DUP2 MSTORE PUSH1 0x4 ADD PUSH2 0x5FE SWAP1 PUSH2 0x4879 JUMP JUMPDEST POP POP POP POP JUMP JUMPDEST PUSH1 0x7 SLOAD PUSH22 0x1000000000000000000000000000000000000000000 SWAP1 DIV PUSH1 0xFF AND DUP2 JUMP JUMPDEST PUSH1 0x7 SLOAD PUSH1 0x0 SWAP1 PUSH23 0x100000000000000000000000000000000000000000000 SWAP1 DIV PUSH1 0xFF AND DUP1 PUSH2 0x1E98 JUMPI POP PUSH1 0x7 SLOAD PUSH24 0x10000000000000000000000000000000000000000000000 SWAP1 DIV PUSH1 0xFF AND JUMPDEST DUP1 ISZERO PUSH2 0x1EC3 JUMPI POP PUSH1 0x7 SLOAD PUSH25 0x1000000000000000000000000000000000000000000000000 SWAP1 DIV PUSH1 0xFF AND ISZERO JUMPDEST DUP1 ISZERO PUSH2 0x1F86 JUMPI POP PUSH1 0x5 SLOAD PUSH1 0x40 DUP1 MLOAD PUSH32 0x7DC0D1D000000000000000000000000000000000000000000000000000000000 DUP2 MSTORE SWAP1 MLOAD PUSH1 0x0 SWAP3 PUSH20 0xFFFFFFFFFFFFFFFFFFFFFFFFFFFFFFFFFFFFFFFF AND SWAP2 PUSH4 0x7DC0D1D0 SWAP2 PUSH1 0x4 DUP1 DUP4 ADD SWAP3 PUSH1 0x20 SWAP3 SWAP2 SWAP1 DUP3 SWAP1 SUB ADD DUP2 DUP7 DUP1 EXTCODESIZE ISZERO DUP1 ISZERO PUSH2 0x1F35 JUMPI PUSH1 0x0 DUP1 REVERT JUMPDEST POP GAS STATICCALL ISZERO DUP1 ISZERO PUSH2 0x1F49 JUMPI RETURNDATASIZE PUSH1 0x0 DUP1 RETURNDATACOPY RETURNDATASIZE PUSH1 0x0 REVERT JUMPDEST POP POP POP POP PUSH1 0x40 MLOAD RETURNDATASIZE PUSH1 0x1F NOT PUSH1 0x1F DUP3 ADD AND DUP3 ADD DUP1 PUSH1 0x40 MSTORE POP PUSH2 0x1F6D SWAP2 SWAP1 DUP2 ADD SWAP1 PUSH2 0x3CCB JUMP JUMPDEST PUSH20 0xFFFFFFFFFFFFFFFFFFFFFFFFFFFFFFFFFFFFFFFF AND EQ ISZERO JUMPDEST SWAP1 POP SWAP1 JUMP JUMPDEST PUSH1 0xC SLOAD PUSH1 0x1 EQ PUSH2 0x1FC7 JUMPI PUSH1 0x40 MLOAD PUSH32 0x8C379A000000000000000000000000000000000000000000000000000000000 DUP2 MSTORE PUSH1 0x4 ADD PUSH2 0x5FE SWAP1 PUSH2 0x4899 JUMP JUMPDEST PUSH1 0x0 PUSH1 0xC SSTORE PUSH1 0x6 SLOAD PUSH1 0x40 MLOAD PUSH32 0x70A0823100000000000000000000000000000000000000000000000000000000 DUP2 MSTORE PUSH2 0x2148 SWAP2 PUSH20 0xFFFFFFFFFFFFFFFFFFFFFFFFFFFFFFFFFFFFFFFF AND SWAP1 PUSH4 0x70A08231 SWAP1 PUSH2 0x2024 SWAP1 ADDRESS SWAP1 PUSH1 0x4 ADD PUSH2 0x460F JUMP JUMPDEST PUSH1 0x20 PUSH1 0x40 MLOAD DUP1 DUP4 SUB DUP2 DUP7 DUP1 EXTCODESIZE ISZERO DUP1 ISZERO PUSH2 0x203C JUMPI PUSH1 0x0 DUP1 REVERT JUMPDEST POP GAS STATICCALL ISZERO DUP1 ISZERO PUSH2 0x2050 JUMPI RETURNDATASIZE PUSH1 0x0 DUP1 RETURNDATACOPY RETURNDATASIZE PUSH1 0x0 REVERT JUMPDEST POP POP POP POP PUSH1 0x40 MLOAD RETURNDATASIZE PUSH1 0x1F NOT PUSH1 0x1F DUP3 ADD AND DUP3 ADD DUP1 PUSH1 0x40 MSTORE POP PUSH2 0x2074 SWAP2 SWAP1 DUP2 ADD SWAP1 PUSH2 0x3F76 JUMP JUMPDEST PUSH1 0x7 SLOAD PUSH1 0x40 MLOAD PUSH32 0x70A0823100000000000000000000000000000000000000000000000000000000 DUP2 MSTORE PUSH20 0xFFFFFFFFFFFFFFFFFFFFFFFFFFFFFFFFFFFFFFFF SWAP1 SWAP2 AND SWAP1 PUSH4 0x70A08231 SWAP1 PUSH2 0x20CA SWAP1 ADDRESS SWAP1 PUSH1 0x4 ADD PUSH2 0x460F JUMP JUMPDEST PUSH1 0x20 PUSH1 0x40 MLOAD DUP1 DUP4 SUB DUP2 DUP7 DUP1 EXTCODESIZE ISZERO DUP1 ISZERO PUSH2 0x20E2 JUMPI PUSH1 0x0 DUP1 REVERT JUMPDEST POP GAS STATICCALL ISZERO DUP1 ISZERO PUSH2 0x20F6 JUMPI RETURNDATASIZE PUSH1 0x0 DUP1 RETURNDATACOPY RETURNDATASIZE PUSH1 0x0 REVERT JUMPDEST POP POP POP POP PUSH1 0x40 MLOAD RETURNDATASIZE PUSH1 0x1F NOT PUSH1 0x1F DUP3 ADD AND DUP3 ADD DUP1 PUSH1 0x40 MSTORE POP PUSH2 0x211A SWAP2 SWAP1 DUP2 ADD SWAP1 PUSH2 0x3F76 JUMP JUMPDEST PUSH1 0x8 SLOAD PUSH14 0xFFFFFFFFFFFFFFFFFFFFFFFFFFFF DUP1 DUP3 AND SWAP2 PUSH15 0x10000000000000000000000000000 SWAP1 DIV AND PUSH2 0x260A JUMP JUMPDEST PUSH1 0x1 PUSH1 0xC SSTORE JUMP JUMPDEST PUSH20 0xFFFFFFFFFFFFFFFFFFFFFFFFFFFFFFFFFFFFFFFF DUP1 DUP5 AND PUSH1 0x0 DUP2 DUP2 MSTORE PUSH1 0x2 PUSH1 0x20 SWAP1 DUP2 MSTORE PUSH1 0x40 DUP1 DUP4 KECCAK256 SWAP5 DUP8 AND DUP1 DUP5 MSTORE SWAP5 SWAP1 SWAP2 MSTORE SWAP1 DUP2 SWAP1 KECCAK256 DUP5 SWAP1 SSTORE MLOAD PUSH32 0x8C5BE1E5EBEC7D5BD14F71427D1E84F3DD0314C0F7B2291E5B200AC8C7C3B925 SWAP1 PUSH2 0x21B7 SWAP1 DUP6 SWAP1 PUSH2 0x4727 JUMP JUMPDEST PUSH1 0x40 MLOAD DUP1 SWAP2 SUB SWAP1 LOG3 POP POP POP JUMP JUMPDEST DUP1 DUP3 SUB DUP3 DUP2 GT ISZERO PUSH2 0x4D2 JUMPI PUSH1 0x40 MLOAD PUSH32 0x8C379A000000000000000000000000000000000000000000000000000000000 DUP2 MSTORE PUSH1 0x4 ADD PUSH2 0x5FE SWAP1 PUSH2 0x47B9 JUMP JUMPDEST PUSH20 0xFFFFFFFFFFFFFFFFFFFFFFFFFFFFFFFFFFFFFFFF DUP4 AND PUSH1 0x0 SWAP1 DUP2 MSTORE PUSH1 0x1 PUSH1 0x20 MSTORE PUSH1 0x40 SWAP1 KECCAK256 SLOAD PUSH2 0x2237 SWAP1 DUP3 PUSH4 0xFFFFFFFF PUSH2 0x21C4 AND JUMP JUMPDEST PUSH20 0xFFFFFFFFFFFFFFFFFFFFFFFFFFFFFFFFFFFFFFFF DUP1 DUP6 AND PUSH1 0x0 SWAP1 DUP2 MSTORE PUSH1 0x1 PUSH1 0x20 MSTORE PUSH1 0x40 DUP1 DUP3 KECCAK256 SWAP4 SWAP1 SWAP4 SSTORE SWAP1 DUP5 AND DUP2 MSTORE KECCAK256 SLOAD PUSH2 0x2279 SWAP1 DUP3 PUSH4 0xFFFFFFFF PUSH2 0x352D AND JUMP JUMPDEST PUSH20 0xFFFFFFFFFFFFFFFFFFFFFFFFFFFFFFFFFFFFFFFF DUP1 DUP5 AND PUSH1 0x0 DUP2 DUP2 MSTORE PUSH1 0x1 PUSH1 0x20 MSTORE PUSH1 0x40 SWAP1 DUP2 SWAP1 KECCAK256 SWAP4 SWAP1 SWAP4 SSTORE SWAP2 MLOAD SWAP1 DUP6 AND SWAP1 PUSH32 0xDDF252AD1BE2C89B69C2B068FC378DAA952BA7F163C4A11628F55A4DF523B3EF SWAP1 PUSH2 0x21B7 SWAP1 DUP6 SWAP1 PUSH2 0x4727 JUMP JUMPDEST PUSH1 0x7 SLOAD PUSH1 0x0 SWAP1 DUP2 SWAP1 PUSH23 0x100000000000000000000000000000000000000000000 SWAP1 DIV PUSH1 0xFF AND PUSH2 0x23A6 JUMPI PUSH1 0x5 PUSH1 0x0 SWAP1 SLOAD SWAP1 PUSH2 0x100 EXP SWAP1 DIV PUSH20 0xFFFFFFFFFFFFFFFFFFFFFFFFFFFFFFFFFFFFFFFF AND PUSH20 0xFFFFFFFFFFFFFFFFFFFFFFFFFFFFFFFFFFFFFFFF AND PUSH4 0x17E7E58 PUSH1 0x40 MLOAD DUP2 PUSH4 0xFFFFFFFF AND PUSH1 0xE0 SHL DUP2 MSTORE PUSH1 0x4 ADD PUSH1 0x20 PUSH1 0x40 MLOAD DUP1 DUP4 SUB DUP2 DUP7 DUP1 EXTCODESIZE ISZERO DUP1 ISZERO PUSH2 0x2369 JUMPI PUSH1 0x0 DUP1 REVERT JUMPDEST POP GAS STATICCALL ISZERO DUP1 ISZERO PUSH2 0x237D JUMPI RETURNDATASIZE PUSH1 0x0 DUP1 RETURNDATACOPY RETURNDATASIZE PUSH1 0x0 REVERT JUMPDEST POP POP POP POP PUSH1 0x40 MLOAD RETURNDATASIZE PUSH1 0x1F NOT PUSH1 0x1F DUP3 ADD AND DUP3 ADD DUP1 PUSH1 0x40 MSTORE POP PUSH2 0x23A1 SWAP2 SWAP1 DUP2 ADD SWAP1 PUSH2 0x3CCB JUMP JUMPDEST PUSH2 0x23A9 JUMP JUMPDEST PUSH1 0x0 JUMPDEST PUSH1 0xB SLOAD PUSH20 0xFFFFFFFFFFFFFFFFFFFFFFFFFFFFFFFFFFFFFFFF DUP3 AND ISZERO DUP1 ISZERO SWAP5 POP SWAP2 SWAP3 POP SWAP1 PUSH2 0x248A JUMPI DUP1 ISZERO PUSH2 0x2485 JUMPI PUSH1 0x0 PUSH2 0x23FE PUSH2 0xA40 PUSH14 0xFFFFFFFFFFFFFFFFFFFFFFFFFFFF DUP9 DUP2 AND SWAP1 DUP9 AND PUSH4 0xFFFFFFFF PUSH2 0x249E AND JUMP JUMPDEST SWAP1 POP PUSH1 0x0 PUSH2 0x240B DUP4 PUSH2 0x24EF JUMP JUMPDEST SWAP1 POP DUP1 DUP3 GT ISZERO PUSH2 0x2482 JUMPI PUSH1 0x0 PUSH2 0x2439 PUSH2 0x242A DUP5 DUP5 PUSH4 0xFFFFFFFF PUSH2 0x21C4 AND JUMP JUMPDEST PUSH1 0x0 SLOAD SWAP1 PUSH4 0xFFFFFFFF PUSH2 0x249E AND JUMP JUMPDEST SWAP1 POP PUSH1 0x0 PUSH2 0x245E DUP4 PUSH2 0x2452 DUP7 PUSH1 0x5 PUSH4 0xFFFFFFFF PUSH2 0x249E AND JUMP JUMPDEST SWAP1 PUSH4 0xFFFFFFFF PUSH2 0x352D AND JUMP JUMPDEST SWAP1 POP PUSH1 0x0 DUP2 DUP4 DUP2 PUSH2 0x246B JUMPI INVALID JUMPDEST DIV SWAP1 POP DUP1 ISZERO PUSH2 0x247E JUMPI PUSH2 0x247E DUP8 DUP3 PUSH2 0x2541 JUMP JUMPDEST POP POP POP JUMPDEST POP POP JUMPDEST PUSH2 0x2496 JUMP JUMPDEST DUP1 ISZERO PUSH2 0x2496 JUMPI PUSH1 0x0 PUSH1 0xB SSTORE JUMPDEST POP POP SWAP3 SWAP2 POP POP JUMP JUMPDEST PUSH1 0x0 DUP2 ISZERO DUP1 PUSH2 0x24B9 JUMPI POP POP DUP1 DUP3 MUL DUP3 DUP3 DUP3 DUP2 PUSH2 0x24B6 JUMPI INVALID JUMPDEST DIV EQ JUMPDEST PUSH2 0x4D2 JUMPI PUSH1 0x40 MLOAD PUSH32 0x8C379A000000000000000000000000000000000000000000000000000000000 DUP2 MSTORE PUSH1 0x4 ADD PUSH2 0x5FE SWAP1 PUSH2 0x47E9 JUMP JUMPDEST PUSH1 0x0 PUSH1 0x3 DUP3 GT ISZERO PUSH2 0x2532 JUMPI POP DUP1 PUSH1 0x1 PUSH1 0x2 DUP3 DIV ADD JUMPDEST DUP2 DUP2 LT ISZERO PUSH2 0x252C JUMPI DUP1 SWAP2 POP PUSH1 0x2 DUP2 DUP3 DUP6 DUP2 PUSH2 0x251B JUMPI INVALID JUMPDEST DIV ADD DUP2 PUSH2 0x2524 JUMPI INVALID JUMPDEST DIV SWAP1 POP PUSH2 0x2504 JUMP JUMPDEST POP PUSH2 0x253C JUMP JUMPDEST DUP2 ISZERO PUSH2 0x253C JUMPI POP PUSH1 0x1 JUMPDEST SWAP2 SWAP1 POP JUMP JUMPDEST PUSH1 0x0 SLOAD PUSH2 0x2554 SWAP1 DUP3 PUSH4 0xFFFFFFFF PUSH2 0x352D AND JUMP JUMPDEST PUSH1 0x0 SWAP1 DUP2 SSTORE PUSH20 0xFFFFFFFFFFFFFFFFFFFFFFFFFFFFFFFFFFFFFFFF DUP4 AND DUP2 MSTORE PUSH1 0x1 PUSH1 0x20 MSTORE PUSH1 0x40 SWAP1 KECCAK256 SLOAD PUSH2 0x258C SWAP1 DUP3 PUSH4 0xFFFFFFFF PUSH2 0x352D AND JUMP JUMPDEST PUSH20 0xFFFFFFFFFFFFFFFFFFFFFFFFFFFFFFFFFFFFFFFF DUP4 AND PUSH1 0x0 DUP2 DUP2 MSTORE PUSH1 0x1 PUSH1 0x20 MSTORE PUSH1 0x40 DUP1 DUP3 KECCAK256 SWAP4 SWAP1 SWAP4 SSTORE SWAP2 MLOAD SWAP1 SWAP2 SWAP1 PUSH32 0xDDF252AD1BE2C89B69C2B068FC378DAA952BA7F163C4A11628F55A4DF523B3EF SWAP1 PUSH2 0x25E8 SWAP1 DUP6 SWAP1 PUSH2 0x4727 JUMP JUMPDEST PUSH1 0x40 MLOAD DUP1 SWAP2 SUB SWAP1 LOG3 POP POP JUMP JUMPDEST PUSH1 0x0 DUP2 DUP4 LT PUSH2 0x2603 JUMPI DUP2 PUSH2 0x771 JUMP JUMPDEST POP SWAP1 SWAP2 SWAP1 POP JUMP JUMPDEST PUSH14 0xFFFFFFFFFFFFFFFFFFFFFFFFFFFF DUP5 GT DUP1 ISZERO SWAP1 PUSH2 0x2636 JUMPI POP PUSH14 0xFFFFFFFFFFFFFFFFFFFFFFFFFFFF DUP4 GT ISZERO JUMPDEST PUSH2 0x266C JUMPI PUSH1 0x40 MLOAD PUSH32 0x8C379A000000000000000000000000000000000000000000000000000000000 DUP2 MSTORE PUSH1 0x4 ADD PUSH2 0x5FE SWAP1 PUSH2 0x4869 JUMP JUMPDEST PUSH1 0x8 SLOAD PUSH4 0xFFFFFFFF TIMESTAMP DUP2 AND SWAP2 PUSH29 0x100000000000000000000000000000000000000000000000000000000 SWAP1 DIV DUP2 AND DUP3 SUB SWAP1 DUP2 AND ISZERO DUP1 ISZERO SWAP1 PUSH2 0x26BC JUMPI POP PUSH14 0xFFFFFFFFFFFFFFFFFFFFFFFFFFFF DUP5 AND ISZERO ISZERO JUMPDEST DUP1 ISZERO PUSH2 0x26D7 JUMPI POP PUSH14 0xFFFFFFFFFFFFFFFFFFFFFFFFFFFF DUP4 AND ISZERO ISZERO JUMPDEST ISZERO PUSH2 0x2787 JUMPI DUP1 PUSH4 0xFFFFFFFF AND PUSH2 0x271A DUP6 PUSH2 0x26F0 DUP7 PUSH2 0x356A JUMP JUMPDEST PUSH28 0xFFFFFFFFFFFFFFFFFFFFFFFFFFFFFFFFFFFFFFFFFFFFFFFFFFFFFFFF AND SWAP1 PUSH4 0xFFFFFFFF PUSH2 0x358E AND JUMP JUMPDEST PUSH1 0x9 DUP1 SLOAD PUSH28 0xFFFFFFFFFFFFFFFFFFFFFFFFFFFFFFFFFFFFFFFFFFFFFFFFFFFFFFFF SWAP3 SWAP1 SWAP3 AND SWAP3 SWAP1 SWAP3 MUL ADD SWAP1 SSTORE PUSH4 0xFFFFFFFF DUP2 AND PUSH2 0x275A DUP5 PUSH2 0x26F0 DUP8 PUSH2 0x356A JUMP JUMPDEST PUSH1 0xA DUP1 SLOAD PUSH28 0xFFFFFFFFFFFFFFFFFFFFFFFFFFFFFFFFFFFFFFFFFFFFFFFFFFFFFFFF SWAP3 SWAP1 SWAP3 AND SWAP3 SWAP1 SWAP3 MUL ADD SWAP1 SSTORE JUMPDEST PUSH1 0x8 DUP1 SLOAD PUSH32 0xFFFFFFFFFFFFFFFFFFFFFFFFFFFFFFFFFFFF0000000000000000000000000000 AND PUSH14 0xFFFFFFFFFFFFFFFFFFFFFFFFFFFF DUP9 DUP2 AND SWAP2 SWAP1 SWAP2 OR PUSH32 0xFFFFFFFF0000000000000000000000000000FFFFFFFFFFFFFFFFFFFFFFFFFFFF AND PUSH15 0x10000000000000000000000000000 DUP9 DUP4 AND DUP2 MUL SWAP2 SWAP1 SWAP2 OR PUSH28 0xFFFFFFFFFFFFFFFFFFFFFFFFFFFFFFFFFFFFFFFFFFFFFFFFFFFFFFFF AND PUSH29 0x100000000000000000000000000000000000000000000000000000000 PUSH4 0xFFFFFFFF DUP8 AND MUL OR SWAP3 DUP4 SWAP1 SSTORE PUSH1 0x40 MLOAD PUSH32 0x1C411E9A96E071241C2F21F7726B17AE89E3CAB4C78BE50E062B03A9FFFBBAD1 SWAP4 PUSH2 0x287E SWAP4 DUP2 DUP2 AND SWAP4 SWAP1 SWAP2 DIV AND SWAP1 PUSH2 0x48D9 JUMP JUMPDEST PUSH1 0x40 MLOAD DUP1 SWAP2 SUB SWAP1 LOG1 POP POP POP POP POP POP JUMP JUMPDEST PUSH20 0xFFFFFFFFFFFFFFFFFFFFFFFFFFFFFFFFFFFFFFFF DUP3 AND PUSH1 0x0 SWAP1 DUP2 MSTORE PUSH1 0x1 PUSH1 0x20 MSTORE PUSH1 0x40 SWAP1 KECCAK256 SLOAD PUSH2 0x28C4 SWAP1 DUP3 PUSH4 0xFFFFFFFF PUSH2 0x21C4 AND JUMP JUMPDEST PUSH20 0xFFFFFFFFFFFFFFFFFFFFFFFFFFFFFFFFFFFFFFFF DUP4 AND PUSH1 0x0 SWAP1 DUP2 MSTORE PUSH1 0x1 PUSH1 0x20 MSTORE PUSH1 0x40 DUP2 KECCAK256 SWAP2 SWAP1 SWAP2 SSTORE SLOAD PUSH2 0x28FE SWAP1 DUP3 PUSH4 0xFFFFFFFF PUSH2 0x21C4 AND JUMP JUMPDEST PUSH1 0x0 SWAP1 DUP2 SSTORE PUSH1 0x40 MLOAD PUSH20 0xFFFFFFFFFFFFFFFFFFFFFFFFFFFFFFFFFFFFFFFF DUP5 AND SWAP1 PUSH32 0xDDF252AD1BE2C89B69C2B068FC378DAA952BA7F163C4A11628F55A4DF523B3EF SWAP1 PUSH2 0x25E8 SWAP1 DUP6 SWAP1 PUSH2 0x4727 JUMP JUMPDEST PUSH1 0x40 DUP1 MLOAD DUP1 DUP3 ADD DUP3 MSTORE PUSH1 0x19 DUP2 MSTORE PUSH32 0x7472616E7366657228616464726573732C75696E743235362900000000000000 PUSH1 0x20 SWAP1 SWAP2 ADD MSTORE MLOAD PUSH1 0x0 SWAP1 PUSH1 0x60 SWAP1 PUSH20 0xFFFFFFFFFFFFFFFFFFFFFFFFFFFFFFFFFFFFFFFF DUP7 AND SWAP1 PUSH32 0xA9059CBB2AB09EB219583F4A59A5D0623ADE346D962BCD4E46B11DA047C9049B SWAP1 PUSH2 0x29D0 SWAP1 DUP8 SWAP1 DUP8 SWAP1 PUSH1 0x24 ADD PUSH2 0x46D6 JUMP JUMPDEST PUSH1 0x40 DUP1 MLOAD PUSH32 0xFFFFFFFFFFFFFFFFFFFFFFFFFFFFFFFFFFFFFFFFFFFFFFFFFFFFFFFFFFFFFFE0 DUP2 DUP5 SUB ADD DUP2 MSTORE SWAP2 DUP2 MSTORE PUSH1 0x20 DUP3 ADD DUP1 MLOAD PUSH28 0xFFFFFFFFFFFFFFFFFFFFFFFFFFFFFFFFFFFFFFFFFFFFFFFFFFFFFFFF AND PUSH32 0xFFFFFFFF00000000000000000000000000000000000000000000000000000000 SWAP1 SWAP5 AND SWAP4 SWAP1 SWAP4 OR SWAP1 SWAP3 MSTORE SWAP1 MLOAD PUSH2 0x2A59 SWAP2 SWAP1 PUSH2 0x45D2 JUMP JUMPDEST PUSH1 0x0 PUSH1 0x40 MLOAD DUP1 DUP4 SUB DUP2 PUSH1 0x0 DUP7 GAS CALL SWAP2 POP POP RETURNDATASIZE DUP1 PUSH1 0x0 DUP2 EQ PUSH2 0x2A96 JUMPI PUSH1 0x40 MLOAD SWAP2 POP PUSH1 0x1F NOT PUSH1 0x3F RETURNDATASIZE ADD AND DUP3 ADD PUSH1 0x40 MSTORE RETURNDATASIZE DUP3 MSTORE RETURNDATASIZE PUSH1 0x0 PUSH1 0x20 DUP5 ADD RETURNDATACOPY PUSH2 0x2A9B JUMP JUMPDEST PUSH1 0x60 SWAP2 POP JUMPDEST POP SWAP2 POP SWAP2 POP DUP2 DUP1 ISZERO PUSH2 0x2AC5 JUMPI POP DUP1 MLOAD ISZERO DUP1 PUSH2 0x2AC5 JUMPI POP DUP1 DUP1 PUSH1 0x20 ADD SWAP1 MLOAD PUSH2 0x2AC5 SWAP2 SWAP1 DUP2 ADD SWAP1 PUSH2 0x3E7F JUMP JUMPDEST PUSH2 0x2AFB JUMPI PUSH1 0x40 MLOAD PUSH32 0x8C379A000000000000000000000000000000000000000000000000000000000 DUP2 MSTORE PUSH1 0x4 ADD PUSH2 0x5FE SWAP1 PUSH2 0x48C9 JUMP JUMPDEST POP POP POP POP POP JUMP JUMPDEST PUSH1 0x0 DUP5 GT DUP1 PUSH2 0x2B11 JUMPI POP PUSH1 0x0 DUP4 GT JUMPDEST PUSH2 0x2B47 JUMPI PUSH1 0x40 MLOAD PUSH32 0x8C379A000000000000000000000000000000000000000000000000000000000 DUP2 MSTORE PUSH1 0x4 ADD PUSH2 0x5FE SWAP1 PUSH2 0x4809 JUMP JUMPDEST PUSH1 0x0 DUP1 PUSH2 0x2B52 PUSH2 0x46C JUMP JUMPDEST POP SWAP2 POP SWAP2 POP DUP2 PUSH14 0xFFFFFFFFFFFFFFFFFFFFFFFFFFFF AND DUP7 LT DUP1 ISZERO PUSH2 0x2B85 JUMPI POP DUP1 PUSH14 0xFFFFFFFFFFFFFFFFFFFFFFFFFFFF AND DUP6 LT JUMPDEST PUSH2 0x2BBB JUMPI PUSH1 0x40 MLOAD PUSH32 0x8C379A000000000000000000000000000000000000000000000000000000000 DUP2 MSTORE PUSH1 0x4 ADD PUSH2 0x5FE SWAP1 PUSH2 0x48B9 JUMP JUMPDEST PUSH1 0x6 SLOAD PUSH1 0x7 SLOAD PUSH1 0x0 SWAP2 DUP3 SWAP2 PUSH20 0xFFFFFFFFFFFFFFFFFFFFFFFFFFFFFFFFFFFFFFFF SWAP2 DUP3 AND SWAP2 SWAP1 DUP2 AND SWAP1 DUP9 AND DUP3 EQ DUP1 ISZERO SWAP1 PUSH2 0x2C20 JUMPI POP DUP1 PUSH20 0xFFFFFFFFFFFFFFFFFFFFFFFFFFFFFFFFFFFFFFFF AND DUP9 PUSH20 0xFFFFFFFFFFFFFFFFFFFFFFFFFFFFFFFFFFFFFFFF AND EQ ISZERO JUMPDEST PUSH2 0x2C56 JUMPI PUSH1 0x40 MLOAD PUSH32 0x8C379A000000000000000000000000000000000000000000000000000000000 DUP2 MSTORE PUSH1 0x4 ADD PUSH2 0x5FE SWAP1 PUSH2 0x4819 JUMP JUMPDEST DUP10 ISZERO PUSH2 0x2C67 JUMPI PUSH2 0x2C67 DUP3 DUP10 DUP13 PUSH2 0x294B JUMP JUMPDEST DUP9 ISZERO PUSH2 0x2C78 JUMPI PUSH2 0x2C78 DUP2 DUP10 DUP12 PUSH2 0x294B JUMP JUMPDEST DUP7 MLOAD ISZERO PUSH2 0x2D0A JUMPI PUSH1 0x40 MLOAD PUSH32 0xA9901E6700000000000000000000000000000000000000000000000000000000 DUP2 MSTORE PUSH20 0xFFFFFFFFFFFFFFFFFFFFFFFFFFFFFFFFFFFFFFFF DUP10 AND SWAP1 PUSH4 0xA9901E67 SWAP1 PUSH2 0x2CD7 SWAP1 CALLER SWAP1 DUP15 SWAP1 DUP15 SWAP1 DUP14 SWAP1 PUSH1 0x4 ADD PUSH2 0x461D JUMP JUMPDEST PUSH1 0x0 PUSH1 0x40 MLOAD DUP1 DUP4 SUB DUP2 PUSH1 0x0 DUP8 DUP1 EXTCODESIZE ISZERO DUP1 ISZERO PUSH2 0x2CF1 JUMPI PUSH1 0x0 DUP1 REVERT JUMPDEST POP GAS CALL ISZERO DUP1 ISZERO PUSH2 0x2D05 JUMPI RETURNDATASIZE PUSH1 0x0 DUP1 RETURNDATACOPY RETURNDATASIZE PUSH1 0x0 REVERT JUMPDEST POP POP POP POP JUMPDEST PUSH1 0x40 MLOAD PUSH32 0x70A0823100000000000000000000000000000000000000000000000000000000 DUP2 MSTORE PUSH20 0xFFFFFFFFFFFFFFFFFFFFFFFFFFFFFFFFFFFFFFFF DUP4 AND SWAP1 PUSH4 0x70A08231 SWAP1 PUSH2 0x2D5C SWAP1 ADDRESS SWAP1 PUSH1 0x4 ADD PUSH2 0x460F JUMP JUMPDEST PUSH1 0x20 PUSH1 0x40 MLOAD DUP1 DUP4 SUB DUP2 DUP7 DUP1 EXTCODESIZE ISZERO DUP1 ISZERO PUSH2 0x2D74 JUMPI PUSH1 0x0 DUP1 REVERT JUMPDEST POP GAS STATICCALL ISZERO DUP1 ISZERO PUSH2 0x2D88 JUMPI RETURNDATASIZE PUSH1 0x0 DUP1 RETURNDATACOPY RETURNDATASIZE PUSH1 0x0 REVERT JUMPDEST POP POP POP POP PUSH1 0x40 MLOAD RETURNDATASIZE PUSH1 0x1F NOT PUSH1 0x1F DUP3 ADD AND DUP3 ADD DUP1 PUSH1 0x40 MSTORE POP PUSH2 0x2DAC SWAP2 SWAP1 DUP2 ADD SWAP1 PUSH2 0x3F76 JUMP JUMPDEST PUSH1 0x40 MLOAD PUSH32 0x70A0823100000000000000000000000000000000000000000000000000000000 DUP2 MSTORE SWAP1 SWAP5 POP PUSH20 0xFFFFFFFFFFFFFFFFFFFFFFFFFFFFFFFFFFFFFFFF DUP3 AND SWAP1 PUSH4 0x70A08231 SWAP1 PUSH2 0x2E01 SWAP1 ADDRESS SWAP1 PUSH1 0x4 ADD PUSH2 0x460F JUMP JUMPDEST PUSH1 0x20 PUSH1 0x40 MLOAD DUP1 DUP4 SUB DUP2 DUP7 DUP1 EXTCODESIZE ISZERO DUP1 ISZERO PUSH2 0x2E19 JUMPI PUSH1 0x0 DUP1 REVERT JUMPDEST POP GAS STATICCALL ISZERO DUP1 ISZERO PUSH2 0x2E2D JUMPI RETURNDATASIZE PUSH1 0x0 DUP1 RETURNDATACOPY RETURNDATASIZE PUSH1 0x0 REVERT JUMPDEST POP POP POP POP PUSH1 0x40 MLOAD RETURNDATASIZE PUSH1 0x1F NOT PUSH1 0x1F DUP3 ADD AND DUP3 ADD DUP1 PUSH1 0x40 MSTORE POP PUSH2 0x2E51 SWAP2 SWAP1 DUP2 ADD SWAP1 PUSH2 0x3F76 JUMP JUMPDEST SWAP3 POP POP POP PUSH1 0x0 DUP9 DUP6 PUSH14 0xFFFFFFFFFFFFFFFFFFFFFFFFFFFF AND SUB DUP4 GT PUSH2 0x2E77 JUMPI PUSH1 0x0 PUSH2 0x2E8D JUMP JUMPDEST DUP9 DUP6 PUSH14 0xFFFFFFFFFFFFFFFFFFFFFFFFFFFF AND SUB DUP4 SUB JUMPDEST SWAP1 POP PUSH1 0x0 DUP9 DUP6 PUSH14 0xFFFFFFFFFFFFFFFFFFFFFFFFFFFF AND SUB DUP4 GT PUSH2 0x2EB1 JUMPI PUSH1 0x0 PUSH2 0x2EC7 JUMP JUMPDEST DUP9 DUP6 PUSH14 0xFFFFFFFFFFFFFFFFFFFFFFFFFFFF AND SUB DUP4 SUB JUMPDEST SWAP1 POP PUSH1 0x0 DUP3 GT DUP1 PUSH2 0x2ED8 JUMPI POP PUSH1 0x0 DUP2 GT JUMPDEST PUSH2 0x2F0E JUMPI PUSH1 0x40 MLOAD PUSH32 0x8C379A000000000000000000000000000000000000000000000000000000000 DUP2 MSTORE PUSH1 0x4 ADD PUSH2 0x5FE SWAP1 PUSH2 0x4829 JUMP JUMPDEST PUSH1 0x0 PUSH2 0x2F56 PUSH2 0x2F44 PUSH1 0x7 PUSH1 0x16 SWAP1 SLOAD SWAP1 PUSH2 0x100 EXP SWAP1 DIV PUSH1 0xFF AND PUSH2 0x2F31 JUMPI PUSH1 0x3 PUSH2 0x2F34 JUMP JUMPDEST PUSH1 0xA JUMPDEST DUP6 SWAP1 PUSH1 0xFF AND PUSH4 0xFFFFFFFF PUSH2 0x249E AND JUMP JUMPDEST PUSH2 0xA45 DUP8 PUSH2 0x3E8 PUSH4 0xFFFFFFFF PUSH2 0x249E AND JUMP JUMPDEST SWAP1 POP PUSH1 0x0 PUSH2 0x2F7B PUSH2 0x2F44 PUSH1 0x7 PUSH1 0x16 SWAP1 SLOAD SWAP1 PUSH2 0x100 EXP SWAP1 DIV PUSH1 0xFF AND PUSH2 0x2F31 JUMPI PUSH1 0x3 PUSH2 0x2F34 JUMP JUMPDEST SWAP1 POP PUSH2 0x2FB3 PUSH3 0xF4240 PUSH2 0x2FA7 PUSH14 0xFFFFFFFFFFFFFFFFFFFFFFFFFFFF DUP12 DUP2 AND SWAP1 DUP12 AND PUSH4 0xFFFFFFFF PUSH2 0x249E AND JUMP JUMPDEST SWAP1 PUSH4 0xFFFFFFFF PUSH2 0x249E AND JUMP JUMPDEST PUSH2 0x2FC3 DUP4 DUP4 PUSH4 0xFFFFFFFF PUSH2 0x249E AND JUMP JUMPDEST LT ISZERO PUSH2 0x2FFB JUMPI PUSH1 0x40 MLOAD PUSH32 0x8C379A000000000000000000000000000000000000000000000000000000000 DUP2 MSTORE PUSH1 0x4 ADD PUSH2 0x5FE SWAP1 PUSH2 0x47C9 JUMP JUMPDEST POP POP PUSH1 0x5 SLOAD PUSH1 0x40 DUP1 MLOAD PUSH32 0xCD6C730500000000000000000000000000000000000000000000000000000000 DUP2 MSTORE SWAP1 MLOAD PUSH1 0x0 SWAP3 PUSH20 0xFFFFFFFFFFFFFFFFFFFFFFFFFFFFFFFFFFFFFFFF AND SWAP2 PUSH4 0xCD6C7305 SWAP2 PUSH1 0x4 DUP1 DUP4 ADD SWAP3 PUSH1 0x20 SWAP3 SWAP2 SWAP1 DUP3 SWAP1 SUB ADD DUP2 DUP7 DUP1 EXTCODESIZE ISZERO DUP1 ISZERO PUSH2 0x3068 JUMPI PUSH1 0x0 DUP1 REVERT JUMPDEST POP GAS STATICCALL ISZERO DUP1 ISZERO PUSH2 0x307C JUMPI RETURNDATASIZE PUSH1 0x0 DUP1 RETURNDATACOPY RETURNDATASIZE PUSH1 0x0 REVERT JUMPDEST POP POP POP POP PUSH1 0x40 MLOAD RETURNDATASIZE PUSH1 0x1F NOT PUSH1 0x1F DUP3 ADD AND DUP3 ADD DUP1 PUSH1 0x40 MSTORE POP PUSH2 0x30A0 SWAP2 SWAP1 DUP2 ADD SWAP1 PUSH2 0x3CCB JUMP JUMPDEST PUSH1 0x7 SLOAD SWAP1 SWAP2 POP PUSH23 0x100000000000000000000000000000000000000000000 SWAP1 DIV PUSH1 0xFF AND DUP1 ISZERO PUSH2 0x30E4 JUMPI POP PUSH20 0xFFFFFFFFFFFFFFFFFFFFFFFFFFFFFFFFFFFFFFFF DUP2 AND ISZERO ISZERO JUMPDEST ISZERO PUSH2 0x33FB JUMPI DUP3 ISZERO PUSH2 0x31D2 JUMPI PUSH1 0x6 SLOAD PUSH1 0x7 SLOAD PUSH20 0xFFFFFFFFFFFFFFFFFFFFFFFFFFFFFFFFFFFFFFFF SWAP2 DUP3 AND SWAP2 DUP2 AND SWAP1 DUP13 SWAP1 DUP7 SWAP1 PUSH21 0x10000000000000000000000000000000000000000 SWAP1 DIV PUSH1 0xFF AND ISZERO PUSH2 0x31A3 JUMPI PUSH1 0x0 PUSH2 0x2710 PUSH2 0x314B DUP5 PUSH1 0x28 PUSH4 0xFFFFFFFF PUSH2 0x249E AND JUMP JUMPDEST DUP2 PUSH2 0x3152 JUMPI INVALID JUMPDEST DIV SWAP1 POP PUSH2 0x3E8 DUP2 ADD DUP10 GT PUSH2 0x3192 JUMPI PUSH1 0x40 MLOAD PUSH32 0x8C379A000000000000000000000000000000000000000000000000000000000 DUP2 MSTORE PUSH1 0x4 ADD PUSH2 0x5FE SWAP1 PUSH2 0x48B9 JUMP JUMPDEST PUSH2 0x319D DUP5 DUP8 DUP4 PUSH2 0x294B JUMP JUMPDEST POP PUSH2 0x31C9 JUMP JUMPDEST PUSH2 0x31C9 DUP5 DUP7 PUSH2 0x2710 PUSH2 0x31BC DUP6 PUSH1 0x28 PUSH4 0xFFFFFFFF PUSH2 0x249E AND JUMP JUMPDEST DUP2 PUSH2 0x31C3 JUMPI INVALID JUMPDEST DIV PUSH2 0x294B JUMP JUMPDEST POP POP POP POP PUSH2 0x32AB JUMP JUMPDEST DUP2 ISZERO PUSH2 0x32AB JUMPI PUSH1 0x6 SLOAD PUSH1 0x7 SLOAD PUSH20 0xFFFFFFFFFFFFFFFFFFFFFFFFFFFFFFFFFFFFFFFF SWAP2 DUP3 AND SWAP2 DUP2 AND SWAP1 DUP14 SWAP1 DUP6 SWAP1 PUSH22 0x1000000000000000000000000000000000000000000 SWAP1 DIV PUSH1 0xFF AND ISZERO PUSH2 0x328D JUMPI PUSH1 0x0 PUSH2 0x2710 PUSH2 0x3235 DUP5 PUSH1 0x28 PUSH4 0xFFFFFFFF PUSH2 0x249E AND JUMP JUMPDEST DUP2 PUSH2 0x323C JUMPI INVALID JUMPDEST DIV SWAP1 POP PUSH2 0x3E8 DUP2 ADD DUP11 GT PUSH2 0x327C JUMPI PUSH1 0x40 MLOAD PUSH32 0x8C379A000000000000000000000000000000000000000000000000000000000 DUP2 MSTORE PUSH1 0x4 ADD PUSH2 0x5FE SWAP1 PUSH2 0x48B9 JUMP JUMPDEST PUSH2 0x3287 DUP6 DUP8 DUP4 PUSH2 0x294B JUMP JUMPDEST POP PUSH2 0x32A6 JUMP JUMPDEST PUSH2 0x32A6 DUP4 DUP7 PUSH2 0x2710 PUSH2 0x31BC DUP6 PUSH1 0x28 PUSH4 0xFFFFFFFF PUSH2 0x249E AND JUMP JUMPDEST POP POP POP POP JUMPDEST PUSH1 0x6 SLOAD PUSH1 0x40 MLOAD PUSH32 0x70A0823100000000000000000000000000000000000000000000000000000000 DUP2 MSTORE PUSH20 0xFFFFFFFFFFFFFFFFFFFFFFFFFFFFFFFFFFFFFFFF SWAP1 SWAP2 AND SWAP1 PUSH4 0x70A08231 SWAP1 PUSH2 0x3301 SWAP1 ADDRESS SWAP1 PUSH1 0x4 ADD PUSH2 0x460F JUMP JUMPDEST PUSH1 0x20 PUSH1 0x40 MLOAD DUP1 DUP4 SUB DUP2 DUP7 DUP1 EXTCODESIZE ISZERO DUP1 ISZERO PUSH2 0x3319 JUMPI PUSH1 0x0 DUP1 REVERT JUMPDEST POP GAS STATICCALL ISZERO DUP1 ISZERO PUSH2 0x332D JUMPI RETURNDATASIZE PUSH1 0x0 DUP1 RETURNDATACOPY RETURNDATASIZE PUSH1 0x0 REVERT JUMPDEST POP POP POP POP PUSH1 0x40 MLOAD RETURNDATASIZE PUSH1 0x1F NOT PUSH1 0x1F DUP3 ADD AND DUP3 ADD DUP1 PUSH1 0x40 MSTORE POP PUSH2 0x3351 SWAP2 SWAP1 DUP2 ADD SWAP1 PUSH2 0x3F76 JUMP JUMPDEST PUSH1 0x7 SLOAD PUSH1 0x40 MLOAD PUSH32 0x70A0823100000000000000000000000000000000000000000000000000000000 DUP2 MSTORE SWAP2 SWAP7 POP PUSH20 0xFFFFFFFFFFFFFFFFFFFFFFFFFFFFFFFFFFFFFFFF AND SWAP1 PUSH4 0x70A08231 SWAP1 PUSH2 0x33A8 SWAP1 ADDRESS SWAP1 PUSH1 0x4 ADD PUSH2 0x460F JUMP JUMPDEST PUSH1 0x20 PUSH1 0x40 MLOAD DUP1 DUP4 SUB DUP2 DUP7 DUP1 EXTCODESIZE ISZERO DUP1 ISZERO PUSH2 0x33C0 JUMPI PUSH1 0x0 DUP1 REVERT JUMPDEST POP GAS STATICCALL ISZERO DUP1 ISZERO PUSH2 0x33D4 JUMPI RETURNDATASIZE PUSH1 0x0 DUP1 RETURNDATACOPY RETURNDATASIZE PUSH1 0x0 REVERT JUMPDEST POP POP POP POP PUSH1 0x40 MLOAD RETURNDATASIZE PUSH1 0x1F NOT PUSH1 0x1F DUP3 ADD AND DUP3 ADD DUP1 PUSH1 0x40 MSTORE POP PUSH2 0x33F8 SWAP2 SWAP1 DUP2 ADD SWAP1 PUSH2 0x3F76 JUMP JUMPDEST SWAP4 POP JUMPDEST POP PUSH2 0x3408 DUP5 DUP5 DUP9 DUP9 PUSH2 0x260A JUMP JUMPDEST PUSH2 0x3410 PUSH2 0x1E4D JUMP JUMPDEST ISZERO PUSH2 0x34B6 JUMPI PUSH2 0x3422 ADDRESS DUP4 DUP4 DUP14 DUP14 PUSH2 0x35CF JUMP JUMPDEST PUSH1 0x5 SLOAD PUSH1 0x6 SLOAD PUSH1 0x7 SLOAD PUSH1 0x40 MLOAD PUSH32 0x59DF970600000000000000000000000000000000000000000000000000000000 DUP2 MSTORE PUSH20 0xFFFFFFFFFFFFFFFFFFFFFFFFFFFFFFFFFFFFFFFF SWAP4 DUP5 AND SWAP4 PUSH4 0x59DF9706 SWAP4 PUSH2 0x3483 SWAP4 SWAP1 DUP3 AND SWAP3 SWAP2 AND SWAP1 PUSH1 0x4 ADD PUSH2 0x4661 JUMP JUMPDEST PUSH1 0x0 PUSH1 0x40 MLOAD DUP1 DUP4 SUB DUP2 PUSH1 0x0 DUP8 DUP1 EXTCODESIZE ISZERO DUP1 ISZERO PUSH2 0x349D JUMPI PUSH1 0x0 DUP1 REVERT JUMPDEST POP GAS CALL ISZERO DUP1 ISZERO PUSH2 0x34B1 JUMPI RETURNDATASIZE PUSH1 0x0 DUP1 RETURNDATACOPY RETURNDATASIZE PUSH1 0x0 REVERT JUMPDEST POP POP POP POP JUMPDEST DUP8 PUSH20 0xFFFFFFFFFFFFFFFFFFFFFFFFFFFFFFFFFFFFFFFF AND CALLER PUSH20 0xFFFFFFFFFFFFFFFFFFFFFFFFFFFFFFFFFFFFFFFF AND PUSH32 0xD78AD95FA46C994B6551D0DA85FC275FE613CE37657FB8D5E3D130840159D822 DUP5 DUP5 DUP15 DUP15 PUSH1 0x40 MLOAD PUSH2 0x3519 SWAP5 SWAP4 SWAP3 SWAP2 SWAP1 PUSH2 0x492A JUMP JUMPDEST PUSH1 0x40 MLOAD DUP1 SWAP2 SUB SWAP1 LOG3 POP POP POP POP POP POP POP POP POP POP JUMP JUMPDEST DUP1 DUP3 ADD DUP3 DUP2 LT ISZERO PUSH2 0x4D2 JUMPI PUSH1 0x40 MLOAD PUSH32 0x8C379A000000000000000000000000000000000000000000000000000000000 DUP2 MSTORE PUSH1 0x4 ADD PUSH2 0x5FE SWAP1 PUSH2 0x47F9 JUMP JUMPDEST PUSH14 0xFFFFFFFFFFFFFFFFFFFFFFFFFFFF AND PUSH15 0x10000000000000000000000000000 MUL SWAP1 JUMP JUMPDEST PUSH1 0x0 PUSH14 0xFFFFFFFFFFFFFFFFFFFFFFFFFFFF DUP3 AND PUSH28 0xFFFFFFFFFFFFFFFFFFFFFFFFFFFFFFFFFFFFFFFFFFFFFFFFFFFFFFFF DUP5 AND DUP2 PUSH2 0x35C7 JUMPI INVALID JUMPDEST DIV SWAP4 SWAP3 POP POP POP JUMP JUMPDEST PUSH1 0x0 DUP6 PUSH20 0xFFFFFFFFFFFFFFFFFFFFFFFFFFFFFFFFFFFFFFFF AND PUSH4 0xC45A0155 PUSH1 0x40 MLOAD DUP2 PUSH4 0xFFFFFFFF AND PUSH1 0xE0 SHL DUP2 MSTORE PUSH1 0x4 ADD PUSH1 0x20 PUSH1 0x40 MLOAD DUP1 DUP4 SUB DUP2 DUP7 DUP1 EXTCODESIZE ISZERO DUP1 ISZERO PUSH2 0x3617 JUMPI PUSH1 0x0 DUP1 REVERT JUMPDEST POP GAS STATICCALL ISZERO DUP1 ISZERO PUSH2 0x362B JUMPI RETURNDATASIZE PUSH1 0x0 DUP1 RETURNDATACOPY RETURNDATASIZE PUSH1 0x0 REVERT JUMPDEST POP POP POP POP PUSH1 0x40 MLOAD RETURNDATASIZE PUSH1 0x1F NOT PUSH1 0x1F DUP3 ADD AND DUP3 ADD DUP1 PUSH1 0x40 MSTORE POP PUSH2 0x364F SWAP2 SWAP1 DUP2 ADD SWAP1 PUSH2 0x3CCB JUMP JUMPDEST SWAP1 POP PUSH1 0x0 DUP7 PUSH20 0xFFFFFFFFFFFFFFFFFFFFFFFFFFFFFFFFFFFFFFFF AND PUSH4 0xDFE1681 PUSH1 0x40 MLOAD DUP2 PUSH4 0xFFFFFFFF AND PUSH1 0xE0 SHL DUP2 MSTORE PUSH1 0x4 ADD PUSH1 0x20 PUSH1 0x40 MLOAD DUP1 DUP4 SUB DUP2 DUP7 DUP1 EXTCODESIZE ISZERO DUP1 ISZERO PUSH2 0x3699 JUMPI PUSH1 0x0 DUP1 REVERT JUMPDEST POP GAS STATICCALL ISZERO DUP1 ISZERO PUSH2 0x36AD JUMPI RETURNDATASIZE PUSH1 0x0 DUP1 RETURNDATACOPY RETURNDATASIZE PUSH1 0x0 REVERT JUMPDEST POP POP POP POP PUSH1 0x40 MLOAD RETURNDATASIZE PUSH1 0x1F NOT PUSH1 0x1F DUP3 ADD AND DUP3 ADD DUP1 PUSH1 0x40 MSTORE POP PUSH2 0x36D1 SWAP2 SWAP1 DUP2 ADD SWAP1 PUSH2 0x3CCB JUMP JUMPDEST SWAP1 POP PUSH1 0x0 DUP8 PUSH20 0xFFFFFFFFFFFFFFFFFFFFFFFFFFFFFFFFFFFFFFFF AND PUSH4 0xD21220A7 PUSH1 0x40 MLOAD DUP2 PUSH4 0xFFFFFFFF AND PUSH1 0xE0 SHL DUP2 MSTORE PUSH1 0x4 ADD PUSH1 0x20 PUSH1 0x40 MLOAD DUP1 DUP4 SUB DUP2 DUP7 DUP1 EXTCODESIZE ISZERO DUP1 ISZERO PUSH2 0x371B JUMPI PUSH1 0x0 DUP1 REVERT JUMPDEST POP GAS STATICCALL ISZERO DUP1 ISZERO PUSH2 0x372F JUMPI RETURNDATASIZE PUSH1 0x0 DUP1 RETURNDATACOPY RETURNDATASIZE PUSH1 0x0 REVERT JUMPDEST POP POP POP POP PUSH1 0x40 MLOAD RETURNDATASIZE PUSH1 0x1F NOT PUSH1 0x1F DUP3 ADD AND DUP3 ADD DUP1 PUSH1 0x40 MSTORE POP PUSH2 0x3753 SWAP2 SWAP1 DUP2 ADD SWAP1 PUSH2 0x3CCB JUMP JUMPDEST PUSH1 0x40 MLOAD PUSH32 0xAC033BD900000000000000000000000000000000000000000000000000000000 DUP2 MSTORE SWAP1 SWAP2 POP PUSH20 0xFFFFFFFFFFFFFFFFFFFFFFFFFFFFFFFFFFFFFFFF DUP5 AND SWAP1 PUSH4 0xAC033BD9 SWAP1 PUSH2 0x37AA SWAP1 DUP6 SWAP1 DUP6 SWAP1 PUSH1 0x4 ADD PUSH2 0x4661 JUMP JUMPDEST PUSH1 0x20 PUSH1 0x40 MLOAD DUP1 DUP4 SUB DUP2 DUP7 DUP1 EXTCODESIZE ISZERO DUP1 ISZERO PUSH2 0x37C2 JUMPI PUSH1 0x0 DUP1 REVERT JUMPDEST POP GAS STATICCALL ISZERO DUP1 ISZERO PUSH2 0x37D6 JUMPI RETURNDATASIZE PUSH1 0x0 DUP1 RETURNDATACOPY RETURNDATASIZE PUSH1 0x0 REVERT JUMPDEST POP POP POP POP PUSH1 0x40 MLOAD RETURNDATASIZE PUSH1 0x1F NOT PUSH1 0x1F DUP3 ADD AND DUP3 ADD DUP1 PUSH1 0x40 MSTORE POP PUSH2 0x37FA SWAP2 SWAP1 DUP2 ADD SWAP1 PUSH2 0x3E7F JUMP JUMPDEST ISZERO PUSH2 0x38C4 JUMPI PUSH1 0x0 DUP1 DUP10 PUSH20 0xFFFFFFFFFFFFFFFFFFFFFFFFFFFFFFFFFFFFFFFF AND PUSH4 0x902F1AC PUSH1 0x40 MLOAD DUP2 PUSH4 0xFFFFFFFF AND PUSH1 0xE0 SHL DUP2 MSTORE PUSH1 0x4 ADD PUSH1 0x60 PUSH1 0x40 MLOAD DUP1 DUP4 SUB DUP2 DUP7 DUP1 EXTCODESIZE ISZERO DUP1 ISZERO PUSH2 0x3848 JUMPI PUSH1 0x0 DUP1 REVERT JUMPDEST POP GAS STATICCALL ISZERO DUP1 ISZERO PUSH2 0x385C JUMPI RETURNDATASIZE PUSH1 0x0 DUP1 RETURNDATACOPY RETURNDATASIZE PUSH1 0x0 REVERT JUMPDEST POP POP POP POP PUSH1 0x40 MLOAD RETURNDATASIZE PUSH1 0x1F NOT PUSH1 0x1F DUP3 ADD AND DUP3 ADD DUP1 PUSH1 0x40 MSTORE POP PUSH2 0x3880 SWAP2 SWAP1 DUP2 ADD SWAP1 PUSH2 0x3F33 JUMP JUMPDEST POP PUSH14 0xFFFFFFFFFFFFFFFFFFFFFFFFFFFF AND SWAP2 POP PUSH14 0xFFFFFFFFFFFFFFFFFFFFFFFFFFFF AND SWAP2 POP PUSH2 0x38B3 DUP5 DUP11 DUP6 DUP10 DUP6 DUP11 PUSH2 0x38CE JUMP JUMPDEST PUSH2 0x38C1 DUP4 DUP10 DUP7 DUP11 DUP7 DUP11 PUSH2 0x38CE JUMP JUMPDEST POP POP JUMPDEST POP POP POP POP POP POP POP POP JUMP JUMPDEST PUSH1 0x0 DUP6 GT PUSH2 0x38DB JUMPI PUSH2 0x3A9A JUMP JUMPDEST PUSH1 0x0 DUP4 DUP4 GT PUSH2 0x38EB JUMPI PUSH1 0x64 PUSH2 0x3919 JUMP JUMPDEST PUSH2 0x3919 PUSH1 0x64 DUP5 DIV PUSH2 0x3902 DUP6 DUP8 PUSH4 0xFFFFFFFF PUSH2 0x21C4 AND JUMP JUMPDEST DUP2 PUSH2 0x3909 JUMPI INVALID JUMPDEST PUSH1 0x64 SWAP2 SWAP1 DIV PUSH4 0xFFFFFFFF PUSH2 0x21C4 AND JUMP JUMPDEST SWAP1 POP PUSH1 0x0 DUP1 DUP4 PUSH20 0xFFFFFFFFFFFFFFFFFFFFFFFFFFFFFFFFFFFFFFFF AND PUSH4 0xF5C4E1E7 DUP11 DUP11 DUP11 PUSH1 0x40 MLOAD DUP5 PUSH4 0xFFFFFFFF AND PUSH1 0xE0 SHL DUP2 MSTORE PUSH1 0x4 ADD PUSH2 0x395B SWAP4 SWAP3 SWAP2 SWAP1 PUSH2 0x46F1 JUMP JUMPDEST PUSH1 0x20 PUSH1 0x40 MLOAD DUP1 DUP4 SUB DUP2 DUP7 DUP1 EXTCODESIZE ISZERO DUP1 ISZERO PUSH2 0x3973 JUMPI PUSH1 0x0 DUP1 REVERT JUMPDEST POP GAS STATICCALL ISZERO DUP1 ISZERO PUSH2 0x3987 JUMPI RETURNDATASIZE PUSH1 0x0 DUP1 RETURNDATACOPY RETURNDATASIZE PUSH1 0x0 REVERT JUMPDEST POP POP POP POP PUSH1 0x40 MLOAD RETURNDATASIZE PUSH1 0x1F NOT PUSH1 0x1F DUP3 ADD AND DUP3 ADD DUP1 PUSH1 0x40 MSTORE POP PUSH2 0x39AB SWAP2 SWAP1 DUP2 ADD SWAP1 PUSH2 0x3F76 JUMP JUMPDEST SWAP1 POP DUP6 DUP2 EQ ISZERO PUSH2 0x39BE JUMPI PUSH1 0x0 SWAP2 POP PUSH2 0x3A16 JUMP JUMPDEST PUSH1 0x0 PUSH2 0x39CA DUP3 DUP9 PUSH2 0x3AA2 JUMP JUMPDEST SWAP1 POP PUSH1 0x0 PUSH2 0x39D8 DUP4 DUP10 PUSH2 0x25F4 JUMP JUMPDEST SWAP1 POP PUSH1 0x2 PUSH2 0x39EC DUP4 DUP4 PUSH4 0xFFFFFFFF PUSH2 0x352D AND JUMP JUMPDEST DUP2 PUSH2 0x39F3 JUMPI INVALID JUMPDEST DIV PUSH2 0x3A09 PUSH1 0x64 PUSH2 0x2FA7 DUP6 DUP6 PUSH4 0xFFFFFFFF PUSH2 0x21C4 AND JUMP JUMPDEST DUP2 PUSH2 0x3A10 JUMPI INVALID JUMPDEST DIV SWAP4 POP POP POP JUMPDEST POP PUSH1 0x0 DUP2 GT PUSH2 0x3A26 JUMPI POP POP PUSH2 0x3A9A JUMP JUMPDEST PUSH1 0x0 PUSH2 0x3A41 PUSH2 0x3A34 DUP5 PUSH2 0x24EF JUMP JUMPDEST DUP5 SWAP1 PUSH4 0xFFFFFFFF PUSH2 0x249E AND JUMP JUMPDEST SWAP1 POP PUSH1 0x62 DUP2 GT ISZERO PUSH2 0x3A50 JUMPI POP PUSH1 0x62 JUMPDEST PUSH2 0x3A61 PUSH1 0x64 DUP3 PUSH4 0xFFFFFFFF PUSH2 0x21C4 AND JUMP JUMPDEST DUP3 GT ISZERO PUSH2 0x1469 JUMPI PUSH1 0x40 MLOAD PUSH32 0x8C379A000000000000000000000000000000000000000000000000000000000 DUP2 MSTORE PUSH1 0x4 ADD PUSH2 0x5FE SWAP1 PUSH2 0x47D9 JUMP JUMPDEST POP POP POP POP POP POP JUMP JUMPDEST PUSH1 0x0 DUP2 DUP4 LT ISZERO PUSH2 0x2603 JUMPI DUP2 PUSH2 0x771 JUMP JUMPDEST PUSH1 0x40 DUP1 MLOAD PUSH1 0xA0 DUP2 ADD DUP3 MSTORE PUSH1 0x0 DUP1 DUP3 MSTORE PUSH1 0x20 DUP3 ADD DUP2 SWAP1 MSTORE SWAP2 DUP2 ADD DUP3 SWAP1 MSTORE PUSH1 0x60 DUP2 ADD DUP3 SWAP1 MSTORE PUSH1 0x80 DUP2 ADD SWAP2 SWAP1 SWAP2 MSTORE SWAP1 JUMP JUMPDEST DUP1 CALLDATALOAD PUSH2 0x4D2 DUP2 PUSH2 0x4A80 JUMP JUMPDEST DUP1 MLOAD PUSH2 0x4D2 DUP2 PUSH2 0x4A80 JUMP JUMPDEST PUSH1 0x0 DUP1 DUP4 PUSH1 0x1F DUP5 ADD SLT PUSH2 0x3B08 JUMPI PUSH1 0x0 DUP1 REVERT JUMPDEST POP DUP2 CALLDATALOAD PUSH8 0xFFFFFFFFFFFFFFFF DUP2 GT ISZERO PUSH2 0x3B20 JUMPI PUSH1 0x0 DUP1 REVERT JUMPDEST PUSH1 0x20 DUP4 ADD SWAP2 POP DUP4 PUSH1 0xA0 DUP3 MUL DUP4 ADD GT ISZERO PUSH2 0x3B38 JUMPI PUSH1 0x0 DUP1 REVERT JUMPDEST SWAP3 POP SWAP3 SWAP1 POP JUMP JUMPDEST DUP1 CALLDATALOAD PUSH2 0x4D2 DUP2 PUSH2 0x4A97 JUMP JUMPDEST DUP1 MLOAD PUSH2 0x4D2 DUP2 PUSH2 0x4A97 JUMP JUMPDEST DUP1 CALLDATALOAD PUSH2 0x4D2 DUP2 PUSH2 0x4AA0 JUMP JUMPDEST PUSH1 0x0 DUP1 DUP4 PUSH1 0x1F DUP5 ADD SLT PUSH2 0x3B72 JUMPI PUSH1 0x0 DUP1 REVERT JUMPDEST POP DUP2 CALLDATALOAD PUSH8 0xFFFFFFFFFFFFFFFF DUP2 GT ISZERO PUSH2 0x3B8A JUMPI PUSH1 0x0 DUP1 REVERT JUMPDEST PUSH1 0x20 DUP4 ADD SWAP2 POP DUP4 PUSH1 0x1 DUP3 MUL DUP4 ADD GT ISZERO PUSH2 0x3B38 JUMPI PUSH1 0x0 DUP1 REVERT JUMPDEST PUSH1 0x0 DUP3 PUSH1 0x1F DUP4 ADD SLT PUSH2 0x3BB3 JUMPI PUSH1 0x0 DUP1 REVERT JUMPDEST DUP2 MLOAD PUSH2 0x3BC6 PUSH2 0x3BC1 DUP3 PUSH2 0x497A JUMP JUMPDEST PUSH2 0x4953 JUMP JUMPDEST SWAP2 POP DUP1 DUP3 MSTORE PUSH1 0x20 DUP4 ADD PUSH1 0x20 DUP4 ADD DUP6 DUP4 DUP4 ADD GT ISZERO PUSH2 0x3BE2 JUMPI PUSH1 0x0 DUP1 REVERT JUMPDEST PUSH2 0x3BED DUP4 DUP3 DUP5 PUSH2 0x4A2C JUMP JUMPDEST POP POP POP SWAP3 SWAP2 POP POP JUMP JUMPDEST PUSH1 0x0 PUSH1 0xA0 DUP3 DUP5 SUB SLT ISZERO PUSH2 0x3C08 JUMPI PUSH1 0x0 DUP1 REVERT JUMPDEST PUSH2 0x3C12 PUSH1 0xA0 PUSH2 0x4953 JUMP JUMPDEST SWAP1 POP PUSH1 0x0 PUSH2 0x3C20 DUP5 DUP5 PUSH2 0x3AE0 JUMP JUMPDEST DUP3 MSTORE POP PUSH1 0x20 PUSH2 0x3C31 DUP5 DUP5 DUP4 ADD PUSH2 0x3B55 JUMP JUMPDEST PUSH1 0x20 DUP4 ADD MSTORE POP PUSH1 0x40 PUSH2 0x3C45 DUP5 DUP3 DUP6 ADD PUSH2 0x3C9A JUMP JUMPDEST PUSH1 0x40 DUP4 ADD MSTORE POP PUSH1 0x60 PUSH2 0x3C59 DUP5 DUP3 DUP6 ADD PUSH2 0x3B55 JUMP JUMPDEST PUSH1 0x60 DUP4 ADD MSTORE POP PUSH1 0x80 PUSH2 0x3C6D DUP5 DUP3 DUP6 ADD PUSH2 0x3B55 JUMP JUMPDEST PUSH1 0x80 DUP4 ADD MSTORE POP SWAP3 SWAP2 POP POP JUMP JUMPDEST DUP1 MLOAD PUSH2 0x4D2 DUP2 PUSH2 0x4AA9 JUMP JUMPDEST DUP1 MLOAD PUSH2 0x4D2 DUP2 PUSH2 0x4AA0 JUMP JUMPDEST DUP1 MLOAD PUSH2 0x4D2 DUP2 PUSH2 0x4AB2 JUMP JUMPDEST DUP1 CALLDATALOAD PUSH2 0x4D2 DUP2 PUSH2 0x4ABB JUMP JUMPDEST PUSH1 0x0 PUSH1 0x20 DUP3 DUP5 SUB SLT ISZERO PUSH2 0x3CB7 JUMPI PUSH1 0x0 DUP1 REVERT JUMPDEST PUSH1 0x0 PUSH2 0x3CC3 DUP5 DUP5 PUSH2 0x3AE0 JUMP JUMPDEST SWAP5 SWAP4 POP POP POP POP JUMP JUMPDEST PUSH1 0x0 PUSH1 0x20 DUP3 DUP5 SUB SLT ISZERO PUSH2 0x3CDD JUMPI PUSH1 0x0 DUP1 REVERT JUMPDEST PUSH1 0x0 PUSH2 0x3CC3 DUP5 DUP5 PUSH2 0x3AEB JUMP JUMPDEST PUSH1 0x0 DUP1 PUSH1 0x40 DUP4 DUP6 SUB SLT ISZERO PUSH2 0x3CFC JUMPI PUSH1 0x0 DUP1 REVERT JUMPDEST PUSH1 0x0 PUSH2 0x3D08 DUP6 DUP6 PUSH2 0x3AE0 JUMP JUMPDEST SWAP3 POP POP PUSH1 0x20 PUSH2 0x3D19 DUP6 DUP3 DUP7 ADD PUSH2 0x3AE0 JUMP JUMPDEST SWAP2 POP POP SWAP3 POP SWAP3 SWAP1 POP JUMP JUMPDEST PUSH1 0x0 DUP1 PUSH1 0x0 PUSH1 0x60 DUP5 DUP7 SUB SLT ISZERO PUSH2 0x3D38 JUMPI PUSH1 0x0 DUP1 REVERT JUMPDEST PUSH1 0x0 PUSH2 0x3D44 DUP7 DUP7 PUSH2 0x3AE0 JUMP JUMPDEST SWAP4 POP POP PUSH1 0x20 PUSH2 0x3D55 DUP7 DUP3 DUP8 ADD PUSH2 0x3AE0 JUMP JUMPDEST SWAP3 POP POP PUSH1 0x40 PUSH2 0x3D66 DUP7 DUP3 DUP8 ADD PUSH2 0x3B3F JUMP JUMPDEST SWAP2 POP POP SWAP3 POP SWAP3 POP SWAP3 JUMP JUMPDEST PUSH1 0x0 DUP1 PUSH1 0x0 PUSH1 0x60 DUP5 DUP7 SUB SLT ISZERO PUSH2 0x3D85 JUMPI PUSH1 0x0 DUP1 REVERT JUMPDEST PUSH1 0x0 PUSH2 0x3D91 DUP7 DUP7 PUSH2 0x3AE0 JUMP JUMPDEST SWAP4 POP POP PUSH1 0x20 PUSH2 0x3DA2 DUP7 DUP3 DUP8 ADD PUSH2 0x3AE0 JUMP JUMPDEST SWAP3 POP POP PUSH1 0x40 PUSH2 0x3D66 DUP7 DUP3 DUP8 ADD PUSH2 0x3B55 JUMP JUMPDEST PUSH1 0x0 DUP1 PUSH1 0x0 DUP1 PUSH1 0x0 DUP1 PUSH1 0x0 PUSH1 0xE0 DUP9 DUP11 SUB SLT ISZERO PUSH2 0x3DCE JUMPI PUSH1 0x0 DUP1 REVERT JUMPDEST PUSH1 0x0 PUSH2 0x3DDA DUP11 DUP11 PUSH2 0x3AE0 JUMP JUMPDEST SWAP8 POP POP PUSH1 0x20 PUSH2 0x3DEB DUP11 DUP3 DUP12 ADD PUSH2 0x3AE0 JUMP JUMPDEST SWAP7 POP POP PUSH1 0x40 PUSH2 0x3DFC DUP11 DUP3 DUP12 ADD PUSH2 0x3B55 JUMP JUMPDEST SWAP6 POP POP PUSH1 0x60 PUSH2 0x3E0D DUP11 DUP3 DUP12 ADD PUSH2 0x3B55 JUMP JUMPDEST SWAP5 POP POP PUSH1 0x80 PUSH2 0x3E1E DUP11 DUP3 DUP12 ADD PUSH2 0x3C9A JUMP JUMPDEST SWAP4 POP POP PUSH1 0xA0 PUSH2 0x3E2F DUP11 DUP3 DUP12 ADD PUSH2 0x3B55 JUMP JUMPDEST SWAP3 POP POP PUSH1 0xC0 PUSH2 0x3E40 DUP11 DUP3 DUP12 ADD PUSH2 0x3B55 JUMP JUMPDEST SWAP2 POP POP SWAP3 SWAP6 SWAP9 SWAP2 SWAP5 SWAP8 POP SWAP3 SWAP6 POP JUMP JUMPDEST PUSH1 0x0 DUP1 PUSH1 0x40 DUP4 DUP6 SUB SLT ISZERO PUSH2 0x3E62 JUMPI PUSH1 0x0 DUP1 REVERT JUMPDEST PUSH1 0x0 PUSH2 0x3E6E DUP6 DUP6 PUSH2 0x3AE0 JUMP JUMPDEST SWAP3 POP POP PUSH1 0x20 PUSH2 0x3D19 DUP6 DUP3 DUP7 ADD PUSH2 0x3B55 JUMP JUMPDEST PUSH1 0x0 PUSH1 0x20 DUP3 DUP5 SUB SLT ISZERO PUSH2 0x3E91 JUMPI PUSH1 0x0 DUP1 REVERT JUMPDEST PUSH1 0x0 PUSH2 0x3CC3 DUP5 DUP5 PUSH2 0x3B4A JUMP JUMPDEST PUSH1 0x0 DUP1 PUSH1 0x40 DUP4 DUP6 SUB SLT ISZERO PUSH2 0x3EB0 JUMPI PUSH1 0x0 DUP1 REVERT JUMPDEST PUSH1 0x0 PUSH2 0x3EBC DUP6 DUP6 PUSH2 0x3B3F JUMP JUMPDEST SWAP3 POP POP PUSH1 0x20 PUSH2 0x3D19 DUP6 DUP3 DUP7 ADD PUSH2 0x3B3F JUMP JUMPDEST PUSH1 0x0 DUP1 PUSH1 0x40 DUP4 DUP6 SUB SLT ISZERO PUSH2 0x3EE0 JUMPI PUSH1 0x0 DUP1 REVERT JUMPDEST PUSH1 0x0 PUSH2 0x3EEC DUP6 DUP6 PUSH2 0x3B4A JUMP JUMPDEST SWAP3 POP POP PUSH1 0x20 DUP4 ADD MLOAD PUSH8 0xFFFFFFFFFFFFFFFF DUP2 GT ISZERO PUSH2 0x3F09 JUMPI PUSH1 0x0 DUP1 REVERT JUMPDEST PUSH2 0x3D19 DUP6 DUP3 DUP7 ADD PUSH2 0x3BA2 JUMP JUMPDEST PUSH1 0x0 PUSH1 0xA0 DUP3 DUP5 SUB SLT ISZERO PUSH2 0x3F27 JUMPI PUSH1 0x0 DUP1 REVERT JUMPDEST PUSH1 0x0 PUSH2 0x3CC3 DUP5 DUP5 PUSH2 0x3BF6 JUMP JUMPDEST PUSH1 0x0 DUP1 PUSH1 0x0 PUSH1 0x60 DUP5 DUP7 SUB SLT ISZERO PUSH2 0x3F48 JUMPI PUSH1 0x0 DUP1 REVERT JUMPDEST PUSH1 0x0 PUSH2 0x3F54 DUP7 DUP7 PUSH2 0x3C79 JUMP JUMPDEST SWAP4 POP POP PUSH1 0x20 PUSH2 0x3F65 DUP7 DUP3 DUP8 ADD PUSH2 0x3C79 JUMP JUMPDEST SWAP3 POP POP PUSH1 0x40 PUSH2 0x3D66 DUP7 DUP3 DUP8 ADD PUSH2 0x3C8F JUMP JUMPDEST PUSH1 0x0 PUSH1 0x20 DUP3 DUP5 SUB SLT ISZERO PUSH2 0x3F88 JUMPI PUSH1 0x0 DUP1 REVERT JUMPDEST PUSH1 0x0 PUSH2 0x3CC3 DUP5 DUP5 PUSH2 0x3C84 JUMP JUMPDEST PUSH1 0x0 DUP1 PUSH1 0x0 DUP1 PUSH1 0x0 DUP1 PUSH1 0x0 PUSH1 0xA0 DUP9 DUP11 SUB SLT ISZERO PUSH2 0x3FAF JUMPI PUSH1 0x0 DUP1 REVERT JUMPDEST PUSH1 0x0 PUSH2 0x3FBB DUP11 DUP11 PUSH2 0x3B55 JUMP JUMPDEST SWAP8 POP POP PUSH1 0x20 PUSH2 0x3FCC DUP11 DUP3 DUP12 ADD PUSH2 0x3B55 JUMP JUMPDEST SWAP7 POP POP PUSH1 0x40 PUSH2 0x3FDD DUP11 DUP3 DUP12 ADD PUSH2 0x3AE0 JUMP JUMPDEST SWAP6 POP POP PUSH1 0x60 DUP9 ADD CALLDATALOAD PUSH8 0xFFFFFFFFFFFFFFFF DUP2 GT ISZERO PUSH2 0x3FFA JUMPI PUSH1 0x0 DUP1 REVERT JUMPDEST PUSH2 0x4006 DUP11 DUP3 DUP12 ADD PUSH2 0x3B60 JUMP JUMPDEST SWAP5 POP SWAP5 POP POP PUSH1 0x80 DUP9 ADD CALLDATALOAD PUSH8 0xFFFFFFFFFFFFFFFF DUP2 GT ISZERO PUSH2 0x4025 JUMPI PUSH1 0x0 DUP1 REVERT JUMPDEST PUSH2 0x4031 DUP11 DUP3 DUP12 ADD PUSH2 0x3AF6 JUMP JUMPDEST SWAP3 POP SWAP3 POP POP SWAP3 SWAP6 SWAP9 SWAP2 SWAP5 SWAP8 POP SWAP3 SWAP6 POP JUMP JUMPDEST PUSH2 0x404B DUP2 PUSH2 0x4A1B JUMP JUMPDEST DUP3 MSTORE POP POP JUMP JUMPDEST PUSH2 0x404B DUP2 PUSH2 0x49CD JUMP JUMPDEST PUSH2 0x404B DUP2 PUSH2 0x49D8 JUMP JUMPDEST PUSH2 0x404B DUP2 PUSH2 0x49DD JUMP JUMPDEST PUSH2 0x404B PUSH2 0x4078 DUP3 PUSH2 0x49DD JUMP JUMPDEST PUSH2 0x49DD JUMP JUMPDEST PUSH1 0x0 PUSH2 0x4088 DUP3 PUSH2 0x49C0 JUMP JUMPDEST PUSH2 0x4092 DUP2 DUP6 PUSH2 0x49C4 JUMP JUMPDEST SWAP4 POP PUSH2 0x40A2 DUP2 DUP6 PUSH1 0x20 DUP7 ADD PUSH2 0x4A2C JUMP JUMPDEST PUSH2 0x40AB DUP2 PUSH2 0x4A58 JUMP JUMPDEST SWAP1 SWAP4 ADD SWAP4 SWAP3 POP POP POP JUMP JUMPDEST PUSH1 0x0 PUSH2 0x40C0 DUP3 PUSH2 0x49C0 JUMP JUMPDEST PUSH2 0x40CA DUP2 DUP6 PUSH2 0x253C JUMP JUMPDEST SWAP4 POP PUSH2 0x40DA DUP2 DUP6 PUSH1 0x20 DUP7 ADD PUSH2 0x4A2C JUMP JUMPDEST SWAP3 SWAP1 SWAP3 ADD SWAP3 SWAP2 POP POP JUMP JUMPDEST PUSH1 0x0 PUSH2 0x40F1 PUSH1 0x15 DUP4 PUSH2 0x49C4 JUMP JUMPDEST PUSH32 0x64732D6D6174682D7375622D756E646572666C6F770000000000000000000000 DUP2 MSTORE PUSH1 0x20 ADD SWAP3 SWAP2 POP POP JUMP JUMPDEST PUSH1 0x0 PUSH2 0x412A PUSH1 0x8 DUP4 PUSH2 0x49C4 JUMP JUMPDEST PUSH32 0x49787356323A204B000000000000000000000000000000000000000000000000 DUP2 MSTORE PUSH1 0x20 ADD SWAP3 SWAP2 POP POP JUMP JUMPDEST PUSH1 0x0 PUSH2 0x4163 PUSH1 0x26 DUP4 PUSH2 0x49C4 JUMP JUMPDEST PUSH32 0x54574150426173656456494D56313A20484947485F564F4C4154494C4954595F DUP2 MSTORE PUSH32 0x494D504143540000000000000000000000000000000000000000000000000000 PUSH1 0x20 DUP3 ADD MSTORE PUSH1 0x40 ADD SWAP3 SWAP2 POP POP JUMP JUMPDEST PUSH1 0x0 PUSH2 0x41C2 PUSH1 0x14 DUP4 PUSH2 0x49C4 JUMP JUMPDEST PUSH32 0x64732D6D6174682D6D756C2D6F766572666C6F77000000000000000000000000 DUP2 MSTORE PUSH1 0x20 ADD SWAP3 SWAP2 POP POP JUMP JUMPDEST PUSH1 0x0 PUSH2 0x41FB PUSH1 0x2 DUP4 PUSH2 0x253C JUMP JUMPDEST PUSH32 0x1901000000000000000000000000000000000000000000000000000000000000 DUP2 MSTORE PUSH1 0x2 ADD SWAP3 SWAP2 POP POP JUMP JUMPDEST PUSH1 0x0 PUSH2 0x4234 PUSH1 0x14 DUP4 PUSH2 0x49C4 JUMP JUMPDEST PUSH32 0x64732D6D6174682D6164642D6F766572666C6F77000000000000000000000000 DUP2 MSTORE PUSH1 0x20 ADD SWAP3 SWAP2 POP POP JUMP JUMPDEST PUSH1 0x0 PUSH2 0x426D PUSH1 0x21 DUP4 PUSH2 0x49C4 JUMP JUMPDEST PUSH32 0x49787356323A20494E53554646494349454E545F4F55545055545F414D4F554E DUP2 MSTORE PUSH32 0x5400000000000000000000000000000000000000000000000000000000000000 PUSH1 0x20 DUP3 ADD MSTORE PUSH1 0x40 ADD SWAP3 SWAP2 POP POP JUMP JUMPDEST PUSH1 0x0 PUSH2 0x42CC PUSH1 0x11 DUP4 PUSH2 0x49C4 JUMP JUMPDEST PUSH32 0x49787356323A20494E56414C49445F544F000000000000000000000000000000 DUP2 MSTORE PUSH1 0x20 ADD SWAP3 SWAP2 POP POP JUMP JUMPDEST PUSH1 0x0 PUSH2 0x4305 PUSH1 0x20 DUP4 PUSH2 0x49C4 JUMP JUMPDEST PUSH32 0x49787356323A20494E53554646494349454E545F494E5055545F414D4F554E54 DUP2 MSTORE PUSH1 0x20 ADD SWAP3 SWAP2 POP POP JUMP JUMPDEST PUSH1 0x0 PUSH2 0x433E PUSH1 0x18 DUP4 PUSH2 0x49C4 JUMP JUMPDEST PUSH32 0x49787356323A20494E56414C49445F5349474E41545552450000000000000000 DUP2 MSTORE PUSH1 0x20 ADD SWAP3 SWAP2 POP POP JUMP JUMPDEST PUSH1 0x0 PUSH2 0x4377 PUSH1 0x24 DUP4 PUSH2 0x49C4 JUMP JUMPDEST PUSH32 0x49787356323A20494E53554646494349454E545F4C49515549444954595F4255 DUP2 MSTORE PUSH32 0x524E454400000000000000000000000000000000000000000000000000000000 PUSH1 0x20 DUP3 ADD MSTORE PUSH1 0x40 ADD SWAP3 SWAP2 POP POP JUMP JUMPDEST PUSH1 0x0 PUSH2 0x43D6 PUSH1 0xE DUP4 PUSH2 0x49C4 JUMP JUMPDEST PUSH32 0x49787356323A2045585049524544000000000000000000000000000000000000 DUP2 MSTORE PUSH1 0x20 ADD SWAP3 SWAP2 POP POP JUMP JUMPDEST PUSH1 0x0 PUSH2 0x440F PUSH1 0xF DUP4 PUSH2 0x49C4 JUMP JUMPDEST PUSH32 0x49787356323A204F564552464C4F570000000000000000000000000000000000 DUP2 MSTORE PUSH1 0x20 ADD SWAP3 SWAP2 POP POP JUMP JUMPDEST PUSH1 0x0 PUSH2 0x4448 PUSH1 0x11 DUP4 PUSH2 0x49C4 JUMP JUMPDEST PUSH32 0x49787356323A205345435F544F5F534543000000000000000000000000000000 DUP2 MSTORE PUSH1 0x20 ADD SWAP3 SWAP2 POP POP JUMP JUMPDEST PUSH1 0x0 PUSH2 0x4481 PUSH1 0x24 DUP4 PUSH2 0x49C4 JUMP JUMPDEST PUSH32 0x49787356323A20494E53554646494349454E545F4C49515549444954595F4D49 DUP2 MSTORE PUSH32 0x4E54454400000000000000000000000000000000000000000000000000000000 PUSH1 0x20 DUP3 ADD MSTORE PUSH1 0x40 ADD SWAP3 SWAP2 POP POP JUMP JUMPDEST PUSH1 0x0 PUSH2 0x44E0 PUSH1 0xD DUP4 PUSH2 0x49C4 JUMP JUMPDEST PUSH32 0x49787356323A204C4F434B454400000000000000000000000000000000000000 DUP2 MSTORE PUSH1 0x20 ADD SWAP3 SWAP2 POP POP JUMP JUMPDEST PUSH1 0x0 PUSH2 0x4519 PUSH1 0x10 DUP4 PUSH2 0x49C4 JUMP JUMPDEST PUSH32 0x49787356323A20464F5242494444454E00000000000000000000000000000000 DUP2 MSTORE PUSH1 0x20 ADD SWAP3 SWAP2 POP POP JUMP JUMPDEST PUSH1 0x0 PUSH2 0x4552 PUSH1 0x1D DUP4 PUSH2 0x49C4 JUMP JUMPDEST PUSH32 0x49787356323A20494E53554646494349454E545F4C4951554944495459000000 DUP2 MSTORE PUSH1 0x20 ADD SWAP3 SWAP2 POP POP JUMP JUMPDEST PUSH1 0x0 PUSH2 0x458B PUSH1 0x16 DUP4 PUSH2 0x49C4 JUMP JUMPDEST PUSH32 0x49787356323A205452414E534645525F4641494C454400000000000000000000 DUP2 MSTORE PUSH1 0x20 ADD SWAP3 SWAP2 POP POP JUMP JUMPDEST PUSH2 0x404B DUP2 PUSH2 0x49E0 JUMP JUMPDEST PUSH2 0x404B DUP2 PUSH2 0x4A0C JUMP JUMPDEST PUSH2 0x404B DUP2 PUSH2 0x4A15 JUMP JUMPDEST PUSH1 0x0 PUSH2 0x771 DUP3 DUP5 PUSH2 0x40B5 JUMP JUMPDEST PUSH1 0x0 PUSH2 0x45E9 DUP3 PUSH2 0x41EE JUMP JUMPDEST SWAP2 POP PUSH2 0x45F5 DUP3 DUP6 PUSH2 0x406C JUMP JUMPDEST PUSH1 0x20 DUP3 ADD SWAP2 POP PUSH2 0x4605 DUP3 DUP5 PUSH2 0x406C JUMP JUMPDEST POP PUSH1 0x20 ADD SWAP3 SWAP2 POP POP JUMP JUMPDEST PUSH1 0x20 DUP2 ADD PUSH2 0x4D2 DUP3 DUP5 PUSH2 0x4051 JUMP JUMPDEST PUSH1 0x80 DUP2 ADD PUSH2 0x462B DUP3 DUP8 PUSH2 0x4042 JUMP JUMPDEST PUSH2 0x4638 PUSH1 0x20 DUP4 ADD DUP7 PUSH2 0x4063 JUMP JUMPDEST PUSH2 0x4645 PUSH1 0x40 DUP4 ADD DUP6 PUSH2 0x4063 JUMP JUMPDEST DUP2 DUP2 SUB PUSH1 0x60 DUP4 ADD MSTORE PUSH2 0x4657 DUP2 DUP5 PUSH2 0x407D JUMP JUMPDEST SWAP7 SWAP6 POP POP POP POP POP POP JUMP JUMPDEST PUSH1 0x40 DUP2 ADD PUSH2 0x466F DUP3 DUP6 PUSH2 0x4051 JUMP JUMPDEST PUSH2 0x771 PUSH1 0x20 DUP4 ADD DUP5 PUSH2 0x4051 JUMP JUMPDEST PUSH1 0xC0 DUP2 ADD PUSH2 0x468A DUP3 DUP10 PUSH2 0x4051 JUMP JUMPDEST PUSH2 0x4697 PUSH1 0x20 DUP4 ADD DUP9 PUSH2 0x4051 JUMP JUMPDEST PUSH2 0x46A4 PUSH1 0x40 DUP4 ADD DUP8 PUSH2 0x4063 JUMP JUMPDEST PUSH2 0x46B1 PUSH1 0x60 DUP4 ADD DUP7 PUSH2 0x45C9 JUMP JUMPDEST PUSH2 0x46BE PUSH1 0x80 DUP4 ADD DUP6 PUSH2 0x4063 JUMP JUMPDEST PUSH2 0x46CB PUSH1 0xA0 DUP4 ADD DUP5 PUSH2 0x4063 JUMP JUMPDEST SWAP8 SWAP7 POP POP POP POP POP POP POP JUMP JUMPDEST PUSH1 0x40 DUP2 ADD PUSH2 0x46E4 DUP3 DUP6 PUSH2 0x4051 JUMP JUMPDEST PUSH2 0x771 PUSH1 0x20 DUP4 ADD DUP5 PUSH2 0x4063 JUMP JUMPDEST PUSH1 0x60 DUP2 ADD PUSH2 0x46FF DUP3 DUP7 PUSH2 0x4051 JUMP JUMPDEST PUSH2 0x470C PUSH1 0x20 DUP4 ADD DUP6 PUSH2 0x4063 JUMP JUMPDEST PUSH2 0x3CC3 PUSH1 0x40 DUP4 ADD DUP5 PUSH2 0x4051 JUMP JUMPDEST PUSH1 0x20 DUP2 ADD PUSH2 0x4D2 DUP3 DUP5 PUSH2 0x405A JUMP JUMPDEST PUSH1 0x20 DUP2 ADD PUSH2 0x4D2 DUP3 DUP5 PUSH2 0x4063 JUMP JUMPDEST PUSH1 0xC0 DUP2 ADD PUSH2 0x4743 DUP3 DUP10 PUSH2 0x4063 JUMP JUMPDEST PUSH2 0x4750 PUSH1 0x20 DUP4 ADD DUP9 PUSH2 0x4051 JUMP JUMPDEST PUSH2 0x475D PUSH1 0x40 DUP4 ADD DUP8 PUSH2 0x4051 JUMP JUMPDEST PUSH2 0x46B1 PUSH1 0x60 DUP4 ADD DUP7 PUSH2 0x4063 JUMP JUMPDEST PUSH1 0x80 DUP2 ADD PUSH2 0x4778 DUP3 DUP8 PUSH2 0x4063 JUMP JUMPDEST PUSH2 0x4785 PUSH1 0x20 DUP4 ADD DUP7 PUSH2 0x45C9 JUMP JUMPDEST PUSH2 0x4792 PUSH1 0x40 DUP4 ADD DUP6 PUSH2 0x4063 JUMP JUMPDEST PUSH2 0x479F PUSH1 0x60 DUP4 ADD DUP5 PUSH2 0x4063 JUMP JUMPDEST SWAP6 SWAP5 POP POP POP POP POP JUMP JUMPDEST PUSH1 0x20 DUP1 DUP3 MSTORE DUP2 ADD PUSH2 0x771 DUP2 DUP5 PUSH2 0x407D JUMP JUMPDEST PUSH1 0x20 DUP1 DUP3 MSTORE DUP2 ADD PUSH2 0x4D2 DUP2 PUSH2 0x40E4 JUMP JUMPDEST PUSH1 0x20 DUP1 DUP3 MSTORE DUP2 ADD PUSH2 0x4D2 DUP2 PUSH2 0x411D JUMP JUMPDEST PUSH1 0x20 DUP1 DUP3 MSTORE DUP2 ADD PUSH2 0x4D2 DUP2 PUSH2 0x4156 JUMP JUMPDEST PUSH1 0x20 DUP1 DUP3 MSTORE DUP2 ADD PUSH2 0x4D2 DUP2 PUSH2 0x41B5 JUMP JUMPDEST PUSH1 0x20 DUP1 DUP3 MSTORE DUP2 ADD PUSH2 0x4D2 DUP2 PUSH2 0x4227 JUMP JUMPDEST PUSH1 0x20 DUP1 DUP3 MSTORE DUP2 ADD PUSH2 0x4D2 DUP2 PUSH2 0x4260 JUMP JUMPDEST PUSH1 0x20 DUP1 DUP3 MSTORE DUP2 ADD PUSH2 0x4D2 DUP2 PUSH2 0x42BF JUMP JUMPDEST PUSH1 0x20 DUP1 DUP3 MSTORE DUP2 ADD PUSH2 0x4D2 DUP2 PUSH2 0x42F8 JUMP JUMPDEST PUSH1 0x20 DUP1 DUP3 MSTORE DUP2 ADD PUSH2 0x4D2 DUP2 PUSH2 0x4331 JUMP JUMPDEST PUSH1 0x20 DUP1 DUP3 MSTORE DUP2 ADD PUSH2 0x4D2 DUP2 PUSH2 0x436A JUMP JUMPDEST PUSH1 0x20 DUP1 DUP3 MSTORE DUP2 ADD PUSH2 0x4D2 DUP2 PUSH2 0x43C9 JUMP JUMPDEST PUSH1 0x20 DUP1 DUP3 MSTORE DUP2 ADD PUSH2 0x4D2 DUP2 PUSH2 0x4402 JUMP JUMPDEST PUSH1 0x20 DUP1 DUP3 MSTORE DUP2 ADD PUSH2 0x4D2 DUP2 PUSH2 0x443B JUMP JUMPDEST PUSH1 0x20 DUP1 DUP3 MSTORE DUP2 ADD PUSH2 0x4D2 DUP2 PUSH2 0x4474 JUMP JUMPDEST PUSH1 0x20 DUP1 DUP3 MSTORE DUP2 ADD PUSH2 0x4D2 DUP2 PUSH2 0x44D3 JUMP JUMPDEST PUSH1 0x20 DUP1 DUP3 MSTORE DUP2 ADD PUSH2 0x4D2 DUP2 PUSH2 0x450C JUMP JUMPDEST PUSH1 0x20 DUP1 DUP3 MSTORE DUP2 ADD PUSH2 0x4D2 DUP2 PUSH2 0x4545 JUMP JUMPDEST PUSH1 0x20 DUP1 DUP3 MSTORE DUP2 ADD PUSH2 0x4D2 DUP2 PUSH2 0x457E JUMP JUMPDEST PUSH1 0x40 DUP2 ADD PUSH2 0x48E7 DUP3 DUP6 PUSH2 0x45B7 JUMP JUMPDEST PUSH2 0x771 PUSH1 0x20 DUP4 ADD DUP5 PUSH2 0x45B7 JUMP JUMPDEST PUSH1 0x60 DUP2 ADD PUSH2 0x4902 DUP3 DUP7 PUSH2 0x45B7 JUMP JUMPDEST PUSH2 0x490F PUSH1 0x20 DUP4 ADD DUP6 PUSH2 0x45B7 JUMP JUMPDEST PUSH2 0x3CC3 PUSH1 0x40 DUP4 ADD DUP5 PUSH2 0x45C0 JUMP JUMPDEST PUSH1 0x40 DUP2 ADD PUSH2 0x46E4 DUP3 DUP6 PUSH2 0x4063 JUMP JUMPDEST PUSH1 0x80 DUP2 ADD PUSH2 0x4938 DUP3 DUP8 PUSH2 0x4063 JUMP JUMPDEST PUSH2 0x4785 PUSH1 0x20 DUP4 ADD DUP7 PUSH2 0x4063 JUMP JUMPDEST PUSH1 0x20 DUP2 ADD PUSH2 0x4D2 DUP3 DUP5 PUSH2 0x45C9 JUMP JUMPDEST PUSH1 0x40 MLOAD DUP2 DUP2 ADD PUSH8 0xFFFFFFFFFFFFFFFF DUP2 GT DUP3 DUP3 LT OR ISZERO PUSH2 0x4972 JUMPI PUSH1 0x0 DUP1 REVERT JUMPDEST PUSH1 0x40 MSTORE SWAP2 SWAP1 POP JUMP JUMPDEST PUSH1 0x0 PUSH8 0xFFFFFFFFFFFFFFFF DUP3 GT ISZERO PUSH2 0x4991 JUMPI PUSH1 0x0 DUP1 REVERT JUMPDEST POP PUSH1 0x20 PUSH1 0x1F SWAP2 SWAP1 SWAP2 ADD PUSH32 0xFFFFFFFFFFFFFFFFFFFFFFFFFFFFFFFFFFFFFFFFFFFFFFFFFFFFFFFFFFFFFFE0 AND ADD SWAP1 JUMP JUMPDEST MLOAD SWAP1 JUMP JUMPDEST SWAP1 DUP2 MSTORE PUSH1 0x20 ADD SWAP1 JUMP JUMPDEST PUSH1 0x0 PUSH2 0x4D2 DUP3 PUSH2 0x49F3 JUMP JUMPDEST ISZERO ISZERO SWAP1 JUMP JUMPDEST SWAP1 JUMP JUMPDEST PUSH14 0xFFFFFFFFFFFFFFFFFFFFFFFFFFFF AND SWAP1 JUMP JUMPDEST PUSH20 0xFFFFFFFFFFFFFFFFFFFFFFFFFFFFFFFFFFFFFFFF AND SWAP1 JUMP JUMPDEST PUSH4 0xFFFFFFFF AND SWAP1 JUMP JUMPDEST PUSH1 0xFF AND SWAP1 JUMP JUMPDEST PUSH1 0x0 PUSH2 0x4D2 DUP3 PUSH1 0x0 PUSH2 0x4D2 DUP3 PUSH2 0x49CD JUMP JUMPDEST PUSH1 0x0 JUMPDEST DUP4 DUP2 LT ISZERO PUSH2 0x4A47 JUMPI DUP2 DUP2 ADD MLOAD DUP4 DUP3 ADD MSTORE PUSH1 0x20 ADD PUSH2 0x4A2F JUMP JUMPDEST DUP4 DUP2 GT ISZERO PUSH2 0x1E25 JUMPI POP POP PUSH1 0x0 SWAP2 ADD MSTORE JUMP JUMPDEST PUSH1 0x1F ADD PUSH32 0xFFFFFFFFFFFFFFFFFFFFFFFFFFFFFFFFFFFFFFFFFFFFFFFFFFFFFFFFFFFFFFE0 AND SWAP1 JUMP JUMPDEST PUSH2 0x4A89 DUP2 PUSH2 0x49CD JUMP JUMPDEST DUP2 EQ PUSH2 0x4A94 JUMPI PUSH1 0x0 DUP1 REVERT JUMPDEST POP JUMP JUMPDEST PUSH2 0x4A89 DUP2 PUSH2 0x49D8 JUMP JUMPDEST PUSH2 0x4A89 DUP2 PUSH2 0x49DD JUMP JUMPDEST PUSH2 0x4A89 DUP2 PUSH2 0x49E0 JUMP JUMPDEST PUSH2 0x4A89 DUP2 PUSH2 0x4A0C JUMP JUMPDEST PUSH2 0x4A89 DUP2 PUSH2 0x4A15 JUMP INVALID LOG3 PUSH6 0x627A7A723158 KECCAK256 0xEF LOG1 PUSH2 0x5A8C SWAP5 0xD DELEGATECALL 0x2B 0xAD CALLVALUE PUSH2 0x31C9 MSTORE8 0x4B MSIZE RETURNDATACOPY 0xE5 LOG3 CALLDATALOAD 0xEE CALLDATALOAD 0xE6 COINBASE 0x4C REVERT DUP3 PUSH7 0xE636F6C657870 PUSH6 0x72696D656E74 PUSH2 0x6CF5 PUSH5 0x736F6C6343 STOP SDIV LT STOP BLOCKHASH "
    }
  }
}